{"abi":[{"type":"function","name":"FEE_MANAGER","inputs":[],"outputs":[{"name":"","type":"address","internalType":"contract FeeManager"}],"stateMutability":"view"},{"type":"function","name":"GRAPH","inputs":[],"outputs":[{"name":"","type":"address","internalType":"contract TitlesGraph"}],"stateMutability":"view"},{"type":"function","name":"_metadata","inputs":[{"name":"","type":"uint256","internalType":"uint256"}],"outputs":[{"name":"label","type":"string","internalType":"string"},{"name":"uri","type":"string","internalType":"string"},{"name":"data","type":"bytes","internalType":"bytes"}],"stateMutability":"view"},{"type":"function","name":"balanceOf","inputs":[{"name":"owner","type":"address","internalType":"address"},{"name":"id","type":"uint256","internalType":"uint256"}],"outputs":[{"name":"result","type":"uint256","internalType":"uint256"}],"stateMutability":"view"},{"type":"function","name":"balanceOfBatch","inputs":[{"name":"owners","type":"address[]","internalType":"address[]"},{"name":"ids","type":"uint256[]","internalType":"uint256[]"}],"outputs":[{"name":"balances","type":"uint256[]","internalType":"uint256[]"}],"stateMutability":"view"},{"type":"function","name":"cancelOwnershipHandover","inputs":[],"outputs":[],"stateMutability":"payable"},{"type":"function","name":"completeOwnershipHandover","inputs":[{"name":"pendingOwner","type":"address","internalType":"address"}],"outputs":[],"stateMutability":"payable"},{"type":"function","name":"creator","inputs":[],"outputs":[{"name":"","type":"address","internalType":"address"}],"stateMutability":"view"},{"type":"function","name":"creator","inputs":[{"name":"tokenId","type":"uint256","internalType":"uint256"}],"outputs":[{"name":"","type":"address","internalType":"address"}],"stateMutability":"view"},{"type":"function","name":"feeStrategy","inputs":[{"name":"tokenId_","type":"uint256","internalType":"uint256"}],"outputs":[{"name":"","type":"tuple","internalType":"struct Strategy","components":[{"name":"asset","type":"address","internalType":"address"},{"name":"mintFee","type":"uint112","internalType":"uint112"},{"name":"revshareBps","type":"uint16","internalType":"uint16"},{"name":"royaltyBps","type":"uint16","internalType":"uint16"}]}],"stateMutability":"view"},{"type":"function","name":"grantPublisherRole","inputs":[{"name":"publisher_","type":"address","internalType":"address"}],"outputs":[],"stateMutability":"nonpayable"},{"type":"function","name":"grantRoles","inputs":[{"name":"user_","type":"address","internalType":"address"},{"name":"roles_","type":"uint256","internalType":"uint256"}],"outputs":[],"stateMutability":"payable"},{"type":"function","name":"hasAllRoles","inputs":[{"name":"user","type":"address","internalType":"address"},{"name":"roles","type":"uint256","internalType":"uint256"}],"outputs":[{"name":"","type":"bool","internalType":"bool"}],"stateMutability":"view"},{"type":"function","name":"hasAnyRole","inputs":[{"name":"user","type":"address","internalType":"address"},{"name":"roles","type":"uint256","internalType":"uint256"}],"outputs":[{"name":"","type":"bool","internalType":"bool"}],"stateMutability":"view"},{"type":"function","name":"initialize","inputs":[{"name":"feeManager_","type":"address","internalType":"contract FeeManager"},{"name":"graph_","type":"address","internalType":"contract TitlesGraph"},{"name":"owner_","type":"address","internalType":"address"},{"name":"controller_","type":"address","internalType":"address"},{"name":"metadata_","type":"tuple","internalType":"struct Metadata","components":[{"name":"label","type":"string","internalType":"string"},{"name":"uri","type":"string","internalType":"string"},{"name":"data","type":"bytes","internalType":"bytes"}]}],"outputs":[],"stateMutability":"nonpayable"},{"type":"function","name":"isApprovedForAll","inputs":[{"name":"owner","type":"address","internalType":"address"},{"name":"operator","type":"address","internalType":"address"}],"outputs":[{"name":"result","type":"bool","internalType":"bool"}],"stateMutability":"view"},{"type":"function","name":"maxSupply","inputs":[{"name":"tokenId_","type":"uint256","internalType":"uint256"}],"outputs":[{"name":"","type":"uint256","internalType":"uint256"}],"stateMutability":"view"},{"type":"function","name":"metadata","inputs":[{"name":"id_","type":"uint256","internalType":"uint256"}],"outputs":[{"name":"","type":"tuple","internalType":"struct Metadata","components":[{"name":"label","type":"string","internalType":"string"},{"name":"uri","type":"string","internalType":"string"},{"name":"data","type":"bytes","internalType":"bytes"}]}],"stateMutability":"view"},{"type":"function","name":"mint","inputs":[{"name":"to_","type":"address","internalType":"address"},{"name":"tokenId_","type":"uint256","internalType":"uint256"},{"name":"amount_","type":"uint256","internalType":"uint256"},{"name":"referrer_","type":"address","internalType":"address"},{"name":"data_","type":"bytes","internalType":"bytes"}],"outputs":[],"stateMutability":"payable"},{"type":"function","name":"mintBatch","inputs":[{"name":"to_","type":"address","internalType":"address"},{"name":"tokenIds_","type":"uint256[]","internalType":"uint256[]"},{"name":"amounts_","type":"uint256[]","internalType":"uint256[]"},{"name":"data_","type":"bytes","internalType":"bytes"}],"outputs":[],"stateMutability":"payable"},{"type":"function","name":"mintBatch","inputs":[{"name":"receivers_","type":"address[]","internalType":"address[]"},{"name":"tokenId_","type":"uint256","internalType":"uint256"},{"name":"amount_","type":"uint256","internalType":"uint256"},{"name":"data_","type":"bytes","internalType":"bytes"}],"outputs":[],"stateMutability":"payable"},{"type":"function","name":"mintFee","inputs":[{"name":"tokenId_","type":"uint256","internalType":"uint256"},{"name":"amount_","type":"uint256","internalType":"uint256"}],"outputs":[{"name":"","type":"uint256","internalType":"uint256"}],"stateMutability":"view"},{"type":"function","name":"mintFee","inputs":[{"name":"tokenId_","type":"uint256","internalType":"uint256"}],"outputs":[{"name":"","type":"uint256","internalType":"uint256"}],"stateMutability":"view"},{"type":"function","name":"mintWithComment","inputs":[{"name":"to_","type":"address","internalType":"address"},{"name":"tokenId_","type":"uint256","internalType":"uint256"},{"name":"amount_","type":"uint256","internalType":"uint256"},{"name":"referrer_","type":"address","internalType":"address"},{"name":"data_","type":"bytes","internalType":"bytes"},{"name":"comment_","type":"string","internalType":"string"}],"outputs":[],"stateMutability":"payable"},{"type":"function","name":"name","inputs":[{"name":"tokenId","type":"uint256","internalType":"uint256"}],"outputs":[{"name":"","type":"string","internalType":"string"}],"stateMutability":"view"},{"type":"function","name":"name","inputs":[],"outputs":[{"name":"","type":"string","internalType":"string"}],"stateMutability":"view"},{"type":"function","name":"node","inputs":[{"name":"tokenId","type":"uint256","internalType":"uint256"}],"outputs":[{"name":"","type":"tuple","internalType":"struct Node","components":[{"name":"nodeType","type":"uint8","internalType":"enum NodeType"},{"name":"entity","type":"tuple","internalType":"struct Target","components":[{"name":"chainId","type":"uint256","internalType":"uint256"},{"name":"target","type":"address","internalType":"address"}]},{"name":"creator","type":"tuple","internalType":"struct Target","components":[{"name":"chainId","type":"uint256","internalType":"uint256"},{"name":"target","type":"address","internalType":"address"}]},{"name":"data","type":"bytes","internalType":"bytes"}]}],"stateMutability":"view"},{"type":"function","name":"node","inputs":[],"outputs":[{"name":"","type":"tuple","internalType":"struct Node","components":[{"name":"nodeType","type":"uint8","internalType":"enum NodeType"},{"name":"entity","type":"tuple","internalType":"struct Target","components":[{"name":"chainId","type":"uint256","internalType":"uint256"},{"name":"target","type":"address","internalType":"address"}]},{"name":"creator","type":"tuple","internalType":"struct Target","components":[{"name":"chainId","type":"uint256","internalType":"uint256"},{"name":"target","type":"address","internalType":"address"}]},{"name":"data","type":"bytes","internalType":"bytes"}]}],"stateMutability":"view"},{"type":"function","name":"owner","inputs":[],"outputs":[{"name":"","type":"address","internalType":"address"}],"stateMutability":"view"},{"type":"function","name":"ownershipHandoverExpiresAt","inputs":[{"name":"pendingOwner","type":"address","internalType":"address"}],"outputs":[{"name":"result","type":"uint256","internalType":"uint256"}],"stateMutability":"view"},{"type":"function","name":"promoMint","inputs":[{"name":"receivers_","type":"address[]","internalType":"address[]"},{"name":"tokenId_","type":"uint256","internalType":"uint256"},{"name":"data_","type":"bytes","internalType":"bytes"}],"outputs":[],"stateMutability":"nonpayable"},{"type":"function","name":"publish","inputs":[{"name":"creator_","type":"address","internalType":"address"},{"name":"maxSupply_","type":"uint256","internalType":"uint256"},{"name":"opensAt_","type":"uint64","internalType":"uint64"},{"name":"closesAt_","type":"uint64","internalType":"uint64"},{"name":"attributions_","type":"tuple[]","internalType":"struct Node[]","components":[{"name":"nodeType","type":"uint8","internalType":"enum NodeType"},{"name":"entity","type":"tuple","internalType":"struct Target","components":[{"name":"chainId","type":"uint256","internalType":"uint256"},{"name":"target","type":"address","internalType":"address"}]},{"name":"creator","type":"tuple","internalType":"struct Target","components":[{"name":"chainId","type":"uint256","internalType":"uint256"},{"name":"target","type":"address","internalType":"address"}]},{"name":"data","type":"bytes","internalType":"bytes"}]},{"name":"strategy_","type":"tuple","internalType":"struct Strategy","components":[{"name":"asset","type":"address","internalType":"address"},{"name":"mintFee","type":"uint112","internalType":"uint112"},{"name":"revshareBps","type":"uint16","internalType":"uint16"},{"name":"royaltyBps","type":"uint16","internalType":"uint16"}]},{"name":"metadata_","type":"tuple","internalType":"struct Metadata","components":[{"name":"label","type":"string","internalType":"string"},{"name":"uri","type":"string","internalType":"string"},{"name":"data","type":"bytes","internalType":"bytes"}]}],"outputs":[{"name":"tokenId","type":"uint256","internalType":"uint256"}],"stateMutability":"nonpayable"},{"type":"function","name":"renounceOwnership","inputs":[],"outputs":[],"stateMutability":"payable"},{"type":"function","name":"renounceRoles","inputs":[{"name":"roles","type":"uint256","internalType":"uint256"}],"outputs":[],"stateMutability":"payable"},{"type":"function","name":"requestOwnershipHandover","inputs":[],"outputs":[],"stateMutability":"payable"},{"type":"function","name":"revokePublisherRole","inputs":[{"name":"publisher_","type":"address","internalType":"address"}],"outputs":[],"stateMutability":"nonpayable"},{"type":"function","name":"revokeRoles","inputs":[{"name":"user_","type":"address","internalType":"address"},{"name":"roles_","type":"uint256","internalType":"uint256"}],"outputs":[],"stateMutability":"payable"},{"type":"function","name":"rolesOf","inputs":[{"name":"user","type":"address","internalType":"address"}],"outputs":[{"name":"roles","type":"uint256","internalType":"uint256"}],"stateMutability":"view"},{"type":"function","name":"royaltyInfo","inputs":[{"name":"tokenId","type":"uint256","internalType":"uint256"},{"name":"salePrice","type":"uint256","internalType":"uint256"}],"outputs":[{"name":"receiver","type":"address","internalType":"address"},{"name":"royaltyAmount","type":"uint256","internalType":"uint256"}],"stateMutability":"view"},{"type":"function","name":"safeBatchTransferFrom","inputs":[{"name":"from","type":"address","internalType":"address"},{"name":"to","type":"address","internalType":"address"},{"name":"ids","type":"uint256[]","internalType":"uint256[]"},{"name":"amounts","type":"uint256[]","internalType":"uint256[]"},{"name":"data","type":"bytes","internalType":"bytes"}],"outputs":[],"stateMutability":"nonpayable"},{"type":"function","name":"safeTransferFrom","inputs":[{"name":"from","type":"address","internalType":"address"},{"name":"to","type":"address","internalType":"address"},{"name":"id","type":"uint256","internalType":"uint256"},{"name":"amount","type":"uint256","internalType":"uint256"},{"name":"data","type":"bytes","internalType":"bytes"}],"outputs":[],"stateMutability":"nonpayable"},{"type":"function","name":"setApprovalForAll","inputs":[{"name":"operator","type":"address","internalType":"address"},{"name":"isApproved","type":"bool","internalType":"bool"}],"outputs":[],"stateMutability":"nonpayable"},{"type":"function","name":"setFeeStrategy","inputs":[{"name":"tokenId_","type":"uint256","internalType":"uint256"},{"name":"strategy_","type":"tuple","internalType":"struct Strategy","components":[{"name":"asset","type":"address","internalType":"address"},{"name":"mintFee","type":"uint112","internalType":"uint112"},{"name":"revshareBps","type":"uint16","internalType":"uint16"},{"name":"royaltyBps","type":"uint16","internalType":"uint16"}]}],"outputs":[],"stateMutability":"nonpayable"},{"type":"function","name":"setMetadata","inputs":[{"name":"id_","type":"uint256","internalType":"uint256"},{"name":"metadata_","type":"tuple","internalType":"struct Metadata","components":[{"name":"label","type":"string","internalType":"string"},{"name":"uri","type":"string","internalType":"string"},{"name":"data","type":"bytes","internalType":"bytes"}]}],"outputs":[],"stateMutability":"nonpayable"},{"type":"function","name":"setRoyaltyTarget","inputs":[{"name":"tokenId","type":"uint256","internalType":"uint256"},{"name":"target","type":"address","internalType":"address"}],"outputs":[],"stateMutability":"nonpayable"},{"type":"function","name":"setTimeframe","inputs":[{"name":"tokenId","type":"uint256","internalType":"uint256"},{"name":"opensAt","type":"uint64","internalType":"uint64"},{"name":"closesAt","type":"uint64","internalType":"uint64"}],"outputs":[],"stateMutability":"nonpayable"},{"type":"function","name":"supportsInterface","inputs":[{"name":"interfaceId","type":"bytes4","internalType":"bytes4"}],"outputs":[{"name":"","type":"bool","internalType":"bool"}],"stateMutability":"view"},{"type":"function","name":"totalSupply","inputs":[{"name":"tokenId_","type":"uint256","internalType":"uint256"}],"outputs":[{"name":"","type":"uint256","internalType":"uint256"}],"stateMutability":"view"},{"type":"function","name":"totalWorks","inputs":[],"outputs":[{"name":"","type":"uint256","internalType":"uint256"}],"stateMutability":"view"},{"type":"function","name":"transferOwnership","inputs":[{"name":"newOwner","type":"address","internalType":"address"}],"outputs":[],"stateMutability":"payable"},{"type":"function","name":"transferWork","inputs":[{"name":"to_","type":"address","internalType":"address"},{"name":"tokenId_","type":"uint256","internalType":"uint256"}],"outputs":[],"stateMutability":"nonpayable"},{"type":"function","name":"uri","inputs":[{"name":"tokenId_","type":"uint256","internalType":"uint256"}],"outputs":[{"name":"","type":"string","internalType":"string"}],"stateMutability":"view"},{"type":"function","name":"uri","inputs":[],"outputs":[{"name":"","type":"string","internalType":"string"}],"stateMutability":"view"},{"type":"function","name":"works","inputs":[{"name":"","type":"uint256","internalType":"uint256"}],"outputs":[{"name":"creator","type":"address","internalType":"address"},{"name":"maxSupply","type":"uint256","internalType":"uint256"},{"name":"totalSupply","type":"uint256","internalType":"uint256"},{"name":"opensAt","type":"uint64","internalType":"uint64"},{"name":"closesAt","type":"uint64","internalType":"uint64"},{"name":"strategy","type":"tuple","internalType":"struct Strategy","components":[{"name":"asset","type":"address","internalType":"address"},{"name":"mintFee","type":"uint112","internalType":"uint112"},{"name":"revshareBps","type":"uint16","internalType":"uint16"},{"name":"royaltyBps","type":"uint16","internalType":"uint16"}]}],"stateMutability":"view"},{"type":"event","name":"ApprovalForAll","inputs":[{"name":"owner","type":"address","indexed":true,"internalType":"address"},{"name":"operator","type":"address","indexed":true,"internalType":"address"},{"name":"isApproved","type":"bool","indexed":false,"internalType":"bool"}],"anonymous":false},{"type":"event","name":"Comment","inputs":[{"name":"edition","type":"address","indexed":true,"internalType":"address"},{"name":"tokenId","type":"uint256","indexed":true,"internalType":"uint256"},{"name":"author","type":"address","indexed":true,"internalType":"address"},{"name":"comment","type":"string","indexed":false,"internalType":"string"}],"anonymous":false},{"type":"event","name":"Initialized","inputs":[{"name":"version","type":"uint64","indexed":false,"internalType":"uint64"}],"anonymous":false},{"type":"event","name":"Minted","inputs":[{"name":"edition","type":"address","indexed":true,"internalType":"address"},{"name":"tokenId","type":"uint256","indexed":true,"internalType":"uint256"},{"name":"to","type":"address","indexed":true,"internalType":"address"},{"name":"amount","type":"uint256","indexed":false,"internalType":"uint256"},{"name":"data","type":"bytes","indexed":false,"internalType":"bytes"}],"anonymous":false},{"type":"event","name":"OwnershipHandoverCanceled","inputs":[{"name":"pendingOwner","type":"address","indexed":true,"internalType":"address"}],"anonymous":false},{"type":"event","name":"OwnershipHandoverRequested","inputs":[{"name":"pendingOwner","type":"address","indexed":true,"internalType":"address"}],"anonymous":false},{"type":"event","name":"OwnershipTransferred","inputs":[{"name":"oldOwner","type":"address","indexed":true,"internalType":"address"},{"name":"newOwner","type":"address","indexed":true,"internalType":"address"}],"anonymous":false},{"type":"event","name":"Published","inputs":[{"name":"edition","type":"address","indexed":true,"internalType":"address"},{"name":"tokenId","type":"uint256","indexed":true,"internalType":"uint256"}],"anonymous":false},{"type":"event","name":"RolesUpdated","inputs":[{"name":"user","type":"address","indexed":true,"internalType":"address"},{"name":"roles","type":"uint256","indexed":true,"internalType":"uint256"}],"anonymous":false},{"type":"event","name":"TimeframeUpdated","inputs":[{"name":"edition","type":"address","indexed":true,"internalType":"address"},{"name":"tokenId","type":"uint256","indexed":true,"internalType":"uint256"},{"name":"opensAt","type":"uint64","indexed":false,"internalType":"uint64"},{"name":"closesAt","type":"uint64","indexed":false,"internalType":"uint64"}],"anonymous":false},{"type":"event","name":"TransferBatch","inputs":[{"name":"operator","type":"address","indexed":true,"internalType":"address"},{"name":"from","type":"address","indexed":true,"internalType":"address"},{"name":"to","type":"address","indexed":true,"internalType":"address"},{"name":"ids","type":"uint256[]","indexed":false,"internalType":"uint256[]"},{"name":"amounts","type":"uint256[]","indexed":false,"internalType":"uint256[]"}],"anonymous":false},{"type":"event","name":"TransferSingle","inputs":[{"name":"operator","type":"address","indexed":true,"internalType":"address"},{"name":"from","type":"address","indexed":true,"internalType":"address"},{"name":"to","type":"address","indexed":true,"internalType":"address"},{"name":"id","type":"uint256","indexed":false,"internalType":"uint256"},{"name":"amount","type":"uint256","indexed":false,"internalType":"uint256"}],"anonymous":false},{"type":"event","name":"URI","inputs":[{"name":"value","type":"string","indexed":false,"internalType":"string"},{"name":"id","type":"uint256","indexed":true,"internalType":"uint256"}],"anonymous":false},{"type":"event","name":"WorkTransferred","inputs":[{"name":"edition","type":"address","indexed":true,"internalType":"address"},{"name":"tokenId","type":"uint256","indexed":true,"internalType":"uint256"},{"name":"to","type":"address","indexed":true,"internalType":"address"}],"anonymous":false},{"type":"error","name":"AccountBalanceOverflow","inputs":[]},{"type":"error","name":"AlreadyInitialized","inputs":[]},{"type":"error","name":"ArrayLengthsMismatch","inputs":[]},{"type":"error","name":"InsufficientBalance","inputs":[]},{"type":"error","name":"InvalidInitialization","inputs":[]},{"type":"error","name":"MaxSupplyReached","inputs":[]},{"type":"error","name":"NewOwnerIsZeroAddress","inputs":[]},{"type":"error","name":"NoHandoverRequest","inputs":[]},{"type":"error","name":"NotInitializing","inputs":[]},{"type":"error","name":"NotOpen","inputs":[{"name":"opensAt_","type":"uint64","internalType":"uint64"},{"name":"closesAt_","type":"uint64","internalType":"uint64"}]},{"type":"error","name":"NotOwnerNorApproved","inputs":[]},{"type":"error","name":"RoyaltyOverflow","inputs":[]},{"type":"error","name":"RoyaltyReceiverIsZeroAddress","inputs":[]},{"type":"error","name":"TransferToNonERC1155ReceiverImplementer","inputs":[]},{"type":"error","name":"TransferToZeroAddress","inputs":[]},{"type":"error","name":"Unauthorized","inputs":[]}],"bytecode":{"object":"0x6080604052348015600f57600080fd5b50613fad8061001f6000396000f3fe6080604052600436106103335760003560e01c8063715018a6116101ab578063c66e1dd5116100f7578063eac989f811610095578063f2fde38b1161006f578063f2fde38b14610a77578063f6085bdb14610a8a578063f826dcec14610b33578063fee81cf414610b5357600080fd5b8063eac989f814610a2f578063f04e283e14610a44578063f242432a14610a5757600080fd5b8063d70754ec116100d1578063d70754ec14610994578063e3684e39146109a9578063e985e9c5146109d6578063ea26266c14610a0f57600080fd5b8063c66e1dd514610892578063d00b38fd14610954578063d138be191461097457600080fd5b8063904868b211610164578063a22cb4651161013e578063a22cb46514610802578063b606553814610822578063bd85b03914610842578063c046c69a1461087257600080fd5b8063904868b2146107bc578063972f9e94146107cf5780639be9cacf146107e257600080fd5b8063715018a61461070e578063830c495214610716578063869f75941461073657806389ddbb81146107675780638a35ace3146107875780638da5cb5b146107a757600080fd5b80631c10893f116102855780632eb2c2d6116102235780634e1273f4116101fd5780634e1273f41461066c578063510b515814610699578063514e62fc146106cf57806354d1f13d1461070657600080fd5b80632eb2c2d6146106235780632f457e0a146106435780634a4ee7b11461065957600080fd5b8063220e44d51161025f578063220e44d51461057c57806325692962146105a95780632a55205a146105b15780632de94807146105f057600080fd5b80631c10893f1461051f5780631cd64df4146105325780631f7fdffa1461056957600080fd5b80630e89341c116102f2578063170f221a116102cc578063170f221a146104b957806317b1566d146104d9578063183a4f6e146104f95780631a1d4ba81461050c57600080fd5b80630e89341c1461044a5780630efd898a1461046a57806313859f461461048a57600080fd5b8062ad800c14610338578062fdd58e1461036e57806301ffc9a7146103b657806302d05d3f146103e657806306fdde03146104135780630dc8165314610428575b600080fd5b34801561034457600080fd5b50610358610353366004612c01565b610b86565b6040516103659190612c6a565b60405180910390f35b34801561037a57600080fd5b506103a8610389366004612c99565b679a31110384e0b0c96020526014919091526000908152604090205490565b604051908152602001610365565b3480156103c257600080fd5b506103d66103d1366004612cc5565b610c28565b6040519015158152602001610365565b3480156103f257600080fd5b506103fb610c48565b6040516001600160a01b039091168152602001610365565b34801561041f57600080fd5b50610358610c57565b34801561043457600080fd5b50610448610443366004612d07565b610d13565b005b34801561045657600080fd5b50610358610465366004612c01565b610dbb565b34801561047657600080fd5b506103a8610485366004612d4d565b610ddb565b34801561049657600080fd5b506104aa6104a5366004612c01565b610e86565b60405161036593929190612d6f565b3480156104c557600080fd5b506104486104d4366004612db2565b611040565b3480156104e557600080fd5b506104486104f4366004612dcf565b61105c565b610448610507366004612c01565b611159565b61044861051a366004612e9e565b611166565b61044861052d366004612c99565b61129d565b34801561053e57600080fd5b506103d661054d366004612c99565b638b78c6d8600c90815260009290925260209091205481161490565b610448610577366004612f89565b6112b8565b34801561058857600080fd5b5061059c610597366004612c01565b611497565b60405161036591906130cb565b610448611519565b3480156105bd57600080fd5b506105d16105cc366004612d4d565b611568565b604080516001600160a01b039093168352602083019190915201610365565b3480156105fc57600080fd5b506103a861060b366004612db2565b638b78c6d8600c908152600091909152602090205490565b34801561062f57600080fd5b5061044861063e3660046130de565b6115bd565b34801561064f57600080fd5b506103a860005481565b610448610667366004612c99565b6117d9565b34801561067857600080fd5b5061068c61068736600461317b565b6117ef565b60405161036591906131e6565b3480156106a557600080fd5b506103fb6106b4366004612c01565b6000908152600160205260409020546001600160a01b031690565b3480156106db57600080fd5b506103d66106ea366004612c99565b638b78c6d8600c90815260009290925260209091205416151590565b61044861185f565b61044861189b565b34801561072257600080fd5b506103a8610731366004613258565b6118af565b34801561074257600080fd5b506103a8610751366004612c01565b6000908152600160208190526040909120015490565b34801561077357600080fd5b50610448610782366004613314565b611ba4565b34801561079357600080fd5b506103a86107a2366004612c01565b611cd9565b3480156107b357600080fd5b506103fb611ce6565b6104486107ca366004613341565b611cf5565b6104486107dd3660046133c3565b611dc1565b3480156107ee57600080fd5b506004546103fb906001600160a01b031681565b34801561080e57600080fd5b5061044861081d36600461343a565b611e55565b34801561082e57600080fd5b5061044861083d366004613473565b611eab565b34801561084e57600080fd5b506103a861085d366004612c01565b60009081526001602052604090206002015490565b34801561087e57600080fd5b5061044861088d366004612c99565b611ee1565b34801561089e57600080fd5b506109426108ad366004612c01565b60016020818152600092835260409283902080549281015460028201546003830154865160808101885260048501546001600160a01b0390811682526005909501546001600160701b0381169682019690965261ffff600160701b8704811698820198909852600160801b9095049096166060850152919093169390916001600160401b0380831692600160401b9004169086565b604051610365969594939291906134d7565b34801561096057600080fd5b5061044861096f366004612db2565b611f65565b34801561098057600080fd5b5061044861098f366004613525565b611f7d565b3480156109a057600080fd5b5061059c612026565b3480156109b557600080fd5b506109c96109c4366004612c01565b6120a2565b6040516103659190613561565b3480156109e257600080fd5b506103d66109f13660046135c2565b679a31110384e0b0c96020526014919091526000526034600c205490565b348015610a1b57600080fd5b506003546103fb906001600160a01b031681565b348015610a3b57600080fd5b5061035861229b565b610448610a52366004612db2565b6122d4565b348015610a6357600080fd5b50610448610a723660046135f0565b612311565b610448610a85366004612db2565b612471565b348015610a9657600080fd5b50610b26610aa5366004612c01565b6040805160808082018352600080835260208084018290528385018290526060938401829052948152600185528390208351918201845260048101546001600160a01b03168252600501546001600160701b0381169482019490945261ffff600160701b8504811693820193909352600160801b9093049091169082015290565b604051610365919061364d565b348015610b3f57600080fd5b50610448610b4e36600461365b565b612498565b348015610b5f57600080fd5b506103a8610b6e366004612db2565b63389a75e1600c908152600091909152602090205490565b6000818152600260205260409020805460609190610ba3906136d4565b80601f0160208091040260200160405190810160405280929190818152602001828054610bcf906136d4565b8015610c1c5780601f10610bf157610100808354040283529160200191610c1c565b820191906000526020600020905b815481529060010190602001808311610bff57829003601f168201915b50505050509050919050565b6000632a55205a60e083901c9081146301ffc9a791909114175b92915050565b6000610c52611ce6565b905090565b6000805260026020527fac33ff75c19e70fe83507db0d683fd3465c996598dc972688b7ace676c89077b805460609190610c90906136d4565b80601f0160208091040260200160405190810160405280929190818152602001828054610cbc906136d4565b8015610d095780601f10610cde57610100808354040283529160200191610d09565b820191906000526020600020905b815481529060010190602001808311610cec57829003601f168201915b5050505050905090565b81158015610d3a5750610d24611ce6565b6001600160a01b0316336001600160a01b031614155b15610d57576040516282b42960e81b815260040160405180910390fd5b600082118015610d7e57506000828152600160205260409020546001600160a01b03163314155b15610d9b576040516282b42960e81b815260040160405180910390fd5b60008281526002602052604090208190610db5828261386b565b50505050565b6000818152600260205260409020600101805460609190610ba3906136d4565b6000821580610deb575060005483115b15610df857506000610c42565b600354600084815260016020526040908190209051634943916b60e11b81526001600160a01b039092169163928722d691610e3b916004918201918791016139a8565b6040805180830381865afa158015610e57573d6000803e3d6000fd5b505050506040513d601f19601f82011682018060405250810190610e7b9190613a0d565b602001519392505050565b600260205260009081526040902080548190610ea1906136d4565b80601f0160208091040260200160405190810160405280929190818152602001828054610ecd906136d4565b8015610f1a5780601f10610eef57610100808354040283529160200191610f1a565b820191906000526020600020905b815481529060010190602001808311610efd57829003601f168201915b505050505090806001018054610f2f906136d4565b80601f0160208091040260200160405190810160405280929190818152602001828054610f5b906136d4565b8015610fa85780601f10610f7d57610100808354040283529160200191610fa8565b820191906000526020600020905b815481529060010190602001808311610f8b57829003601f168201915b505050505090806002018054610fbd906136d4565b80601f0160208091040260200160405190810160405280929190818152602001828054610fe9906136d4565b80156110365780601f1061100b57610100808354040283529160200191611036565b820191906000526020600020905b81548152906001019060200180831161101957829003601f168201915b5050505050905083565b61080061104c816124eb565b6110588261200061251e565b5050565b63409feecd1980546003825580156110935760018160011c14303b1061108a5763f92ee8a96000526004601cfd5b818160ff1b1b91505b5061109d8461252a565b600380546001600160a01b038089166001600160a01b03199283161790925560048054928816929091169190911790556110d983610800612566565b6110e584612000612566565b600080526002602052817fac33ff75c19e70fe83507db0d683fd3465c996598dc972688b7ace676c89077b61111a828261386b565b50508015611151576002815560016020527fc7f505b2f371ae2175ee4913f4499e1f2633a7b5936321eed1cdaeb6115181d2602080a15b505050505050565b611163338261251e565b50565b60008781526001602090815260409182902082516080810184526004808301546001600160a01b0390811683526005909301546001600160701b0381169483019490945261ffff600160701b8504811683870152600160801b9094049093166060820152600354935163398baa2160e11b815290939091169163731754429134916111fd9130918e918e9133918f918b9101613a47565b6000604051808303818588803b15801561121657600080fd5b505af115801561122a573d6000803e3d6000fd5b505050505061123c8989898888612572565b611244612646565b886001600160a01b031688306001600160a01b03167f8dbb4a330d987fc63ba8cd2cc05a0e33d88ad0dd5c599b8b40bd9962a59efd60868660405161128a929190613aac565b60405180910390a4505050505050505050565b6108006112a981612665565b6112b38383612566565b505050565b60005b858110156113e3576000600160008989858181106112db576112db613ac0565b602090810292909201358352508101919091526040016000206003549091506001600160a01b0316637317544234308b8b8781811061131c5761131c613ac0565b905060200201358a8a8881811061133557611335613ac0565b90506020020135336000886004016040518863ffffffff1660e01b815260040161136496959493929190613ad6565b6000604051808303818588803b15801561137d57600080fd5b505af1158015611391573d6000803e3d6000fd5b5050505060038201546113b891506001600160401b0380821691600160401b90041661268b565b6113da818787858181106113ce576113ce613ac0565b905060200201356126f2565b506001016112bb565b506114868787878080602002602001604051908101604052809392919081815260200183836020028082843760009201919091525050604080516020808b0282810182019093528a82529093508a92508991829185019084908082843760009201919091525050604080516020601f8a01819004810282018101909252888152925088915087908190840183828082843760009201919091525061273092505050565b61148e612646565b50505050505050565b61149f612b90565b60408051608081018252600481528151808301835246808252306020808401919091528084019290925283518085018552908152600086815260018352849020546001600160a01b031681830152828401528251908101859052909160608301910160408051601f19818403018152919052905292915050565b60006202a3006001600160401b03164201905063389a75e1600c5233600052806020600c2055337fdbf36a107da19e49527a7176a1babf963b4b0ff8cde35ee35d6cd8f1f9ac7e1d600080a250565b600082815268aa4ec00224afccfdb76020526040812054606081901c9190612710908361159c576020515490508060601c93505b606084901b1884600019829004811182023d3d3e9396930204935090915050565b8285146115d257633b800a466000526004601cfd5b8760601b679a31110384e0b0c9178760601b679a31110384e0b0c917816020528160601c99508060601c9850886116115763ea553b346000526004601cfd5b89331461163457336000526034600c205461163457634b6e7f186000526004601cfd5b8660051b5b80156116a6576020810390508087013583602052818a013560005260406000208054808311156116715763f4d678b86000526004601cfd5b82900390556020839052604060002080548083018181101561169b576301336cea6000526004601cfd5b909155506116399050565b505050604051604081528560051b602001604082018160208a03823781604001602084015281602088038383013750888a337f4a39dc06d4c0dbc64b70af90fd698a233a518aa5d07e595d983b8c0526c8f7fb60408586010186a4505061170b600090565b1561172057611720888888888888888861284a565b863b156117cf578660005260405163bc197c81815233602082015288604082015260a060608201528560051b60200160c082018160208a0382378160a001806080850152826020890384840137820160a084015260208401601f19860183800183013750808101830160c401905060208282601c8501600080515af16117af573d156117af573d6000833e3d82fd5b50805163bc197c8160e01b146117cd57639c05499b6000526004601cfd5b505b5050505050505050565b6108006117e581612665565b6112b3838361251e565b606083821461180657633b800a466000526004601cfd5b6040519050818152602081018260051b8181016040525b801561185557602081039050808701358060601b679a31110384e0b0c91760205250808501356000526040600020548183015261181d565b5050949350505050565b63389a75e1600c523360005260006020600c2055337ffa7b8eab7da67f412cc9575ed43464468f9bfbae89d1675917346ca6d8fe3c92600080a2565b6118a361284f565b6118ad600061286a565b565b60006108006118bd81612665565b60008081546118cb90613b28565b9182905550600081815260026020526040902090925083906118ed828261386b565b50506040805160c0810182526001600160a01b03808d168252602082018c90526000828401526001600160401b03808c1660608401528a166080830152600354925163a308c4a160e01b8152919260a084019291169063a308c4a190611957908990600401613b66565b608060405180830381865afa158015611974573d6000803e3d6000fd5b505050506040513d601f19601f820116820180604052508101906119989190613bd4565b90526000838152600160208181526040808420855181546001600160a01b039182166001600160a01b0319918216178355878501519583019590955586830151600283015560608088015160038401805460808b01516001600160401b03908116600160401b026001600160801b0319928316919094161792909217905560a090980151805160048501805491909416971696909617909155928401516005909101805492850151949093015161ffff908116600160801b0261ffff60801b1991909516600160701b02929096166001600160701b0390911617179390931617909155611a8483611497565b905060005b86811015611b68576004546001600160a01b031663139fca60838a8a85818110611ab557611ab5613ac0565b9050602002810190611ac79190613c3b565b8b8b86818110611ad957611ad9613ac0565b9050602002810190611aeb9190613c3b565b611af99060a0810190613708565b6040518563ffffffff1660e01b8152600401611b189493929190613c90565b6000604051808303816000875af1158015611b37573d6000803e3d6000fd5b505050506040513d6000823e601f3d908101601f19168201604052611b5f9190810190613e83565b50600101611a89565b50604051839030907f75d8bbb53dec5b6d7411ee36844cd0d3ac6df0f84bd1d4c2f4480cdc4a4744cf90600090a3505098975050505050505050565b6000828152600160205260409020546001600160a01b03163314611bda576040516282b42960e81b815260040160405180910390fd5b60035460405163a308c4a160e01b81526001600160a01b039091169063a308c4a190611c0a908490600401613b66565b608060405180830381865afa158015611c27573d6000803e3d6000fd5b505050506040513d601f19601f82011682018060405250810190611c4b9190613bd4565b60009283526001602090815260409384902082516004820180546001600160a01b0319166001600160a01b039092169190911790559082015160059091018054948301516060909301516001600160701b039092166001600160801b031990951694909417600160701b61ffff938416021761ffff60801b1916600160801b92909116919091021790915550565b6000610c42826001610ddb565b6000610c52638b78c6d8195490565b600354600085815260016020526040808220905163398baa2160e11b81526001600160a01b03909316926373175442923492611d409230928b928b9233929160049081019101613ad6565b6000604051808303818588803b158015611d5957600080fd5b505af1158015611d6d573d6000803e3d6000fd5b505050505060005b85811015611db857611db0878783818110611d9257611d92613ac0565b9050602002016020810190611da79190612db2565b86868686612572565b600101611d75565b50611151612646565b60035460008681526001602052604090819020905163398baa2160e11b81526001600160a01b03909216916373175442913491611e0e9130918b918b9133918c9160049182019101613ad6565b6000604051808303818588803b158015611e2757600080fd5b505af1158015611e3b573d6000803e3d6000fd5b5050505050611e4d8686868585612572565b611151612646565b8015159050679a31110384e0b0c96020523360145281600052806034600c2055806000528160601b60601c337f17307eab39ab6107e8899845ad3d59bd9653f200f220920489ca2b5937696c3160206000a35050565b610800611eb781612665565b6000838152600160205260409020600501546112b39084908490600160801b900461ffff166128a8565b600081815260016020526040902080546001600160a01b03163314611f18576040516282b42960e81b815260040160405180910390fd5b80546001600160a01b0319166001600160a01b0384169081178255604051839030907f546752fd78938d620aa374626a8bae3bd6b3a8adaf0e3370aa094b66f67e5ffc90600090a4505050565b610800611f71816124eb565b61105882612000612566565b600083815260016020526040902080546001600160a01b03163314611fb4576040516282b42960e81b815260040160405180910390fd5b6003810180546001600160401b038581166001600160801b03199092168217600160401b91861691820217909255604080519182526020820192909252859130917faae76c64ae42a2c6ca16657e13284e2a344614e101b4a52836f37e487ae4126b910160405180910390a350505050565b61202e612b90565b604080516080810190915280600281526020016040518060400160405280468152602001306001600160a01b03168152508152602001604051806040016040528046815260200161207d611ce6565b6001600160a01b03169052815260408051602081810190925260008152910152919050565b6120c660405180606001604052806060815260200160608152602001606081525090565b600082815260026020526040908190208151606081019092528054829082906120ee906136d4565b80601f016020809104026020016040519081016040528092919081815260200182805461211a906136d4565b80156121675780601f1061213c57610100808354040283529160200191612167565b820191906000526020600020905b81548152906001019060200180831161214a57829003601f168201915b50505050508152602001600182018054612180906136d4565b80601f01602080910402602001604051908101604052809291908181526020018280546121ac906136d4565b80156121f95780601f106121ce576101008083540402835291602001916121f9565b820191906000526020600020905b8154815290600101906020018083116121dc57829003601f168201915b50505050508152602001600282018054612212906136d4565b80601f016020809104026020016040519081016040528092919081815260200182805461223e906136d4565b801561228b5780601f106122605761010080835404028352916020019161228b565b820191906000526020600020905b81548152906001019060200180831161226e57829003601f168201915b5050505050815250509050919050565b6000805260026020527fac33ff75c19e70fe83507db0d683fd3465c996598dc972688b7ace676c89077c805460609190610c90906136d4565b6122dc61284f565b63389a75e1600c52806000526020600c20805442111561230457636f5e88186000526004601cfd5b600090556111638161286a565b8560601b679a31110384e0b0c9178560601b679a31110384e0b0c917816020528160601c97508060601c9650866123505763ea553b346000526004601cfd5b87331461237357336000526034600c205461237357634b6e7f186000526004601cfd5b85600052604060002091508154808611156123965763f4d678b86000526004601cfd5b85810383555080602052604060002091508154858101818110156123c2576301336cea6000526004601cfd5b909255505060208390528486337fc3d58168c5ae7397731d063d5bbf3d657854427343f4c083240f7aacaa2d0f6260406000a4843b156111515760405163f23a6e61815233602082015286604082015284606082015283608082015260a080820152816020016020840360c08301376020818360c401601c840160008a5af1612454573d15612454573d6000823e3d81fd5b805163f23a6e6160e01b1461148e57639c05499b6000526004601cfd5b61247961284f565b8060601b61248f57637448fbae6000526004601cfd5b6111638161286a565b6118006124a481612907565b60005b8581101561148e576124e38787838181106124c4576124c4613ac0565b90506020020160208101906124d99190612db2565b8660018787612572565b6001016124a7565b638b78c6d8600c5233600052806020600c20541661116357638b78c6d819543314611163576382b429006000526004601cfd5b6110588282600061293a565b6001600160a01b0316638b78c6d8198190558060007f8be0079c531659141344cd1fd0a4f28419497f9722a3daafe3b4186f6b6457e08180a350565b6110588282600161293a565b600084815260016020526040902060038101546125a2906001600160401b0380821691600160401b90041661268b565b6125ac81856126f2565b6125ee86868686868080601f01602080910402602001604051908101604052809392919081815260200183838082843760009201919091525061299392505050565b856001600160a01b031685306001600160a01b03167f551d74261d03633041c121c69bd68e77805b9d7e5959a8f11e18443ba3711b9f87878760405161263693929190613f4a565b60405180910390a4505050505050565b6000341180156126565750600047115b156118ad576118ad3347612a2b565b638b78c6d8600c5233600052806020600c205416611163576382b429006000526004601cfd5b816001600160401b03164210806126bd57506001600160401b038116158015906126bd5750806001600160401b031642115b1561105857604051636447645760e11b81526001600160401b0380841660048301528216602482015260440160405180910390fd5b81600101548183600201600082825461270b9190613f64565b92505081905511156110585760405163d05cb60960e01b815260040160405180910390fd5b815183511461274757633b800a466000526004601cfd5b8360601b8061275e5763ea553b346000526004601cfd5b80679a31110384e0b0c917602052835160051b5b80156127b157808401518186015160005260406000208054828101818110156127a3576301336cea6000526004601cfd5b9091555050601f1901612772565b5060405160408152845160051b602001604082018181838960045afa503d60400160208401523d81019050855160051b60200191508181838860045afa50823d8201039150508260601c6000337f4a39dc06d4c0dbc64b70af90fd698a233a518aa5d07e595d983b8c0526c8f7fb8486a450505061282d600090565b50833b15610db557610db5600085858585612a47565b5050505050565b6117cf565b638b78c6d8195433146118ad576382b429006000526004601cfd5b638b78c6d81980546001600160a01b039092169182907f8be0079c531659141344cd1fd0a4f28419497f9722a3daafe3b4186f6b6457e0600080a355565b6bffffffffffffffffffffffff16612710808211156128cf5763350a88b36000526004601cfd5b8260601b806128e65763b4457eaa6000526004601cfd5b8460005268aa4ec00224afccfdb76020528281176040600020555050505050565b638b78c6d81954331461116357638b78c6d8600c5233600052806020600c205416611163576382b429006000526004601cfd5b638b78c6d8600c52826000526020600c2080548381178361295c575080841681185b80835580600c5160601c7f715ad5ce61fc9595c7b415289d59cf203f23a94fa06f04af7e489a0a76e1fe26600080a3505050505050565b8360601b806129aa5763ea553b346000526004601cfd5b679a31110384e0b0c9602052846014528360005260406000208054848101818110156129de576301336cea6000526004601cfd5b808355505050826020528060601c6000337fc3d58168c5ae7397731d063d5bbf3d657854427343f4c083240f7aacaa2d0f6260406000a450833b15610db557610db5600085858585612b03565b60003860003884865af16110585763b12d13eb6000526004601cfd5b60405163bc197c8181523360208201528560601b60601c604082015260a06060820152835160051b60200160c082018181838860045afa503d60a0018060808501523d82019150855160051b60200192508282848860045afa503d0160a0840152835160200191503d018181818660045afa50601c83013d82010391505060208282601c850160008a5af1612ae5573d15612ae5573d6000833e3d82fd5b50805163bc197c8160e01b1461115157639c05499b6000526004601cfd5b60405163f23a6e6181523360208201528560601b60601c604082015283606082015282608082015260a08082015281518060c08301528015612b4f578060e08301826020860160045afa505b6020828260c401601c850160008a5af1612b72573d15612b72573d6000833e3d82fd5b50805163f23a6e6160e01b1461115157639c05499b6000526004601cfd5b60408051608081019091528060008152602001612bc960405180604001604052806000815260200160006001600160a01b031681525090565b8152602001612bf460405180604001604052806000815260200160006001600160a01b031681525090565b8152602001606081525090565b600060208284031215612c1357600080fd5b5035919050565b60005b83811015612c35578181015183820152602001612c1d565b50506000910152565b60008151808452612c56816020860160208601612c1a565b601f01601f19169290920160200192915050565b602081526000612c7d6020830184612c3e565b9392505050565b6001600160a01b038116811461116357600080fd5b60008060408385031215612cac57600080fd5b8235612cb781612c84565b946020939093013593505050565b600060208284031215612cd757600080fd5b81356001600160e01b031981168114612c7d57600080fd5b600060608284031215612d0157600080fd5b50919050565b60008060408385031215612d1a57600080fd5b8235915060208301356001600160401b03811115612d3757600080fd5b612d4385828601612cef565b9150509250929050565b60008060408385031215612d6057600080fd5b50508035926020909101359150565b606081526000612d826060830186612c3e565b8281036020840152612d948186612c3e565b90508281036040840152612da88185612c3e565b9695505050505050565b600060208284031215612dc457600080fd5b8135612c7d81612c84565b600080600080600060a08688031215612de757600080fd5b8535612df281612c84565b94506020860135612e0281612c84565b93506040860135612e1281612c84565b92506060860135612e2281612c84565b915060808601356001600160401b03811115612e3d57600080fd5b612e4988828901612cef565b9150509295509295909350565b60008083601f840112612e6857600080fd5b5081356001600160401b03811115612e7f57600080fd5b602083019150836020828501011115612e9757600080fd5b9250929050565b60008060008060008060008060c0898b031215612eba57600080fd5b8835612ec581612c84565b975060208901359650604089013595506060890135612ee381612c84565b945060808901356001600160401b0380821115612eff57600080fd5b612f0b8c838d01612e56565b909650945060a08b0135915080821115612f2457600080fd5b50612f318b828c01612e56565b999c989b5096995094979396929594505050565b60008083601f840112612f5757600080fd5b5081356001600160401b03811115612f6e57600080fd5b6020830191508360208260051b8501011115612e9757600080fd5b60008060008060008060006080888a031215612fa457600080fd5b8735612faf81612c84565b965060208801356001600160401b0380821115612fcb57600080fd5b612fd78b838c01612f45565b909850965060408a0135915080821115612ff057600080fd5b612ffc8b838c01612f45565b909650945060608a013591508082111561301557600080fd5b506130228a828b01612e56565b989b979a50959850939692959293505050565b6006811061305357634e487b7160e01b600052602160045260246000fd5b9052565b613062828251613035565b600060208201516130896020850182805182526020908101516001600160a01b0316910152565b5060408201518051606085015260208101516001600160a01b0316608085015250606082015160c060a08501526130c360c0850182612c3e565b949350505050565b602081526000612c7d6020830184613057565b60008060008060008060008060a0898b0312156130fa57600080fd5b883561310581612c84565b9750602089013561311581612c84565b965060408901356001600160401b038082111561313157600080fd5b61313d8c838d01612f45565b909850965060608b013591508082111561315657600080fd5b6131628c838d01612f45565b909650945060808b0135915080821115612f2457600080fd5b6000806000806040858703121561319157600080fd5b84356001600160401b03808211156131a857600080fd5b6131b488838901612f45565b909650945060208701359150808211156131cd57600080fd5b506131da87828801612f45565b95989497509550505050565b6020808252825182820181905260009190848201906040850190845b8181101561321e57835183529284019291840191600101613202565b50909695505050505050565b80356001600160401b038116811461324157600080fd5b919050565b600060808284031215612d0157600080fd5b600080600080600080600080610140898b03121561327557600080fd5b883561328081612c84565b97506020890135965061329560408a0161322a565b95506132a360608a0161322a565b945060808901356001600160401b03808211156132bf57600080fd5b6132cb8c838d01612f45565b90965094508491506132e08c60a08d01613246565b93506101208b01359150808211156132f757600080fd5b506133048b828c01612cef565b9150509295985092959890939650565b60008060a0838503121561332757600080fd5b823591506133388460208501613246565b90509250929050565b6000806000806000806080878903121561335a57600080fd5b86356001600160401b038082111561337157600080fd5b61337d8a838b01612f45565b9098509650602089013595506040890135945060608901359150808211156133a457600080fd5b506133b189828a01612e56565b979a9699509497509295939492505050565b60008060008060008060a087890312156133dc57600080fd5b86356133e781612c84565b95506020870135945060408701359350606087013561340581612c84565b925060808701356001600160401b0381111561342057600080fd5b6133b189828a01612e56565b801515811461116357600080fd5b6000806040838503121561344d57600080fd5b823561345881612c84565b915060208301356134688161342c565b809150509250929050565b6000806040838503121561348657600080fd5b82359150602083013561346881612c84565b80516001600160a01b031682526020808201516001600160701b03169083015260408082015161ffff9081169184019190915260609182015116910152565b6001600160a01b038716815260208101869052604081018590526001600160401b03848116606083015283166080820152610120810161351a60a0830184613498565b979650505050505050565b60008060006060848603121561353a57600080fd5b8335925061354a6020850161322a565b91506135586040850161322a565b90509250925092565b60208152600082516060602084015261357d6080840182612c3e565b90506020840151601f198085840301604086015261359b8383612c3e565b92506040860151915080858403016060860152506135b98282612c3e565b95945050505050565b600080604083850312156135d557600080fd5b82356135e081612c84565b9150602083013561346881612c84565b60008060008060008060a0878903121561360957600080fd5b863561361481612c84565b9550602087013561362481612c84565b9450604087013593506060870135925060808701356001600160401b0381111561342057600080fd5b60808101610c428284613498565b60008060008060006060868803121561367357600080fd5b85356001600160401b038082111561368a57600080fd5b61369689838a01612f45565b90975095506020880135945060408801359150808211156136b657600080fd5b506136c388828901612e56565b969995985093965092949392505050565b600181811c908216806136e857607f821691505b602082108103612d0157634e487b7160e01b600052602260045260246000fd5b6000808335601e1984360301811261371f57600080fd5b8301803591506001600160401b0382111561373957600080fd5b602001915036819003821315612e9757600080fd5b634e487b7160e01b600052604160045260246000fd5b601f8211156112b3576000816000526020600020601f850160051c8101602086101561378d5750805b601f850160051c820191505b8181101561115157828155600101613799565b6001600160401b038311156137c3576137c361374e565b6137d7836137d183546136d4565b83613764565b6000601f84116001811461380b57600085156137f35750838201355b600019600387901b1c1916600186901b178355612843565b600083815260209020601f19861690835b8281101561383c578685013582556020948501946001909201910161381c565b50868210156138595760001960f88860031b161c19848701351681555b505060018560011b0183555050505050565b6138758283613708565b6001600160401b0381111561388c5761388c61374e565b6138a08161389a85546136d4565b85613764565b6000601f8211600181146138d457600083156138bc5750838201355b600019600385901b1c1916600184901b17855561392e565b600085815260209020601f19841690835b8281101561390557868501358255602094850194600190920191016138e5565b50848210156139225760001960f88660031b161c19848701351681555b505060018360011b0185555b5050505061393f6020830183613708565b61394d8183600186016137ac565b505061395c6040830183613708565b610db58183600286016137ac565b80546001600160a01b03168252600101546001600160701b038116602083015261ffff607082901c8116604084015260809190911c16606090910152565b60a081016139b6828561396a565b8260808301529392505050565b604080519081016001600160401b03811182821017156139e5576139e561374e565b60405290565b604051608081016001600160401b03811182821017156139e5576139e561374e565b600060408284031215613a1f57600080fd5b613a276139c3565b8251613a3281612c84565b81526020928301519281019290925250919050565b6001600160a01b0387811682526020820187905260408201869052848116606083015283166080820152610120810161351a60a0830184613498565b81835281816020850137506000828201602090810191909152601f909101601f19169091010190565b6020815260006130c3602083018486613a83565b634e487b7160e01b600052603260045260246000fd5b6001600160a01b0387811682526020820187905260408201869052848116606083015283166080820152610120810161351a60a083018461396a565b634e487b7160e01b600052601160045260246000fd5b600060018201613b3a57613b3a613b12565b5060010190565b6001600160701b038116811461116357600080fd5b61ffff8116811461116357600080fd5b608081018235613b7581612c84565b6001600160a01b031682526020830135613b8e81613b41565b6001600160701b031660208301526040830135613baa81613b56565b61ffff9081166040840152606084013590613bc482613b56565b8082166060850152505092915050565b600060808284031215613be657600080fd5b613bee6139eb565b8251613bf981612c84565b81526020830151613c0981613b41565b60208201526040830151613c1c81613b56565b60408201526060830151613c2f81613b56565b60608201529392505050565b6000823560be19833603018112613c5157600080fd5b9190910192915050565b6006811061116357600080fd5b803582526020810135613c7a81612c84565b6001600160a01b03166020929092019190915250565b606081526000613ca36060830187613057565b82810360208401528535613cb681613c5b565b613cc08282613035565b50613cd16020820160208801613c68565b613ce16060820160608801613c68565b60a0860135601e19873603018112613cf857600080fd5b86016020810190356001600160401b03811115613d1457600080fd5b803603821315613d2357600080fd5b60c060a0840152613d3860c084018284613a83565b92505050828103604084015261351a818587613a83565b600060408284031215613d6157600080fd5b613d696139c3565b9050815181526020820151613d7d81612c84565b602082015292915050565b600082601f830112613d9957600080fd5b81516001600160401b0380821115613db357613db361374e565b604051601f8301601f19908116603f01168101908282118183101715613ddb57613ddb61374e565b81604052838152866020858801011115613df457600080fd5b612da8846020830160208901612c1a565b600060c08284031215613e1757600080fd5b613e1f6139eb565b90508151613e2c81613c5b565b8152613e3b8360208401613d4f565b6020820152613e4d8360608401613d4f565b604082015260a08201516001600160401b03811115613e6b57600080fd5b613e7784828501613d88565b60608301525092915050565b600060208284031215613e9557600080fd5b81516001600160401b0380821115613eac57600080fd5b9083019060808286031215613ec057600080fd5b613ec86139eb565b825182811115613ed757600080fd5b613ee387828601613e05565b825250602083015182811115613ef857600080fd5b613f0487828601613e05565b6020830152506040830151613f188161342c565b6040820152606083015182811115613f2f57600080fd5b613f3b87828601613d88565b60608301525095945050505050565b8381526040602082015260006135b9604083018486613a83565b80820180821115610c4257610c42613b1256fea264697066735822122094bd2fc11272930ac44bf9fc9e6123f0319cc98ee7eadd2e25cfe4f051859f3464736f6c63430008190033","linkReferences":{}},"methodIdentifiers":{"FEE_MANAGER()":"ea26266c","GRAPH()":"9be9cacf","_metadata(uint256)":"13859f46","balanceOf(address,uint256)":"00fdd58e","balanceOfBatch(address[],uint256[])":"4e1273f4","cancelOwnershipHandover()":"54d1f13d","completeOwnershipHandover(address)":"f04e283e","creator()":"02d05d3f","creator(uint256)":"510b5158","feeStrategy(uint256)":"f6085bdb","grantPublisherRole(address)":"d00b38fd","grantRoles(address,uint256)":"1c10893f","hasAllRoles(address,uint256)":"1cd64df4","hasAnyRole(address,uint256)":"514e62fc","initialize(address,address,address,address,(string,string,bytes))":"17b1566d","isApprovedForAll(address,address)":"e985e9c5","maxSupply(uint256)":"869f7594","metadata(uint256)":"e3684e39","mint(address,uint256,uint256,address,bytes)":"972f9e94","mintBatch(address,uint256[],uint256[],bytes)":"1f7fdffa","mintBatch(address[],uint256,uint256,bytes)":"904868b2","mintFee(uint256)":"8a35ace3","mintFee(uint256,uint256)":"0efd898a","mintWithComment(address,uint256,uint256,address,bytes,string)":"1a1d4ba8","name()":"06fdde03","name(uint256)":"00ad800c","node()":"d70754ec","node(uint256)":"220e44d5","owner()":"8da5cb5b","ownershipHandoverExpiresAt(address)":"fee81cf4","promoMint(address[],uint256,bytes)":"f826dcec","publish(address,uint256,uint64,uint64,(uint8,(uint256,address),(uint256,address),bytes)[],(address,uint112,uint16,uint16),(string,string,bytes))":"830c4952","renounceOwnership()":"715018a6","renounceRoles(uint256)":"183a4f6e","requestOwnershipHandover()":"25692962","revokePublisherRole(address)":"170f221a","revokeRoles(address,uint256)":"4a4ee7b1","rolesOf(address)":"2de94807","royaltyInfo(uint256,uint256)":"2a55205a","safeBatchTransferFrom(address,address,uint256[],uint256[],bytes)":"2eb2c2d6","safeTransferFrom(address,address,uint256,uint256,bytes)":"f242432a","setApprovalForAll(address,bool)":"a22cb465","setFeeStrategy(uint256,(address,uint112,uint16,uint16))":"89ddbb81","setMetadata(uint256,(string,string,bytes))":"0dc81653","setRoyaltyTarget(uint256,address)":"b6065538","setTimeframe(uint256,uint64,uint64)":"d138be19","supportsInterface(bytes4)":"01ffc9a7","totalSupply(uint256)":"bd85b039","totalWorks()":"2f457e0a","transferOwnership(address)":"f2fde38b","transferWork(address,uint256)":"c046c69a","uri()":"eac989f8","uri(uint256)":"0e89341c","works(uint256)":"c66e1dd5"},"id":50}