{"abi":[{"type":"fallback","stateMutability":"payable"},{"type":"receive","stateMutability":"payable"},{"type":"function","name":"cancelOwnershipHandover","inputs":[],"outputs":[],"stateMutability":"payable"},{"type":"function","name":"completeOwnershipHandover","inputs":[{"name":"pendingOwner","type":"address","internalType":"address"}],"outputs":[],"stateMutability":"payable"},{"type":"function","name":"createEdition","inputs":[{"name":"payload_","type":"bytes","internalType":"bytes"},{"name":"referrer_","type":"address","internalType":"address"}],"outputs":[{"name":"edition","type":"address","internalType":"contract Edition"}],"stateMutability":"payable"},{"type":"function","name":"editionImplementation","inputs":[],"outputs":[{"name":"","type":"address","internalType":"address"}],"stateMutability":"view"},{"type":"function","name":"feeManager","inputs":[],"outputs":[{"name":"","type":"address","internalType":"contract FeeManager"}],"stateMutability":"view"},{"type":"function","name":"grantRoles","inputs":[{"name":"user","type":"address","internalType":"address"},{"name":"roles","type":"uint256","internalType":"uint256"}],"outputs":[],"stateMutability":"payable"},{"type":"function","name":"graph","inputs":[],"outputs":[{"name":"","type":"address","internalType":"contract TitlesGraph"}],"stateMutability":"view"},{"type":"function","name":"hasAllRoles","inputs":[{"name":"user","type":"address","internalType":"address"},{"name":"roles","type":"uint256","internalType":"uint256"}],"outputs":[{"name":"","type":"bool","internalType":"bool"}],"stateMutability":"view"},{"type":"function","name":"hasAnyRole","inputs":[{"name":"user","type":"address","internalType":"address"},{"name":"roles","type":"uint256","internalType":"uint256"}],"outputs":[{"name":"","type":"bool","internalType":"bool"}],"stateMutability":"view"},{"type":"function","name":"initialize","inputs":[{"name":"feeReceiver_","type":"address","internalType":"address"},{"name":"splitFactory_","type":"address","internalType":"address"}],"outputs":[],"stateMutability":"nonpayable"},{"type":"function","name":"owner","inputs":[],"outputs":[{"name":"result","type":"address","internalType":"address"}],"stateMutability":"view"},{"type":"function","name":"ownershipHandoverExpiresAt","inputs":[{"name":"pendingOwner","type":"address","internalType":"address"}],"outputs":[{"name":"result","type":"uint256","internalType":"uint256"}],"stateMutability":"view"},{"type":"function","name":"proxiableUUID","inputs":[],"outputs":[{"name":"","type":"bytes32","internalType":"bytes32"}],"stateMutability":"view"},{"type":"function","name":"publish","inputs":[{"name":"edition_","type":"address","internalType":"contract Edition"},{"name":"payload_","type":"bytes","internalType":"bytes"},{"name":"referrer_","type":"address","internalType":"address"}],"outputs":[{"name":"tokenId","type":"uint256","internalType":"uint256"}],"stateMutability":"payable"},{"type":"function","name":"renounceOwnership","inputs":[],"outputs":[],"stateMutability":"payable"},{"type":"function","name":"renounceRoles","inputs":[{"name":"roles","type":"uint256","internalType":"uint256"}],"outputs":[],"stateMutability":"payable"},{"type":"function","name":"requestOwnershipHandover","inputs":[],"outputs":[],"stateMutability":"payable"},{"type":"function","name":"revokeRoles","inputs":[{"name":"user","type":"address","internalType":"address"},{"name":"roles","type":"uint256","internalType":"uint256"}],"outputs":[],"stateMutability":"payable"},{"type":"function","name":"rolesOf","inputs":[{"name":"user","type":"address","internalType":"address"}],"outputs":[{"name":"roles","type":"uint256","internalType":"uint256"}],"stateMutability":"view"},{"type":"function","name":"setEditionImplementation","inputs":[{"name":"implementation_","type":"address","internalType":"address"}],"outputs":[],"stateMutability":"nonpayable"},{"type":"function","name":"transferOwnership","inputs":[{"name":"newOwner","type":"address","internalType":"address"}],"outputs":[],"stateMutability":"payable"},{"type":"function","name":"upgradeToAndCall","inputs":[{"name":"newImplementation","type":"address","internalType":"address"},{"name":"data","type":"bytes","internalType":"bytes"}],"outputs":[],"stateMutability":"payable"},{"type":"event","name":"EditionCreated","inputs":[{"name":"edition","type":"address","indexed":true,"internalType":"address"},{"name":"creator","type":"address","indexed":true,"internalType":"address"},{"name":"maxSupply","type":"uint256","indexed":false,"internalType":"uint256"},{"name":"strategy","type":"tuple","indexed":false,"internalType":"struct Strategy","components":[{"name":"asset","type":"address","internalType":"address"},{"name":"mintFee","type":"uint112","internalType":"uint112"},{"name":"revshareBps","type":"uint16","internalType":"uint16"},{"name":"royaltyBps","type":"uint16","internalType":"uint16"}]},{"name":"data","type":"bytes","indexed":false,"internalType":"bytes"}],"anonymous":false},{"type":"event","name":"Initialized","inputs":[{"name":"version","type":"uint64","indexed":false,"internalType":"uint64"}],"anonymous":false},{"type":"event","name":"OwnershipHandoverCanceled","inputs":[{"name":"pendingOwner","type":"address","indexed":true,"internalType":"address"}],"anonymous":false},{"type":"event","name":"OwnershipHandoverRequested","inputs":[{"name":"pendingOwner","type":"address","indexed":true,"internalType":"address"}],"anonymous":false},{"type":"event","name":"OwnershipTransferred","inputs":[{"name":"oldOwner","type":"address","indexed":true,"internalType":"address"},{"name":"newOwner","type":"address","indexed":true,"internalType":"address"}],"anonymous":false},{"type":"event","name":"RolesUpdated","inputs":[{"name":"user","type":"address","indexed":true,"internalType":"address"},{"name":"roles","type":"uint256","indexed":true,"internalType":"uint256"}],"anonymous":false},{"type":"event","name":"Upgraded","inputs":[{"name":"implementation","type":"address","indexed":true,"internalType":"address"}],"anonymous":false},{"type":"error","name":"AlreadyInitialized","inputs":[]},{"type":"error","name":"InvalidInitialization","inputs":[]},{"type":"error","name":"NewOwnerIsZeroAddress","inputs":[]},{"type":"error","name":"NoHandoverRequest","inputs":[]},{"type":"error","name":"NotInitializing","inputs":[]},{"type":"error","name":"Unauthorized","inputs":[]},{"type":"error","name":"UnauthorizedCallContext","inputs":[]},{"type":"error","name":"UpgradeFailed","inputs":[]}],"bytecode":{"object":"0x60a0604081905230608052601190605d565b604051809103906000f080158015602c573d6000803e3d6000fd5b50600080546001600160a01b0319166001600160a01b0392909216919091179055348015605857600080fd5b50606a565b613fcc8061684383390190565b6080516167b761008c600039600081816106ca01526107b001526167b76000f3fe6080604052600436106101395760003560e01c806354d1f13d116100ab5780639e19e7331161006f5780639e19e73314610342578063bf20f50214610362578063d0fb020314610382578063f04e283e146103a2578063f2fde38b146103b5578063fee81cf4146103c857610140565b806354d1f13d146102ce57806363444c1b146102d6578063715018a61461030157806371537cdd146103095780638da5cb5b1461032957610140565b8063439db131116100fd578063439db13114610229578063485cc9551461023c5780634a4ee7b11461025c5780634f1ef2861461026f578063514e62fc1461028257806352d1902d146102b957610140565b8063183a4f6e1461016e5780631c10893f146101815780631cd64df41461019457806325692962146101e05780632de94807146101e857610140565b3661014057005b60003560e01c63bc197c81811463f23a6e6182141763150b7a028214171561016c57806020526020603cf35b005b61016c61017c366004610f98565b6103fb565b61016c61018f366004610fc6565b610408565b3480156101a057600080fd5b506101cb6101af366004610fc6565b638b78c6d8600c90815260009290925260209091205481161490565b60405190151581526020015b60405180910390f35b61016c61041e565b3480156101f457600080fd5b5061021b610203366004610ff2565b638b78c6d8600c908152600091909152602090205490565b6040519081526020016101d7565b61021b61023736600461105e565b61046d565b34801561024857600080fd5b5061016c6102573660046110c5565b610567565b61016c61026a366004610fc6565b6106b6565b61016c61027d3660046110fe565b6106c8565b34801561028e57600080fd5b506101cb61029d366004610fc6565b638b78c6d8600c90815260009290925260209091205416151590565b3480156102c557600080fd5b5061021b6107ac565b61016c61080b565b6102e96102e4366004611152565b610847565b6040516001600160a01b0390911681526020016101d7565b61016c6109d4565b34801561031557600080fd5b5061016c610324366004610ff2565b6109e8565b34801561033557600080fd5b50638b78c6d819546102e9565b34801561034e57600080fd5b506000546102e9906001600160a01b031681565b34801561036e57600080fd5b506002546102e9906001600160a01b031681565b34801561038e57600080fd5b506001546102e9906001600160a01b031681565b61016c6103b0366004610ff2565b610a16565b61016c6103c3366004610ff2565b610a53565b3480156103d457600080fd5b5061021b6103e3366004610ff2565b63389a75e1600c908152600091909152602090205490565b6104053382610a7a565b50565b610410610a86565b61041a8282610aa1565b5050565b60006202a3006001600160401b03164201905063389a75e1600c5233600052806020600c2055337fdbf36a107da19e49527a7176a1babf963b4b0ff8cde35ee35d6cd8f1f9ac7e1d600080a250565b60405163145398bf60e21b815233600482015261200060248201526000906001600160a01b0386169063514e62fc90604401602060405180830381865afa1580156104bc573d6000803e3d6000fd5b505050506040513d601f19601f820116820180604052508101906104e091906111a8565b6104fc576040516282b42960e81b815260040160405180910390fd5b600061053d85858080601f016020809104026020016040519081016040528093929190818152602001838380828437600092019190915250610aad92505050565b8060200190518101906105509190611659565b905061055d868285610b42565b9695505050505050565b63409feecd19805460038255801561059e5760018160011c14303b106105955763f92ee8a96000526004601cfd5b818160ff1b1b91505b506105a833610d4d565b3383836040516105b790610f7e565b6001600160a01b03938416815291831660208301529091166040820152606001604051809103906000f0801580156105f3573d6000803e3d6000fd5b50600160006101000a8154816001600160a01b0302191690836001600160a01b03160217905550303360405161062890610f8b565b6001600160a01b03928316815291166020820152604001604051809103906000f08015801561065b573d6000803e3d6000fd5b50600280546001600160a01b0319166001600160a01b039290921691909117905580156106b1576002815560016020527fc7f505b2f371ae2175ee4913f4499e1f2633a7b5936321eed1cdaeb6115181d2602080a15b505050565b6106be610a86565b61041a8282610a7a565b7f00000000000000000000000000000000000000000000000000000000000000003081036106fe57639f03a0266000526004601cfd5b61070784610d89565b8360601b60601c93506352d1902d6001527f360894a13ba1a3210667c828492db98dca3e2076cc3735a920a3ca505d382bbc80602060016004601d895afa5114610759576355299b496001526004601dfd5b847fbc7cd75a20ee27fd9adebab32041f755214dbc6bffa90cc0225b39da2e5c2d3b600038a284905581156107a657604051828482376000388483885af46107a4573d6000823e3d81fd5b505b50505050565b60007f00000000000000000000000000000000000000000000000000000000000000003081146107e457639f03a0266000526004601cfd5b7f360894a13ba1a3210667c828492db98dca3e2076cc3735a920a3ca505d382bbc91505090565b63389a75e1600c523360005260006020600c2055337ffa7b8eab7da67f412cc9575ed43464468f9bfbae89d1675917346ca6d8fe3c92600080a2565b60008061088985858080601f016020809104026020016040519081016040528093929190818152602001838380828437600092019190915250610aad92505050565b80602001905181019061089c919061168d565b6000549091506108b4906001600160a01b0316610d94565b600154600254835151602090810151908501516040516317b1566d60e01b81529496506001600160a01b03808816956317b1566d956108fe9590831694921692309160040161179a565b600060405180830381600087803b15801561091857600080fd5b505af115801561092c573d6000803e3d6000fd5b5050505061093f82826000015185610b42565b50806000015160000151602001516001600160a01b0316826001600160a01b03167fb484615c7f789cf856cefac09fcdb13492e1b194fae49e9b2bcad049c9036e8f836000015160400151846000015160a0015185602001516040516020016109a891906117e1565b60408051601f19818403018152908290526109c4939291611833565b60405180910390a3509392505050565b6109dc610a86565b6109e66000610da7565b565b60016109f381610de5565b50600080546001600160a01b0319166001600160a01b0392909216919091179055565b610a1e610a86565b63389a75e1600c52806000526020600c208054421115610a4657636f5e88186000526004601cfd5b6000905561040581610da7565b610a5b610a86565b8060601b610a7157637448fbae6000526004601cfd5b61040581610da7565b61041a82826000610e18565b638b78c6d8195433146109e6576382b429006000526004601cfd5b61041a82826001610e18565b6060815115610b3d5760405190506020810160048301805184518501811983525b80861015610b26576001860195508551601f1a80610b17576001870196508651601f1a6000198652607f8111610b0657600181013887395b607f16949094016001019350610ace565b80855350600184019350610ace565b509052601f19828203018252600081526020016040525b919050565b6000836001600160a01b031663830c495284600001516020015185604001518660600151876080015188602001518960a001518a60c001516040518863ffffffff1660e01b8152600401610b9c9796959493929190611859565b6020604051808303816000875af1158015610bbb573d6000803e3d6000fd5b505050506040513d601f19601f82011682018060405250810190610bdf919061199a565b600154604051636306cc1360e01b81526001600160a01b03878116600483015260248201849052336044830152929350911690636306cc139034906064016000604051808303818588803b158015610c3657600080fd5b505af1158015610c4a573d6000803e3d6000fd5b50506001546020870151600094506001600160a01b039091169250631a2148c6915087908590610c7990610e71565b876040518563ffffffff1660e01b8152600401610c9994939291906119b3565b60408051808303816000875af1158015610cb7573d6000803e3d6000fd5b505050506040513d601f19601f82011682018060405250810190610cdb9190611a3c565b60208101516040516316c0caa760e31b8152600481018590526001600160a01b03918216602482015291925086169063b606553890604401600060405180830381600087803b158015610d2d57600080fd5b505af1158015610d41573d6000803e3d6000fd5b50505050509392505050565b6001600160a01b0316638b78c6d8198190558060007f8be0079c531659141344cd1fd0a4f28419497f9722a3daafe3b4186f6b6457e08180a350565b600161041a81610de5565b6000610da1600083610f29565b92915050565b638b78c6d81980546001600160a01b039092169182907f8be0079c531659141344cd1fd0a4f28419497f9722a3daafe3b4186f6b6457e0600080a355565b638b78c6d81954331461040557638b78c6d8600c5233600052806020600c205416610405576382b429006000526004601cfd5b638b78c6d8600c52826000526020600c20805483811783610e3a575080841681185b80835580600c5160601c7f715ad5ce61fc9595c7b415289d59cf203f23a94fa06f04af7e489a0a76e1fe26600080a3505050505050565b606081516001600160401b03811115610e8c57610e8c6111ca565b604051908082528060200260200182016040528015610ed157816020015b6040805180820190915260008082526020820152815260200190600190039081610eaa5790505b50905060005b8251811015610f2357828181518110610ef257610ef2611a58565b602002602001015160400151828281518110610f1057610f10611a58565b6020908102919091010152600101610ed7565b50919050565b60006c5af43d3d93803e602a57fd5bf36021528160145273602c3d8160093d39f33d3d3d3d363d3d37363d736000526035600c84f0905080610f735763301164256000526004601cfd5b600060215292915050565b6123e880611a6f83390190565b61292b80613e5783390190565b600060208284031215610faa57600080fd5b5035919050565b6001600160a01b038116811461040557600080fd5b60008060408385031215610fd957600080fd5b8235610fe481610fb1565b946020939093013593505050565b60006020828403121561100457600080fd5b813561100f81610fb1565b9392505050565b60008083601f84011261102857600080fd5b5081356001600160401b0381111561103f57600080fd5b60208301915083602082850101111561105757600080fd5b9250929050565b6000806000806060858703121561107457600080fd5b843561107f81610fb1565b935060208501356001600160401b0381111561109a57600080fd5b6110a687828801611016565b90945092505060408501356110ba81610fb1565b939692955090935050565b600080604083850312156110d857600080fd5b82356110e381610fb1565b915060208301356110f381610fb1565b809150509250929050565b60008060006040848603121561111357600080fd5b833561111e81610fb1565b925060208401356001600160401b0381111561113957600080fd5b61114586828701611016565b9497909650939450505050565b60008060006040848603121561116757600080fd5b83356001600160401b0381111561117d57600080fd5b61118986828701611016565b909450925050602084013561119d81610fb1565b809150509250925092565b6000602082840312156111ba57600080fd5b8151801515811461100f57600080fd5b634e487b7160e01b600052604160045260246000fd5b604080519081016001600160401b0381118282101715611202576112026111ca565b60405290565b604051608081016001600160401b0381118282101715611202576112026111ca565b60405160e081016001600160401b0381118282101715611202576112026111ca565b604051601f8201601f191681016001600160401b0381118282101715611274576112746111ca565b604052919050565b60006040828403121561128e57600080fd5b6112966111e0565b90508151815260208201516112aa81610fb1565b602082015292915050565b60005b838110156112d05781810151838201526020016112b8565b50506000910152565b600082601f8301126112ea57600080fd5b81516001600160401b03811115611303576113036111ca565b611316601f8201601f191660200161124c565b81815284602083860101111561132b57600080fd5b61133c8260208301602087016112b5565b949350505050565b600082601f83011261135557600080fd5b815160206001600160401b0380831115611371576113716111ca565b8260051b61138083820161124c565b938452858101830193838101908886111561139a57600080fd5b84880192505b85831015611446578251848111156113b85760008081fd5b880160c0818b03601f19018113156113d05760008081fd5b6113d8611208565b87830151600681106113ea5760008081fd5b815260406113fa8d85830161127c565b8983015261140b8d6080860161127c565b908201529082015190868211156114225760008081fd5b6114308c89848601016112d9565b60608201528452505091840191908401906113a0565b98975050505050505050565b80516001600160401b0381168114610b3d57600080fd5b805161ffff81168114610b3d57600080fd5b60006080828403121561148d57600080fd5b611495611208565b905081516114a281610fb1565b815260208201516001600160701b03811681146114be57600080fd5b60208201526114cf60408301611469565b60408201526114e060608301611469565b606082015292915050565b6000606082840312156114fd57600080fd5b604051606081016001600160401b038282108183111715611520576115206111ca565b81604052829350845191508082111561153857600080fd5b611544868387016112d9565b8352602085015191508082111561155a57600080fd5b611566868387016112d9565b6020840152604085015191508082111561157f57600080fd5b5061158c858286016112d9565b6040830152505092915050565b600061016082840312156115ac57600080fd5b6115b461122a565b90506115c0838361127c565b815260408201516001600160401b03808211156115dc57600080fd5b6115e885838601611344565b60208401526060840151604084015261160360808501611452565b606084015261161460a08501611452565b60808401526116268560c0860161147b565b60a084015261014084015191508082111561164057600080fd5b5061164d848285016114eb565b60c08301525092915050565b60006020828403121561166b57600080fd5b81516001600160401b0381111561168157600080fd5b61133c84828501611599565b60006020828403121561169f57600080fd5b81516001600160401b03808211156116b657600080fd5b90830190604082860312156116ca57600080fd5b6116d26111e0565b8251828111156116e157600080fd5b6116ed87828601611599565b82525060208301518281111561170257600080fd5b61170e878286016114eb565b60208301525095945050505050565b600081518084526117358160208601602086016112b5565b601f01601f19169290920160200192915050565b600081516060845261175e606085018261171d565b905060208301518482036020860152611777828261171d565b91505060408301518482036040860152611791828261171d565b95945050505050565b6001600160a01b038681168252858116602083015284811660408301528316606082015260a0608082018190526000906117d690830184611749565b979650505050505050565b60208152600061100f6020830184611749565b80516001600160a01b031682526020808201516001600160701b03169083015260408082015161ffff9081169184019190915260609182015116910152565b83815261184360208201846117f4565b60c060a0820152600061179160c083018461171d565b600061014080830160018060a01b038b16845260208a8186015260406001600160401b03808c1660408801526060818c1660608901528560808901528495508a51915081855261016094508488019550848260051b8901019450838b016000805b848110156119645761015f198b8903018952825160c08151600681106118ee57634e487b7160e01b85526021600452602485fd5b8a52818901516119138a8c0182805182526020908101516001600160a01b0316910152565b5087820151611937878c0182805182526020908101516001600160a01b0316910152565b508582015191508060a08b0152611950818b018361171d565b9a89019a99505050918601916001016118ba565b5050505050505061197860a08501876117f4565b83810361012085015261198b8186611749565b9b9a5050505050505050505050565b6000602082840312156119ac57600080fd5b5051919050565b60006080820160018060a01b038088168452602087602086015260406080604087015283885180865260a08801915060208a01955060005b81811015611a2157611a11838851805182526020908101516001600160a01b0316910152565b95840195918301916001016119eb565b50508095505050508085166060850152505095945050505050565b600060408284031215611a4e57600080fd5b61100f838361127c565b634e487b7160e01b600052603260045260246000fdfe6080604052760221b262dd8000000000000000000000005af3107a4000600055600180546001600160401b0319166709c4138800000d0517905534801561004557600080fd5b506040516123e83803806123e88339810160408190526100649161017e565b61006d336100bd565b6100788360016100f9565b60018054600160401b600160e01b031916680100000000000000006001600160a01b0394851602179055600280546001600160a01b03191691909216179055506101c1565b6001600160a01b0316638b78c6d8198190558060007f8be0079c531659141344cd1fd0a4f28419497f9722a3daafe3b4186f6b6457e08180a350565b61010582826001610109565b5050565b638b78c6d8600c52826000526020600c2080548381178361012b575080841681185b80835580600c5160601c7f715ad5ce61fc9595c7b415289d59cf203f23a94fa06f04af7e489a0a76e1fe26600080a3505050505050565b80516001600160a01b038116811461017957600080fd5b919050565b60008060006060848603121561019357600080fd5b61019c84610162565b92506101aa60208501610162565b91506101b860408501610162565b90509250925092565b612218806101d06000396000f3fe60806040526004361061023f5760003560e01c80636d947e4b1161012e578063b8ca3b83116100ab578063f83496171161006f578063f83496171461075b578063f88ad3b614610770578063fa62d57f14610790578063fd967f47146107b7578063fee81cf4146107cd57600080fd5b8063b8ca3b83146106cc578063d447f64d14610700578063db07b68e14610720578063f04e283e14610735578063f2fde38b1461074857600080fd5b80638f820e67116100f25780638f820e67146105b6578063928722d6146105c9578063a308c4a11461060d578063b005b8b61461067a578063b7892244146106ac57600080fd5b80636d947e4b14610549578063715018a61461055f57806373175442146105675780638439ac661461057a5780638da5cb5b1461059d57600080fd5b80633dca40e6116101bc5780635720babb116101805780635720babb1461049e5780635ca50936146104be57806361c97801146104f65780636306cc131461051657806369328dec1461052957600080fd5b80633dca40e6146104005780634a3b68cc146104165780634a4ee7b11461044c578063514e62fc1461045f57806354d1f13d1461049657600080fd5b80631cd64df4116102035780631cd64df4146102fc57806325692962146103435780632de948071461034b57806339a51be51461038c5780633a243d24146103cb57600080fd5b80630602a0591461024b5780631705ddd01461026d578063183a4f6e146102b65780631a2148c6146102c95780631c10893f146102e957600080fd5b3661024657005b600080fd5b34801561025757600080fd5b5061026b6102663660046118b4565b610800565b005b34801561027957600080fd5b5061028d610288366004611936565b6108e2565b60408051825181526020928301516001600160a01b031692810192909252015b60405180910390f35b61026b6102c4366004611962565b610940565b3480156102d557600080fd5b5061028d6102e436600461197b565b61094d565b61026b6102f7366004611936565b610bfd565b34801561030857600080fd5b50610333610317366004611936565b638b78c6d8600c90815260009290925260209091205481161490565b60405190151581526020016102ad565b61026b610c13565b34801561035757600080fd5b5061037e610366366004611a13565b638b78c6d8600c908152600091909152602090205490565b6040519081526020016102ad565b34801561039857600080fd5b506001546103b390600160401b90046001600160a01b031681565b6040516001600160a01b0390911681526020016102ad565b3480156103d757600080fd5b506001546103ed90600160301b900461ffff1681565b60405161ffff90911681526020016102ad565b34801561040c57600080fd5b506103ed61251c81565b34801561042257600080fd5b506103b3610431366004611a13565b6003602052600090815260409020546001600160a01b031681565b61026b61045a366004611936565b610c62565b34801561046b57600080fd5b5061033361047a366004611936565b638b78c6d8600c90815260009290925260209091205416151590565b61026b610c74565b3480156104aa57600080fd5b506002546103b3906001600160a01b031681565b3480156104ca57600080fd5b506000546104de906001600160801b031681565b6040516001600160801b0390911681526020016102ad565b34801561050257600080fd5b5061037e610511366004611a30565b610cb0565b61026b610524366004611a60565b610cf6565b34801561053557600080fd5b5061026b610544366004611a60565b610db6565b34801561055557600080fd5b506103ed610d0581565b61026b610dd3565b61026b610575366004611aba565b610de7565b34801561058657600080fd5b506001546103ed90640100000000900461ffff1681565b3480156105a957600080fd5b50638b78c6d819546103b3565b61026b6105c4366004611b28565b610e14565b3480156105d557600080fd5b506105e96105e4366004611c86565b610e2e565b6040805182516001600160a01b0316815260209283015192810192909252016102ad565b34801561061957600080fd5b5061062d610628366004611cb1565b610eba565b6040805182516001600160a01b031681526020808401516001600160701b0316908201528282015161ffff90811692820192909252606092830151909116918101919091526080016102ad565b34801561068657600080fd5b506001546106979063ffffffff1681565b60405163ffffffff90911681526020016102ad565b3480156106b857600080fd5b5061037e6106c7366004611a30565b61100b565b3480156106d857600080fd5b506106e867016345785d8a000081565b6040516001600160401b0390911681526020016102ad565b34801561070c57600080fd5b5061037e61071b366004611936565b61103f565b34801561072c57600080fd5b506105e9611086565b61026b610743366004611a13565b6110cc565b61026b610756366004611a13565b611109565b34801561076757600080fd5b506103ed60fa81565b34801561077c57600080fd5b506105e961078b366004611ccd565b611130565b34801561079c57600080fd5b506000546104de90600160801b90046001600160801b031681565b3480156107c357600080fd5b506103ed61271081565b3480156107d957600080fd5b5061037e6107e8366004611a13565b63389a75e1600c908152600091909152602090205490565b600161080b816111bf565b67016345785d8a00006001600160401b038716118061083a575067016345785d8a00006001600160401b038616115b8061084a5750610d0561ffff8516115b80610863575061271061085d8385611d18565b61ffff16115b15610881576040516358d620b360e01b815260040160405180910390fd5b50600160801b6001600160401b039485160293909416929092176000556001805461ffff948516600160301b0267ffff000000000000199486166401000000000265ffffffffffff1990921695909316949094179390931791909116179055565b604080518082019091526000808252602082015260046000610904858561103f565b81526020808201929092526040908101600020815180830190925280548252600101546001600160a01b03169181019190915290505b92915050565b61094a33826111f2565b50565b6040805180820190915260008082526020820152600161096c816111bf565b60405163220e44d560e01b8152600481018790526000906001600160a01b0389169063220e44d590602401600060405180830381865afa1580156109b4573d6000803e3d6000fd5b505050506040513d6000823e601f3d908101601f191682016040526109dc9190810190611d73565b60400151905060008590036109f357809250610b8c565b600080610ac9838989808060200260200160405190810160405280939291908181526020016000905b82821015610a4857610a3960408302860136819003810190611e85565b81526020019060010190610a1c565b50505050508c6001600160a01b031663f6085bdb8d6040518263ffffffff1660e01b8152600401610a7b91815260200190565b608060405180830381865afa158015610a98573d6000803e3d6000fd5b505050506040513d601f19601f82011682018060405250810190610abc9190611ebd565b6040015161ffff166111fe565b6040805180820182528651815260025482516080810184528581526020818101869052620f42408286015260006060830152808a01519451632556fa3960e01b81529698509496509194938501936001600160a01b0390911692632556fa3992610b399290913091600401611f60565b6020604051808303816000875af1158015610b58573d6000803e3d6000fd5b505050506040513d601f19601f82011682018060405250810190610b7c9190612015565b6001600160a01b03169052945050505b8260046000610b9b8b8b61103f565b8152602080820192909252604090810160009081208451815593830151600190940180546001600160a01b03199081166001600160a01b03968716179091559b8416815260039092529020805490991694169390931790965595945050505050565b610c056113fd565b610c0f8282611418565b5050565b60006202a3006001600160401b03164201905063389a75e1600c5233600052806020600c2055337fdbf36a107da19e49527a7176a1babf963b4b0ff8cde35ee35d6cd8f1f9ac7e1d600080a250565b610c6a6113fd565b610c0f82826111f2565b63389a75e1600c523360005260006020600c2055337ffa7b8eab7da67f412cc9575ed43464468f9bfbae89d1675917346ca6d8fe3c92600080a2565b60006001600160a01b038216610cc85750600061093a565b60015461271090610ce590640100000000900461ffff1685612032565b610cef919061205f565b9392505050565b6000610d00611086565b90508060200151600003610d145750505050565b60408051808201909152468152600154600160401b90046001600160a01b03166020820152610d4590829084611424565b6020808201516040805186815273eeeeeeeeeeeeeeeeeeeeeeeeeeeeeeeeeeeeeeee93810193909352820152600060608201526001600160a01b038516907fa51462da4062b22c6b29f339e68988d477c5d44a303c61f50d8081c2ef344bac9060800160405180910390a250505050565b6001610dc181611473565b610dcd848430856114a6565b50505050565b610ddb6113fd565b610de560006114f8565b565b610e0c8686868686610e07610e0136899003890189612073565b8b610e2e565b611536565b505050505050565b610e278585858585610e078b8b8b611130565b5050505050565b6040805180820190915260008082526020820152604051806040016040528073eeeeeeeeeeeeeeeeeeeeeeeeeeeeeeeeeeeeeeee6001600160a01b03168152602001600060109054906101000a90046001600160801b031685602001516001600160701b0316610e9e919061208f565b610eb1906001600160801b031685612032565b90529392505050565b604080516080810182526000808252602082018190529181018290526060810191909152600061251c610ef360608501604086016120af565b61ffff1611610f335760fa610f0e60608501604086016120af565b61ffff1610610f2c57610f2760608401604085016120af565b610f37565b60fa610f37565b61251c5b9050600061251c610f4e60808601606087016120af565b61ffff1611610f6c57610f6760808501606086016120af565b610f70565b61251c5b6040805160808101909152909150806000610f8e6020880188611a13565b6001600160a01b031614610fae57610fa96020870187611a13565b610fc4565b73eeeeeeeeeeeeeeeeeeeeeeeeeeeeeeeeeeeeeeee5b6001600160a01b03168152602001856020016020810190610fe591906120cc565b6001600160701b0316815261ffff93841660208201529190921660409091015292915050565b60006001600160a01b0382166110235750600061093a565b60015461271090610ce590600160301b900461ffff1685612032565b6040516bffffffffffffffffffffffff19606084901b1660208201526034810182905260009060540160405160208183030381529060405280519060200120905092915050565b60408051808201825260008082526020918201819052825180840190935273eeeeeeeeeeeeeeeeeeeeeeeeeeeeeeeeeeeeeeee8352546001600160801b03169082015290565b6110d46113fd565b63389a75e1600c52806000526020600c2080544211156110fc57636f5e88186000526004601cfd5b6000905561094a816114f8565b6111116113fd565b8060601b61112757637448fbae6000526004601cfd5b61094a816114f8565b604080518082019091526000808252602082015260405163f6085bdb60e01b8152600481018490526111b7906001600160a01b0386169063f6085bdb90602401608060405180830381865afa15801561118d573d6000803e3d6000fd5b505050506040513d601f19601f820116820180604052508101906111b19190611ebd565b83610e2e565b949350505050565b638b78c6d81954331461094a57638b78c6d8600c5233600052806020600c20541661094a576382b429006000526004601cfd5b610c0f8282600061168f565b815160609081906000816112138660646120e9565b61121d9190612111565b9050600061122b83836120e9565b61123890620f4240612134565b9050611245836001612151565b63ffffffff166001600160401b0381111561126257611262611b79565b60405190808252806020026020018201604052801561128b578160200160208202803683370190505b509450611299836001612151565b63ffffffff166001600160401b038111156112b6576112b6611b79565b6040519080825280602002602001820160405280156112df578160200160208202803683370190505b5093508760200151856000815181106112fa576112fa61216e565b60200260200101906001600160a01b031690816001600160a01b0316815250508063ffffffff16846000815181106113345761133461216e565b60200260200101818152505060005b8363ffffffff168160ff1610156113f157878160ff16815181106113695761136961216e565b602002602001015160200151868260016113839190612184565b60ff16815181106113965761139661216e565b6001600160a01b039092166020928302919091019091015263ffffffff8316856113c1836001612184565b60ff16815181106113d4576113d461216e565b6020908102919091010152806113e98161219d565b915050611343565b50505050935093915050565b638b78c6d819543314610de5576382b429006000526004601cfd5b610c0f8282600161168f565b815146146114455760405163f5b8dfd760e01b815260040160405180910390fd5b826020015160000361145657505050565b61146e836000015184602001518385602001516114a6565b505050565b638b78c6d8600c5233600052806020600c20541661094a57638b78c6d81954331461094a576382b429006000526004601cfd5b73eeeeeeeeeeeeeeeeeeeeeeeeeeeeeeeeeeeeeeed196001600160a01b038516016114e3576114de6001600160a01b038216846116e8565b610dcd565b610dcd6001600160a01b038516838386611704565b638b78c6d81980546001600160a01b039092169182907f8be0079c531659141344cd1fd0a4f28419497f9722a3daafe3b4186f6b6457e0600080a355565b602081015115610e0c576000805461155f908690600160801b90046001600160801b0316612032565b905060008183602001510361159657600154612710906115859063ffffffff1684612032565b61158f919061205f565b9050611599565b50805b611613604051806040016040528085600001516001600160a01b031681526020018386602001516115ca91906121bc565b9052600460006115da8c8c61103f565b81526020808201929092526040908101600020815180830190925280548252600101546001600160a01b03169181019190915287611424565b6000611626898560000151848989611758565b8451602080870151604080518d81526001600160a01b0394851693810193909352820152606081018390529192508a16907fa51462da4062b22c6b29f339e68988d477c5d44a303c61f50d8081c2ef344bac9060800160405180910390a2505050505050505050565b638b78c6d8600c52826000526020600c208054838117836116b1575080841681185b80835580600c5160601c7f715ad5ce61fc9595c7b415289d59cf203f23a94fa06f04af7e489a0a76e1fe26600080a3505050505050565b60003860003884865af1610c0f5763b12d13eb6000526004601cfd5b60405181606052826040528360601b602c526323b872dd60601b600c52602060006064601c6000895af13d15600160005114171661174a57637939f4246000526004601cfd5b600060605260405250505050565b6000806117658584610cb0565b6001600160a01b038089166000908152600360205260408120549293509161178f9188911661100b565b905061179b81836121cf565b92506117f36040518060400160405280896001600160a01b0316815260200185896117c691906121bc565b905260408051808201909152468152600154600160401b90046001600160a01b0316602082015287611424565b6118386040518060400160405280896001600160a01b03168152602001848152506040518060400160405280468152602001876001600160a01b031681525087611424565b61187d6040518060400160405280896001600160a01b03168152602001838152506040518060400160405280468152602001876001600160a01b031681525087611424565b505095945050505050565b80356001600160401b038116811461189f57600080fd5b919050565b61ffff8116811461094a57600080fd5b600080600080600060a086880312156118cc57600080fd5b6118d586611888565b94506118e360208701611888565b935060408601356118f3816118a4565b92506060860135611903816118a4565b91506080860135611913816118a4565b809150509295509295909350565b6001600160a01b038116811461094a57600080fd5b6000806040838503121561194957600080fd5b823561195481611921565b946020939093013593505050565b60006020828403121561197457600080fd5b5035919050565b60008060008060006080868803121561199357600080fd5b853561199e81611921565b94506020860135935060408601356001600160401b03808211156119c157600080fd5b818801915088601f8301126119d557600080fd5b8135818111156119e457600080fd5b8960208260061b85010111156119f957600080fd5b602083019550809450505050606086013561191381611921565b600060208284031215611a2557600080fd5b8135610cef81611921565b60008060408385031215611a4357600080fd5b823591506020830135611a5581611921565b809150509250929050565b600080600060608486031215611a7557600080fd5b8335611a8081611921565b9250602084013591506040840135611a9781611921565b809150509250925092565b600060808284031215611ab457600080fd5b50919050565b6000806000806000806101208789031215611ad457600080fd5b8635611adf81611921565b955060208701359450604087013593506060870135611afd81611921565b92506080870135611b0d81611921565b9150611b1c8860a08901611aa2565b90509295509295509295565b600080600080600060a08688031215611b4057600080fd5b8535611b4b81611921565b945060208601359350604086013592506060860135611b6981611921565b9150608086013561191381611921565b634e487b7160e01b600052604160045260246000fd5b604051608081016001600160401b0381118282101715611bb157611bb1611b79565b60405290565b604080519081016001600160401b0381118282101715611bb157611bb1611b79565b604051601f8201601f191681016001600160401b0381118282101715611c0157611c01611b79565b604052919050565b6001600160701b038116811461094a57600080fd5b600060808284031215611c3057600080fd5b611c38611b8f565b90508135611c4581611921565b81526020820135611c5581611c09565b60208201526040820135611c68816118a4565b60408201526060820135611c7b816118a4565b606082015292915050565b60008060a08385031215611c9957600080fd5b611ca38484611c1e565b946080939093013593505050565b600060808284031215611cc357600080fd5b610cef8383611aa2565b600080600060608486031215611ce257600080fd5b8335611ced81611921565b95602085013595506040909401359392505050565b634e487b7160e01b600052601160045260246000fd5b61ffff818116838216019080821115611d3357611d33611d02565b5092915050565b600060408284031215611d4c57600080fd5b611d54611bb7565b9050815181526020820151611d6881611921565b602082015292915050565b60006020808385031215611d8657600080fd5b82516001600160401b0380821115611d9d57600080fd5b9084019060c08287031215611db157600080fd5b611db9611b8f565b825160068110611dc857600080fd5b8152611dd687848601611d3a565b84820152611de78760608501611d3a565b604082015260a083015182811115611dfe57600080fd5b80840193505086601f840112611e1357600080fd5b825182811115611e2557611e25611b79565b611e37601f8201601f19168601611bd9565b92508083528785828601011115611e4d57600080fd5b60005b81811015611e6b578481018601518482018701528501611e50565b506000908301909401939093526060830152509392505050565b600060408284031215611e9757600080fd5b611e9f611bb7565b823581526020830135611eb181611921565b60208201529392505050565b600060808284031215611ecf57600080fd5b611ed7611b8f565b8251611ee281611921565b81526020830151611ef281611c09565b60208201526040830151611f05816118a4565b60408201526060830151611f18816118a4565b60608201529392505050565b60008151808452602080850194506020840160005b83811015611f5557815187529582019590820190600101611f39565b509495945050505050565b60608152600060e08201855160806060850152818151808452610100860191506020935060208301925060005b81811015611fb25783516001600160a01b031683529284019291840191600101611f8d565b50506020880151858203605f190160808701529250611fd18184611f24565b92505050604086015160a08401526060860151611ff460c085018261ffff169052565b506001600160a01b0394851660208401529290931660409091015292915050565b60006020828403121561202757600080fd5b8151610cef81611921565b808202811582820484141761093a5761093a611d02565b634e487b7160e01b600052601260045260246000fd5b60008261206e5761206e612049565b500490565b60006080828403121561208557600080fd5b610cef8383611c1e565b6001600160801b03818116838216019080821115611d3357611d33611d02565b6000602082840312156120c157600080fd5b8135610cef816118a4565b6000602082840312156120de57600080fd5b8135610cef81611c09565b63ffffffff81811683821602808216919082811461210957612109611d02565b505092915050565b600063ffffffff8084168061212857612128612049565b92169190910492915050565b63ffffffff828116828216039080821115611d3357611d33611d02565b63ffffffff818116838216019080821115611d3357611d33611d02565b634e487b7160e01b600052603260045260246000fd5b60ff818116838216019081111561093a5761093a611d02565b600060ff821660ff81036121b3576121b3611d02565b60010192915050565b8181038181111561093a5761093a611d02565b8082018082111561093a5761093a611d0256fea2646970667358221220991e22ec7110b639153b89baa442f07cf1e59a98d7df57c2ec02f91b5ba7072f64736f6c63430008190033610140604052306101205234801561001657600080fd5b5060405161292b38038061292b833981016040819052610035916101c0565b306080524660a052606080610080604080518082018252600b81526a0a8d2e8d8cae68ee4c2e0d60ab1b602080830191909152825180840190935260018352603160f81b9083015291565b815160209283012081519183019190912060c082905260e0819052604080517f8b73c3c69bb8fe3d512ecc4cf759cc79239f7b179b0ffacaa9a75d522b39400f8152938401929092529082015246606082015230608082015260a0902061010052506100ed9050826100ff565b6100f881600161013b565b50506101f3565b6001600160a01b0316638b78c6d8198190558060007f8be0079c531659141344cd1fd0a4f28419497f9722a3daafe3b4186f6b6457e08180a350565b6101478282600161014b565b5050565b638b78c6d8600c52826000526020600c2080548381178361016d575080841681185b80835580600c5160601c7f715ad5ce61fc9595c7b415289d59cf203f23a94fa06f04af7e489a0a76e1fe26600080a3505050505050565b80516001600160a01b03811681146101bb57600080fd5b919050565b600080604083850312156101d357600080fd5b6101dc836101a4565b91506101ea602084016101a4565b90509250929050565b60805160a05160c05160e05161010051610120516126e26102496000396000818161084a01526109300152600061185901526000611913015260006118ed0152600061189d0152600061187a01526126e26000f3fe60806040526004361061019c5760003560e01c806354d1f13d116100ec5780639f70e9931161008a578063ec8c812a11610064578063ec8c812a146104a6578063f04e283e146104c6578063f2fde38b146104d9578063fee81cf4146104ec57600080fd5b80639f70e99314610436578063ad15544314610456578063c4a981691461047657600080fd5b806384b0196e116100c657806384b0196e146103a257806389f88de5146103ca5780638da5cb5b146103ea5780639c30fd921461041657600080fd5b806354d1f13d1461035e578063715018a6146103665780637159d5451461036e57600080fd5b806325692962116101595780634d83be4b116101335780634d83be4b146102df5780634f1ef286146102ff578063514e62fc1461031257806352d1902d1461034957600080fd5b806325692962146102915780632de94807146102995780634a4ee7b1146102cc57600080fd5b8063103278df146101a1578063139fca60146101d7578063183a4f6e146101f75780631c10893f1461020c5780631cd64df41461021f57806320606b701461024f575b600080fd5b3480156101ad57600080fd5b506101c16101bc366004611c54565b61051f565b6040516101ce9190611dcb565b60405180910390f35b3480156101e357600080fd5b506101c16101f2366004611df6565b610693565b61020a610205366004611e80565b610733565b005b61020a61021a366004611eb5565b610740565b34801561022b57600080fd5b5061023f61023a366004611eb5565b61075a565b60405190151581526020016101ce565b34801561025b57600080fd5b506102837f8b73c3c69bb8fe3d512ecc4cf759cc79239f7b179b0ffacaa9a75d522b39400f81565b6040519081526020016101ce565b61020a610779565b3480156102a557600080fd5b506102836102b4366004611edf565b638b78c6d8600c908152600091909152602090205490565b61020a6102da366004611eb5565b6107c8565b3480156102eb57600080fd5b506101c16102fa366004611c54565b6107dd565b61020a61030d366004611efa565b610848565b34801561031e57600080fd5b5061023f61032d366004611eb5565b638b78c6d8600c90815260009290925260209091205416151590565b34801561035557600080fd5b5061028361092c565b61020a61098b565b61020a6109c7565b34801561037a57600080fd5b506102837fec0f1b0cb5f3b3d906a82a181128d534306f938fba06f978c515223a2c3def0e81565b3480156103ae57600080fd5b506103b76109db565b6040516101ce9796959493929190611f33565b3480156103d657600080fd5b506102836103e536600461216e565b610a3a565b3480156103f657600080fd5b50638b78c6d819546040516001600160a01b0390911681526020016101ce565b34801561042257600080fd5b506102836104313660046121d1565b610a6d565b34801561044257600080fd5b506101c161045136600461229d565b610a81565b34801561046257600080fd5b5061020a610471366004612316565b610bc6565b34801561048257600080fd5b50610496610491366004611e80565b610cc6565b6040516101ce949392919061238a565b3480156104b257600080fd5b506101c16104c136600461229d565b610fc0565b61020a6104d4366004611edf565b611096565b61020a6104e7366004611edf565b6110d3565b3480156104f857600080fd5b50610283610507366004611edf565b63389a75e1600c908152600091909152602090205490565b610527611b67565b600084815260026020526040908190208151608081019092526006018054610662929190829060ff16600581111561056157610561611c9f565b600581111561057257610572611c9f565b81526040805180820182526001840154815260028401546001600160a01b03908116602083810191909152808501929092528251808401845260038601548152600486015490911691810191909152908201526005820180546060909201916105da906123d6565b80601f0160208091040260200160405190810160405280929190818152602001828054610606906123d6565b80156106535780601f1061062857610100808354040283529160200191610653565b820191906000526020600020905b81548152906001019060200180831161063657829003601f168201915b505050505081525050336110fa565b61067e576040516282b42960e81b815260040160405180910390fd5b61068b8484846001611138565b949350505050565b61069b611b67565b6106bd6106a78661240a565b60209081015101516001600160a01b0316331490565b6106d9576040516282b42960e81b815260040160405180910390fd5b61072a6106e58661240a565b6106ee8661240a565b85858080601f01602080910402602001604051908101604052809392919081815260200183838082843760009201919091525061150a92505050565b95945050505050565b61073d33826117a4565b50565b600161074b816117b4565b61075583836117e7565b505050565b638b78c6d8600c90815260008390526020902054811681145b92915050565b60006202a3006001600160401b03164201905063389a75e1600c5233600052806020600c2055337fdbf36a107da19e49527a7176a1babf963b4b0ff8cde35ee35d6cd8f1f9ac7e1d600080a250565b60016107d3816117b4565b61075583836117a4565b6107e5611b67565b60008481526002602052604090819020815160808101909252600601805461081f929190829060ff16600581111561056157610561611c9f565b61083b576040516282b42960e81b815260040160405180910390fd5b61068b8484846000611138565b7f000000000000000000000000000000000000000000000000000000000000000030810361087e57639f03a0266000526004601cfd5b610887846117f3565b8360601b60601c93506352d1902d6001527f360894a13ba1a3210667c828492db98dca3e2076cc3735a920a3ca505d382bbc80602060016004601d895afa51146108d9576355299b496001526004601dfd5b847fbc7cd75a20ee27fd9adebab32041f755214dbc6bffa90cc0225b39da2e5c2d3b600038a2849055811561092657604051828482376000388483885af4610924573d6000823e3d81fd5b505b50505050565b60007f000000000000000000000000000000000000000000000000000000000000000030811461096457639f03a0266000526004601cfd5b7f360894a13ba1a3210667c828492db98dca3e2076cc3735a920a3ca505d382bbc91505090565b63389a75e1600c523360005260006020600c2055337ffa7b8eab7da67f412cc9575ed43464468f9bfbae89d1675917346ca6d8fe3c92600080a2565b6109cf6117fe565b6109d96000611819565b565b600f60f81b6060806000808083610a28604080518082018252600b81526a0a8d2e8d8cae68ee4c2e0d60ab1b602080830191909152825180840190935260018352603160f81b9083015291565b97989097965046955030945091925090565b60008282604051602001610a4f929190612416565b60405160208183030381529060405280519060200120905092915050565b600061077382600001518360200151610a3a565b610a89611b67565b85858585856000610ae57fec0f1b0cb5f3b3d906a82a181128d534306f938fba06f978c515223a2c3def0e878787604051602001610aca9493929190612464565b60405160208183030381529060405280519060200120611857565b6000878152600260205260409020600a0154909150610b0f906001600160a01b031682858561196f565b1580610b485750600360008484604051610b2a92919061248e565b604080519182900390912082526020820192909252016000205460ff165b15610b65576040516282b42960e81b815260040160405180910390fd5b610b728c8c8c6001611138565b96506001600360008585604051610b8a92919061248e565b6040518091039020815260200190815260200160002060006101000a81548160ff02191690831515021790555050505050505095945050505050565b6001610bd181611a68565b60005b8281101561092657610cbd848483818110610bf157610bf161249e565b9050602002810190610c0391906124b4565b610c0d90806124d4565b610c169061240a565b858584818110610c2857610c2861249e565b9050602002810190610c3a91906124b4565b610c489060208101906124d4565b610c519061240a565b868685818110610c6357610c6361249e565b9050602002810190610c7591906124b4565b610c839060608101906124ea565b8080601f01602080910402602001604051908101604052809392919081815260200183838082843760009201919091525061150a92505050565b50600101610bd4565b6002602052600090815260409081902081516080810190925280549091908290829060ff166005811115610cfc57610cfc611c9f565b6005811115610d0d57610d0d611c9f565b81526040805180820182526001840154815260028401546001600160a01b0390811660208381019190915280850192909252825180840184526003860154815260048601549091169181019190915290820152600582018054606090920191610d75906123d6565b80601f0160208091040260200160405190810160405280929190818152602001828054610da1906123d6565b8015610dee5780601f10610dc357610100808354040283529160200191610dee565b820191906000526020600020905b815481529060010190602001808311610dd157829003601f168201915b505050919092525050604080516080810190915260068401805493949391925090829060ff166005811115610e2557610e25611c9f565b6005811115610e3657610e36611c9f565b81526040805180820182526001840154815260028401546001600160a01b0390811660208381019190915280850192909252825180840184526003860154815260048601549091169181019190915290820152600582018054606090920191610e9e906123d6565b80601f0160208091040260200160405190810160405280929190818152602001828054610eca906123d6565b8015610f175780601f10610eec57610100808354040283529160200191610f17565b820191906000526020600020905b815481529060010190602001808311610efa57829003601f168201915b50505091909252505050600c820154600d83018054929360ff90921692610f3d906123d6565b80601f0160208091040260200160405190810160405280929190818152602001828054610f69906123d6565b8015610fb65780601f10610f8b57610100808354040283529160200191610fb6565b820191906000526020600020905b815481529060010190602001808311610f9957829003601f168201915b5050505050905084565b610fc8611b67565b858585858560006110097fec0f1b0cb5f3b3d906a82a181128d534306f938fba06f978c515223a2c3def0e878787604051602001610aca9493929190612464565b6000878152600260205260409020600a0154909150611033906001600160a01b031682858561196f565b158061106c575060036000848460405161104e92919061248e565b604080519182900390912082526020820192909252016000205460ff165b15611089576040516282b42960e81b815260040160405180910390fd5b610b728c8c8c6000611138565b61109e6117fe565b63389a75e1600c52806000526020600c2080544211156110c657636f5e88186000526004601cfd5b6000905561073d81611819565b6110db6117fe565b8060601b6110f157637448fbae6000526004601cfd5b61073d81611819565b6040820151602001516000906001600160a01b0383811691161480611131575060208381015101516001600160a01b038381169116145b9392505050565b611140611b67565b61114b600086611a9b565b6111685760405163c5723b5160e01b815260040160405180910390fd5b60008581526002602052604090819020815161010081019092528054829060808201908390829060ff1660058111156111a3576111a3611c9f565b60058111156111b4576111b4611c9f565b81526040805180820182526001840154815260028401546001600160a01b039081166020838101919091528085019290925282518084018452600386015481526004860154909116918101919091529082015260058201805460609092019161121c906123d6565b80601f0160208091040260200160405190810160405280929190818152602001828054611248906123d6565b80156112955780601f1061126a57610100808354040283529160200191611295565b820191906000526020600020905b81548152906001019060200180831161127857829003601f168201915b5050509190925250505081526040805160808101909152600683018054602090930192829060ff1660058111156112ce576112ce611c9f565b60058111156112df576112df611c9f565b81526040805180820182526001840154815260028401546001600160a01b0390811660208381019190915280850192909252825180840184526003860154815260048601549091169181019190915290820152600582018054606090920191611347906123d6565b80601f0160208091040260200160405190810160405280929190818152602001828054611373906123d6565b80156113c05780601f10611395576101008083540402835291602001916113c0565b820191906000526020600020905b8154815290600101906020018083116113a357829003601f168201915b505050919092525050508152600c82015460ff1615156020820152600d820180546040909201916113f0906123d6565b80601f016020809104026020016040519081016040528092919081815260200182805461141c906123d6565b80156114695780601f1061143e57610100808354040283529160200191611469565b820191906000526020600020905b81548152906001019060200180831161144c57829003601f168201915b505050919092525050508215801560408301529091506114c5577f14885c5cc13175969ca447a74f1c4412cf02dda5a638e2ea7e3b093d488197c1813386866040516114b89493929190612530565b60405180910390a161068b565b7f22eba3304b35e513c47451658d27f6b613ccaf9239462d2278d570b0ca810b1b813386866040516114fa9493929190612530565b60405180910390a1949350505050565b611512611b67565b60008484604051602001611527929190612416565b60408051601f198184030181529190528051602090910120905061154c600082611ab3565b61156957604051634237602b60e11b815260040160405180910390fd5b6040805160808101825286815260208082018790526000828401819052606083018790528481526002909152919091208151805182549395508593839190829060ff191660018360058111156115c1576115c1611c9f565b0217905550602082810151805160018401558101516002830180546001600160a01b03199081166001600160a01b03938416179091556040850151805160038601559092015160048401805490931691161790556060820151600582019061162990826125b5565b50505060208201518051600683018054909190829060ff1916600183600581111561165657611656611c9f565b0217905550602082810151805160018401558101516002830180546001600160a01b03199081166001600160a01b0393841617909155604085015180516003860155909201516004840180549093169116179055606082015160058201906116be90826125b5565b5050506040820151600c8201805460ff19169115159190911790556060820151600d8201906116ed90826125b5565b509050507f8f9671c9dcbb374f7950c8781f5654d615df176a112c7144639d5b9cf0a382dd8584604051611722929190612674565b60405180910390a17f8f9671c9dcbb374f7950c8781f5654d615df176a112c7144639d5b9cf0a382dd848460405161175b929190612674565b60405180910390a17f07a9a59b51e0355af957b2c827b8dfdc9383d2c2f8a675a2ff57c52bbc34c5038284604051611794929190612699565b60405180910390a1509392505050565b6117b082826000611abf565b5050565b638b78c6d81954331461073d57638b78c6d8600c5233600052806020600c20541661073d576382b429006000526004601cfd5b6117b082826001611abf565b60016117b0816117b4565b638b78c6d8195433146109d9576382b429006000526004601cfd5b638b78c6d81980546001600160a01b039092169182907f8be0079c531659141344cd1fd0a4f28419497f9722a3daafe3b4186f6b6457e0600080a355565b7f00000000000000000000000000000000000000000000000000000000000000007f000000000000000000000000000000000000000000000000000000000000000030147f000000000000000000000000000000000000000000000000000000000000000046141661194a5750604080517f8b73c3c69bb8fe3d512ecc4cf759cc79239f7b179b0ffacaa9a75d522b39400f81527f000000000000000000000000000000000000000000000000000000000000000060208201527f00000000000000000000000000000000000000000000000000000000000000009181019190915246606082015230608082015260a090205b67190100000000000060005280601a5281603a52604260182090506000603a52919050565b6001600160a01b03909316926000841561068b5760405184600052604083036119da5760208481013560ff81901c601b01825285356040526001600160ff1b0316606052600160806000825afa805187183d15176119d85750600060605260405250600161068b565b505b60418303611a1d57604084013560001a602052604084604037602060016080600060015afa805187183d1517611a1b5750600060605260405250600161068b565b505b600060605280604052631626ba7e60e01b80825285600483015260248201604081528460448401528486606485013760208160648701858b5afa905190911416915050949350505050565b638b78c6d8600c5233600052806020600c20541661073d57638b78c6d81954331461073d576382b429006000526004601cfd5b60008181526001830160205260408120541515611131565b60006111318383611b18565b638b78c6d8600c52826000526020600c20805483811783611ae1575080841681185b80835580600c5160601c7f715ad5ce61fc9595c7b415289d59cf203f23a94fa06f04af7e489a0a76e1fe26600080a3505050505050565b6000818152600183016020526040812054611b5f57508154600181810184556000848152602080822090930184905584548482528286019093526040902091909155610773565b506000610773565b6040518060800160405280611b7a611b9b565b8152602001611b87611b9b565b815260006020820152606060409091015290565b60408051608081019091528060008152602001611bd460405180604001604052806000815260200160006001600160a01b031681525090565b8152602001611bff60405180604001604052806000815260200160006001600160a01b031681525090565b8152602001606081525090565b60008083601f840112611c1e57600080fd5b5081356001600160401b03811115611c3557600080fd5b602083019150836020828501011115611c4d57600080fd5b9250929050565b600080600060408486031215611c6957600080fd5b8335925060208401356001600160401b03811115611c8657600080fd5b611c9286828701611c0c565b9497909650939450505050565b634e487b7160e01b600052602160045260246000fd5b6000815180845260005b81811015611cdb57602081850181015186830182015201611cbf565b506000602082860101526020601f19601f83011685010191505092915050565b6000815160068110611d1d57634e487b7160e01b600052602160045260246000fd5b8352602082810151805182860152908101516001600160a01b031660408501525060408201518051606085015260208101516001600160a01b0316608085015250606082015160c060a085015261068b60c0850182611cb5565b6000815160808452611d8c6080850182611cfb565b905060208301518482036020860152611da58282611cfb565b9150506040830151151560408501526060830151848203606086015261072a8282611cb5565b6020815260006111316020830184611d77565b600060c08284031215611df057600080fd5b50919050565b60008060008060608587031215611e0c57600080fd5b84356001600160401b0380821115611e2357600080fd5b611e2f88838901611dde565b95506020870135915080821115611e4557600080fd5b611e5188838901611dde565b94506040870135915080821115611e6757600080fd5b50611e7487828801611c0c565b95989497509550505050565b600060208284031215611e9257600080fd5b5035919050565b80356001600160a01b0381168114611eb057600080fd5b919050565b60008060408385031215611ec857600080fd5b611ed183611e99565b946020939093013593505050565b600060208284031215611ef157600080fd5b61113182611e99565b600080600060408486031215611f0f57600080fd5b611f1884611e99565b925060208401356001600160401b03811115611c8657600080fd5b60ff60f81b881681526000602060e06020840152611f5460e084018a611cb5565b8381036040850152611f66818a611cb5565b606085018990526001600160a01b038816608086015260a0850187905284810360c08601528551808252602080880193509091019060005b81811015611fba57835183529284019291840191600101611f9e565b50909c9b505050505050505050505050565b634e487b7160e01b600052604160045260246000fd5b604051608081016001600160401b038111828210171561200457612004611fcc565b60405290565b60006040828403121561201c57600080fd5b604051604081018181106001600160401b038211171561203e5761203e611fcc565b6040528235815290508061205460208401611e99565b60208201525092915050565b600082601f83011261207157600080fd5b81356001600160401b038082111561208b5761208b611fcc565b604051601f8301601f19908116603f011681019082821181831017156120b3576120b3611fcc565b816040528381528660208588010111156120cc57600080fd5b836020870160208301376000602085830101528094505050505092915050565b600060c082840312156120fe57600080fd5b612106611fe2565b905081356006811061211757600080fd5b8152612126836020840161200a565b6020820152612138836060840161200a565b604082015260a08201356001600160401b0381111561215657600080fd5b61216284828501612060565b60608301525092915050565b6000806040838503121561218157600080fd5b82356001600160401b038082111561219857600080fd5b6121a4868387016120ec565b935060208501359150808211156121ba57600080fd5b506121c7858286016120ec565b9150509250929050565b6000602082840312156121e357600080fd5b81356001600160401b03808211156121fa57600080fd5b908301906080828603121561220e57600080fd5b612216611fe2565b82358281111561222557600080fd5b612231878286016120ec565b82525060208301358281111561224657600080fd5b612252878286016120ec565b6020830152506040830135801515811461226b57600080fd5b604082015260608301358281111561228257600080fd5b61228e87828601612060565b60608301525095945050505050565b6000806000806000606086880312156122b557600080fd5b8535945060208601356001600160401b03808211156122d357600080fd5b6122df89838a01611c0c565b909650945060408801359150808211156122f857600080fd5b5061230588828901611c0c565b969995985093965092949392505050565b6000806020838503121561232957600080fd5b82356001600160401b038082111561234057600080fd5b818501915085601f83011261235457600080fd5b81358181111561236357600080fd5b8660208260051b850101111561237857600080fd5b60209290920196919550909350505050565b60808152600061239d6080830187611cfb565b82810360208401526123af8187611cfb565b9050841515604084015282810360608401526123cb8185611cb5565b979650505050505050565b600181811c908216806123ea57607f821691505b602082108103611df057634e487b7160e01b600052602260045260246000fd5b600061077336836120ec565b6040815260006124296040830185611cfb565b828103602084015261072a8185611cfb565b81835281816020850137506000828201602090810191909152601f909101601f19169091010190565b84815283602082015260606040820152600061248460608301848661243b565b9695505050505050565b8183823760009101908152919050565b634e487b7160e01b600052603260045260246000fd5b60008235607e198336030181126124ca57600080fd5b9190910192915050565b6000823560be198336030181126124ca57600080fd5b6000808335601e1984360301811261250157600080fd5b8301803591506001600160401b0382111561251b57600080fd5b602001915036819003821315611c4d57600080fd5b6060815260006125436060830187611d77565b6001600160a01b038616602084015282810360408401526123cb81858761243b565b601f821115610755576000816000526020600020601f850160051c8101602086101561258e5750805b601f850160051c820191505b818110156125ad5782815560010161259a565b505050505050565b81516001600160401b038111156125ce576125ce611fcc565b6125e2816125dc84546123d6565b84612565565b602080601f83116001811461261757600084156125ff5750858301515b600019600386901b1c1916600185901b1785556125ad565b600085815260208120601f198616915b8281101561264657888601518255948401946001909101908401612627565b50858210156126645787850151600019600388901b60f8161c191681555b5050505050600190811b01905550565b6040815260006126876040830185611cfb565b828103602084015261072a8185611cb5565b6040815260006126876040830185611d7756fea26469706673582212206fa3a8edb3f2aec5e11fcc310fd8413c927609cdabe7faf4901919a99394adab64736f6c63430008190033a26469706673582212200e5774dc78da0ad570d2ae211b1fe890334d62783c300568bedf07c5dce96efd64736f6c634300081900336080604052348015600f57600080fd5b50613fad8061001f6000396000f3fe6080604052600436106103335760003560e01c8063715018a6116101ab578063c66e1dd5116100f7578063eac989f811610095578063f2fde38b1161006f578063f2fde38b14610a77578063f6085bdb14610a8a578063f826dcec14610b33578063fee81cf414610b5357600080fd5b8063eac989f814610a2f578063f04e283e14610a44578063f242432a14610a5757600080fd5b8063d70754ec116100d1578063d70754ec14610994578063e3684e39146109a9578063e985e9c5146109d6578063ea26266c14610a0f57600080fd5b8063c66e1dd514610892578063d00b38fd14610954578063d138be191461097457600080fd5b8063904868b211610164578063a22cb4651161013e578063a22cb46514610802578063b606553814610822578063bd85b03914610842578063c046c69a1461087257600080fd5b8063904868b2146107bc578063972f9e94146107cf5780639be9cacf146107e257600080fd5b8063715018a61461070e578063830c495214610716578063869f75941461073657806389ddbb81146107675780638a35ace3146107875780638da5cb5b146107a757600080fd5b80631c10893f116102855780632eb2c2d6116102235780634e1273f4116101fd5780634e1273f41461066c578063510b515814610699578063514e62fc146106cf57806354d1f13d1461070657600080fd5b80632eb2c2d6146106235780632f457e0a146106435780634a4ee7b11461065957600080fd5b8063220e44d51161025f578063220e44d51461057c57806325692962146105a95780632a55205a146105b15780632de94807146105f057600080fd5b80631c10893f1461051f5780631cd64df4146105325780631f7fdffa1461056957600080fd5b80630e89341c116102f2578063170f221a116102cc578063170f221a146104b957806317b1566d146104d9578063183a4f6e146104f95780631a1d4ba81461050c57600080fd5b80630e89341c1461044a5780630efd898a1461046a57806313859f461461048a57600080fd5b8062ad800c14610338578062fdd58e1461036e57806301ffc9a7146103b657806302d05d3f146103e657806306fdde03146104135780630dc8165314610428575b600080fd5b34801561034457600080fd5b50610358610353366004612c01565b610b86565b6040516103659190612c6a565b60405180910390f35b34801561037a57600080fd5b506103a8610389366004612c99565b679a31110384e0b0c96020526014919091526000908152604090205490565b604051908152602001610365565b3480156103c257600080fd5b506103d66103d1366004612cc5565b610c28565b6040519015158152602001610365565b3480156103f257600080fd5b506103fb610c48565b6040516001600160a01b039091168152602001610365565b34801561041f57600080fd5b50610358610c57565b34801561043457600080fd5b50610448610443366004612d07565b610d13565b005b34801561045657600080fd5b50610358610465366004612c01565b610dbb565b34801561047657600080fd5b506103a8610485366004612d4d565b610ddb565b34801561049657600080fd5b506104aa6104a5366004612c01565b610e86565b60405161036593929190612d6f565b3480156104c557600080fd5b506104486104d4366004612db2565b611040565b3480156104e557600080fd5b506104486104f4366004612dcf565b61105c565b610448610507366004612c01565b611159565b61044861051a366004612e9e565b611166565b61044861052d366004612c99565b61129d565b34801561053e57600080fd5b506103d661054d366004612c99565b638b78c6d8600c90815260009290925260209091205481161490565b610448610577366004612f89565b6112b8565b34801561058857600080fd5b5061059c610597366004612c01565b611497565b60405161036591906130cb565b610448611519565b3480156105bd57600080fd5b506105d16105cc366004612d4d565b611568565b604080516001600160a01b039093168352602083019190915201610365565b3480156105fc57600080fd5b506103a861060b366004612db2565b638b78c6d8600c908152600091909152602090205490565b34801561062f57600080fd5b5061044861063e3660046130de565b6115bd565b34801561064f57600080fd5b506103a860005481565b610448610667366004612c99565b6117d9565b34801561067857600080fd5b5061068c61068736600461317b565b6117ef565b60405161036591906131e6565b3480156106a557600080fd5b506103fb6106b4366004612c01565b6000908152600160205260409020546001600160a01b031690565b3480156106db57600080fd5b506103d66106ea366004612c99565b638b78c6d8600c90815260009290925260209091205416151590565b61044861185f565b61044861189b565b34801561072257600080fd5b506103a8610731366004613258565b6118af565b34801561074257600080fd5b506103a8610751366004612c01565b6000908152600160208190526040909120015490565b34801561077357600080fd5b50610448610782366004613314565b611ba4565b34801561079357600080fd5b506103a86107a2366004612c01565b611cd9565b3480156107b357600080fd5b506103fb611ce6565b6104486107ca366004613341565b611cf5565b6104486107dd3660046133c3565b611dc1565b3480156107ee57600080fd5b506004546103fb906001600160a01b031681565b34801561080e57600080fd5b5061044861081d36600461343a565b611e55565b34801561082e57600080fd5b5061044861083d366004613473565b611eab565b34801561084e57600080fd5b506103a861085d366004612c01565b60009081526001602052604090206002015490565b34801561087e57600080fd5b5061044861088d366004612c99565b611ee1565b34801561089e57600080fd5b506109426108ad366004612c01565b60016020818152600092835260409283902080549281015460028201546003830154865160808101885260048501546001600160a01b0390811682526005909501546001600160701b0381169682019690965261ffff600160701b8704811698820198909852600160801b9095049096166060850152919093169390916001600160401b0380831692600160401b9004169086565b604051610365969594939291906134d7565b34801561096057600080fd5b5061044861096f366004612db2565b611f65565b34801561098057600080fd5b5061044861098f366004613525565b611f7d565b3480156109a057600080fd5b5061059c612026565b3480156109b557600080fd5b506109c96109c4366004612c01565b6120a2565b6040516103659190613561565b3480156109e257600080fd5b506103d66109f13660046135c2565b679a31110384e0b0c96020526014919091526000526034600c205490565b348015610a1b57600080fd5b506003546103fb906001600160a01b031681565b348015610a3b57600080fd5b5061035861229b565b610448610a52366004612db2565b6122d4565b348015610a6357600080fd5b50610448610a723660046135f0565b612311565b610448610a85366004612db2565b612471565b348015610a9657600080fd5b50610b26610aa5366004612c01565b6040805160808082018352600080835260208084018290528385018290526060938401829052948152600185528390208351918201845260048101546001600160a01b03168252600501546001600160701b0381169482019490945261ffff600160701b8504811693820193909352600160801b9093049091169082015290565b604051610365919061364d565b348015610b3f57600080fd5b50610448610b4e36600461365b565b612498565b348015610b5f57600080fd5b506103a8610b6e366004612db2565b63389a75e1600c908152600091909152602090205490565b6000818152600260205260409020805460609190610ba3906136d4565b80601f0160208091040260200160405190810160405280929190818152602001828054610bcf906136d4565b8015610c1c5780601f10610bf157610100808354040283529160200191610c1c565b820191906000526020600020905b815481529060010190602001808311610bff57829003601f168201915b50505050509050919050565b6000632a55205a60e083901c9081146301ffc9a791909114175b92915050565b6000610c52611ce6565b905090565b6000805260026020527fac33ff75c19e70fe83507db0d683fd3465c996598dc972688b7ace676c89077b805460609190610c90906136d4565b80601f0160208091040260200160405190810160405280929190818152602001828054610cbc906136d4565b8015610d095780601f10610cde57610100808354040283529160200191610d09565b820191906000526020600020905b815481529060010190602001808311610cec57829003601f168201915b5050505050905090565b81158015610d3a5750610d24611ce6565b6001600160a01b0316336001600160a01b031614155b15610d57576040516282b42960e81b815260040160405180910390fd5b600082118015610d7e57506000828152600160205260409020546001600160a01b03163314155b15610d9b576040516282b42960e81b815260040160405180910390fd5b60008281526002602052604090208190610db5828261386b565b50505050565b6000818152600260205260409020600101805460609190610ba3906136d4565b6000821580610deb575060005483115b15610df857506000610c42565b600354600084815260016020526040908190209051634943916b60e11b81526001600160a01b039092169163928722d691610e3b916004918201918791016139a8565b6040805180830381865afa158015610e57573d6000803e3d6000fd5b505050506040513d601f19601f82011682018060405250810190610e7b9190613a0d565b602001519392505050565b600260205260009081526040902080548190610ea1906136d4565b80601f0160208091040260200160405190810160405280929190818152602001828054610ecd906136d4565b8015610f1a5780601f10610eef57610100808354040283529160200191610f1a565b820191906000526020600020905b815481529060010190602001808311610efd57829003601f168201915b505050505090806001018054610f2f906136d4565b80601f0160208091040260200160405190810160405280929190818152602001828054610f5b906136d4565b8015610fa85780601f10610f7d57610100808354040283529160200191610fa8565b820191906000526020600020905b815481529060010190602001808311610f8b57829003601f168201915b505050505090806002018054610fbd906136d4565b80601f0160208091040260200160405190810160405280929190818152602001828054610fe9906136d4565b80156110365780601f1061100b57610100808354040283529160200191611036565b820191906000526020600020905b81548152906001019060200180831161101957829003601f168201915b5050505050905083565b61080061104c816124eb565b6110588261200061251e565b5050565b63409feecd1980546003825580156110935760018160011c14303b1061108a5763f92ee8a96000526004601cfd5b818160ff1b1b91505b5061109d8461252a565b600380546001600160a01b038089166001600160a01b03199283161790925560048054928816929091169190911790556110d983610800612566565b6110e584612000612566565b600080526002602052817fac33ff75c19e70fe83507db0d683fd3465c996598dc972688b7ace676c89077b61111a828261386b565b50508015611151576002815560016020527fc7f505b2f371ae2175ee4913f4499e1f2633a7b5936321eed1cdaeb6115181d2602080a15b505050505050565b611163338261251e565b50565b60008781526001602090815260409182902082516080810184526004808301546001600160a01b0390811683526005909301546001600160701b0381169483019490945261ffff600160701b8504811683870152600160801b9094049093166060820152600354935163398baa2160e11b815290939091169163731754429134916111fd9130918e918e9133918f918b9101613a47565b6000604051808303818588803b15801561121657600080fd5b505af115801561122a573d6000803e3d6000fd5b505050505061123c8989898888612572565b611244612646565b886001600160a01b031688306001600160a01b03167f8dbb4a330d987fc63ba8cd2cc05a0e33d88ad0dd5c599b8b40bd9962a59efd60868660405161128a929190613aac565b60405180910390a4505050505050505050565b6108006112a981612665565b6112b38383612566565b505050565b60005b858110156113e3576000600160008989858181106112db576112db613ac0565b602090810292909201358352508101919091526040016000206003549091506001600160a01b0316637317544234308b8b8781811061131c5761131c613ac0565b905060200201358a8a8881811061133557611335613ac0565b90506020020135336000886004016040518863ffffffff1660e01b815260040161136496959493929190613ad6565b6000604051808303818588803b15801561137d57600080fd5b505af1158015611391573d6000803e3d6000fd5b5050505060038201546113b891506001600160401b0380821691600160401b90041661268b565b6113da818787858181106113ce576113ce613ac0565b905060200201356126f2565b506001016112bb565b506114868787878080602002602001604051908101604052809392919081815260200183836020028082843760009201919091525050604080516020808b0282810182019093528a82529093508a92508991829185019084908082843760009201919091525050604080516020601f8a01819004810282018101909252888152925088915087908190840183828082843760009201919091525061273092505050565b61148e612646565b50505050505050565b61149f612b90565b60408051608081018252600481528151808301835246808252306020808401919091528084019290925283518085018552908152600086815260018352849020546001600160a01b031681830152828401528251908101859052909160608301910160408051601f19818403018152919052905292915050565b60006202a3006001600160401b03164201905063389a75e1600c5233600052806020600c2055337fdbf36a107da19e49527a7176a1babf963b4b0ff8cde35ee35d6cd8f1f9ac7e1d600080a250565b600082815268aa4ec00224afccfdb76020526040812054606081901c9190612710908361159c576020515490508060601c93505b606084901b1884600019829004811182023d3d3e9396930204935090915050565b8285146115d257633b800a466000526004601cfd5b8760601b679a31110384e0b0c9178760601b679a31110384e0b0c917816020528160601c99508060601c9850886116115763ea553b346000526004601cfd5b89331461163457336000526034600c205461163457634b6e7f186000526004601cfd5b8660051b5b80156116a6576020810390508087013583602052818a013560005260406000208054808311156116715763f4d678b86000526004601cfd5b82900390556020839052604060002080548083018181101561169b576301336cea6000526004601cfd5b909155506116399050565b505050604051604081528560051b602001604082018160208a03823781604001602084015281602088038383013750888a337f4a39dc06d4c0dbc64b70af90fd698a233a518aa5d07e595d983b8c0526c8f7fb60408586010186a4505061170b600090565b1561172057611720888888888888888861284a565b863b156117cf578660005260405163bc197c81815233602082015288604082015260a060608201528560051b60200160c082018160208a0382378160a001806080850152826020890384840137820160a084015260208401601f19860183800183013750808101830160c401905060208282601c8501600080515af16117af573d156117af573d6000833e3d82fd5b50805163bc197c8160e01b146117cd57639c05499b6000526004601cfd5b505b5050505050505050565b6108006117e581612665565b6112b3838361251e565b606083821461180657633b800a466000526004601cfd5b6040519050818152602081018260051b8181016040525b801561185557602081039050808701358060601b679a31110384e0b0c91760205250808501356000526040600020548183015261181d565b5050949350505050565b63389a75e1600c523360005260006020600c2055337ffa7b8eab7da67f412cc9575ed43464468f9bfbae89d1675917346ca6d8fe3c92600080a2565b6118a361284f565b6118ad600061286a565b565b60006108006118bd81612665565b60008081546118cb90613b28565b9182905550600081815260026020526040902090925083906118ed828261386b565b50506040805160c0810182526001600160a01b03808d168252602082018c90526000828401526001600160401b03808c1660608401528a166080830152600354925163a308c4a160e01b8152919260a084019291169063a308c4a190611957908990600401613b66565b608060405180830381865afa158015611974573d6000803e3d6000fd5b505050506040513d601f19601f820116820180604052508101906119989190613bd4565b90526000838152600160208181526040808420855181546001600160a01b039182166001600160a01b0319918216178355878501519583019590955586830151600283015560608088015160038401805460808b01516001600160401b03908116600160401b026001600160801b0319928316919094161792909217905560a090980151805160048501805491909416971696909617909155928401516005909101805492850151949093015161ffff908116600160801b0261ffff60801b1991909516600160701b02929096166001600160701b0390911617179390931617909155611a8483611497565b905060005b86811015611b68576004546001600160a01b031663139fca60838a8a85818110611ab557611ab5613ac0565b9050602002810190611ac79190613c3b565b8b8b86818110611ad957611ad9613ac0565b9050602002810190611aeb9190613c3b565b611af99060a0810190613708565b6040518563ffffffff1660e01b8152600401611b189493929190613c90565b6000604051808303816000875af1158015611b37573d6000803e3d6000fd5b505050506040513d6000823e601f3d908101601f19168201604052611b5f9190810190613e83565b50600101611a89565b50604051839030907f75d8bbb53dec5b6d7411ee36844cd0d3ac6df0f84bd1d4c2f4480cdc4a4744cf90600090a3505098975050505050505050565b6000828152600160205260409020546001600160a01b03163314611bda576040516282b42960e81b815260040160405180910390fd5b60035460405163a308c4a160e01b81526001600160a01b039091169063a308c4a190611c0a908490600401613b66565b608060405180830381865afa158015611c27573d6000803e3d6000fd5b505050506040513d601f19601f82011682018060405250810190611c4b9190613bd4565b60009283526001602090815260409384902082516004820180546001600160a01b0319166001600160a01b039092169190911790559082015160059091018054948301516060909301516001600160701b039092166001600160801b031990951694909417600160701b61ffff938416021761ffff60801b1916600160801b92909116919091021790915550565b6000610c42826001610ddb565b6000610c52638b78c6d8195490565b600354600085815260016020526040808220905163398baa2160e11b81526001600160a01b03909316926373175442923492611d409230928b928b9233929160049081019101613ad6565b6000604051808303818588803b158015611d5957600080fd5b505af1158015611d6d573d6000803e3d6000fd5b505050505060005b85811015611db857611db0878783818110611d9257611d92613ac0565b9050602002016020810190611da79190612db2565b86868686612572565b600101611d75565b50611151612646565b60035460008681526001602052604090819020905163398baa2160e11b81526001600160a01b03909216916373175442913491611e0e9130918b918b9133918c9160049182019101613ad6565b6000604051808303818588803b158015611e2757600080fd5b505af1158015611e3b573d6000803e3d6000fd5b5050505050611e4d8686868585612572565b611151612646565b8015159050679a31110384e0b0c96020523360145281600052806034600c2055806000528160601b60601c337f17307eab39ab6107e8899845ad3d59bd9653f200f220920489ca2b5937696c3160206000a35050565b610800611eb781612665565b6000838152600160205260409020600501546112b39084908490600160801b900461ffff166128a8565b600081815260016020526040902080546001600160a01b03163314611f18576040516282b42960e81b815260040160405180910390fd5b80546001600160a01b0319166001600160a01b0384169081178255604051839030907f546752fd78938d620aa374626a8bae3bd6b3a8adaf0e3370aa094b66f67e5ffc90600090a4505050565b610800611f71816124eb565b61105882612000612566565b600083815260016020526040902080546001600160a01b03163314611fb4576040516282b42960e81b815260040160405180910390fd5b6003810180546001600160401b038581166001600160801b03199092168217600160401b91861691820217909255604080519182526020820192909252859130917faae76c64ae42a2c6ca16657e13284e2a344614e101b4a52836f37e487ae4126b910160405180910390a350505050565b61202e612b90565b604080516080810190915280600281526020016040518060400160405280468152602001306001600160a01b03168152508152602001604051806040016040528046815260200161207d611ce6565b6001600160a01b03169052815260408051602081810190925260008152910152919050565b6120c660405180606001604052806060815260200160608152602001606081525090565b600082815260026020526040908190208151606081019092528054829082906120ee906136d4565b80601f016020809104026020016040519081016040528092919081815260200182805461211a906136d4565b80156121675780601f1061213c57610100808354040283529160200191612167565b820191906000526020600020905b81548152906001019060200180831161214a57829003601f168201915b50505050508152602001600182018054612180906136d4565b80601f01602080910402602001604051908101604052809291908181526020018280546121ac906136d4565b80156121f95780601f106121ce576101008083540402835291602001916121f9565b820191906000526020600020905b8154815290600101906020018083116121dc57829003601f168201915b50505050508152602001600282018054612212906136d4565b80601f016020809104026020016040519081016040528092919081815260200182805461223e906136d4565b801561228b5780601f106122605761010080835404028352916020019161228b565b820191906000526020600020905b81548152906001019060200180831161226e57829003601f168201915b5050505050815250509050919050565b6000805260026020527fac33ff75c19e70fe83507db0d683fd3465c996598dc972688b7ace676c89077c805460609190610c90906136d4565b6122dc61284f565b63389a75e1600c52806000526020600c20805442111561230457636f5e88186000526004601cfd5b600090556111638161286a565b8560601b679a31110384e0b0c9178560601b679a31110384e0b0c917816020528160601c97508060601c9650866123505763ea553b346000526004601cfd5b87331461237357336000526034600c205461237357634b6e7f186000526004601cfd5b85600052604060002091508154808611156123965763f4d678b86000526004601cfd5b85810383555080602052604060002091508154858101818110156123c2576301336cea6000526004601cfd5b909255505060208390528486337fc3d58168c5ae7397731d063d5bbf3d657854427343f4c083240f7aacaa2d0f6260406000a4843b156111515760405163f23a6e61815233602082015286604082015284606082015283608082015260a080820152816020016020840360c08301376020818360c401601c840160008a5af1612454573d15612454573d6000823e3d81fd5b805163f23a6e6160e01b1461148e57639c05499b6000526004601cfd5b61247961284f565b8060601b61248f57637448fbae6000526004601cfd5b6111638161286a565b6118006124a481612907565b60005b8581101561148e576124e38787838181106124c4576124c4613ac0565b90506020020160208101906124d99190612db2565b8660018787612572565b6001016124a7565b638b78c6d8600c5233600052806020600c20541661116357638b78c6d819543314611163576382b429006000526004601cfd5b6110588282600061293a565b6001600160a01b0316638b78c6d8198190558060007f8be0079c531659141344cd1fd0a4f28419497f9722a3daafe3b4186f6b6457e08180a350565b6110588282600161293a565b600084815260016020526040902060038101546125a2906001600160401b0380821691600160401b90041661268b565b6125ac81856126f2565b6125ee86868686868080601f01602080910402602001604051908101604052809392919081815260200183838082843760009201919091525061299392505050565b856001600160a01b031685306001600160a01b03167f551d74261d03633041c121c69bd68e77805b9d7e5959a8f11e18443ba3711b9f87878760405161263693929190613f4a565b60405180910390a4505050505050565b6000341180156126565750600047115b156118ad576118ad3347612a2b565b638b78c6d8600c5233600052806020600c205416611163576382b429006000526004601cfd5b816001600160401b03164210806126bd57506001600160401b038116158015906126bd5750806001600160401b031642115b1561105857604051636447645760e11b81526001600160401b0380841660048301528216602482015260440160405180910390fd5b81600101548183600201600082825461270b9190613f64565b92505081905511156110585760405163d05cb60960e01b815260040160405180910390fd5b815183511461274757633b800a466000526004601cfd5b8360601b8061275e5763ea553b346000526004601cfd5b80679a31110384e0b0c917602052835160051b5b80156127b157808401518186015160005260406000208054828101818110156127a3576301336cea6000526004601cfd5b9091555050601f1901612772565b5060405160408152845160051b602001604082018181838960045afa503d60400160208401523d81019050855160051b60200191508181838860045afa50823d8201039150508260601c6000337f4a39dc06d4c0dbc64b70af90fd698a233a518aa5d07e595d983b8c0526c8f7fb8486a450505061282d600090565b50833b15610db557610db5600085858585612a47565b5050505050565b6117cf565b638b78c6d8195433146118ad576382b429006000526004601cfd5b638b78c6d81980546001600160a01b039092169182907f8be0079c531659141344cd1fd0a4f28419497f9722a3daafe3b4186f6b6457e0600080a355565b6bffffffffffffffffffffffff16612710808211156128cf5763350a88b36000526004601cfd5b8260601b806128e65763b4457eaa6000526004601cfd5b8460005268aa4ec00224afccfdb76020528281176040600020555050505050565b638b78c6d81954331461116357638b78c6d8600c5233600052806020600c205416611163576382b429006000526004601cfd5b638b78c6d8600c52826000526020600c2080548381178361295c575080841681185b80835580600c5160601c7f715ad5ce61fc9595c7b415289d59cf203f23a94fa06f04af7e489a0a76e1fe26600080a3505050505050565b8360601b806129aa5763ea553b346000526004601cfd5b679a31110384e0b0c9602052846014528360005260406000208054848101818110156129de576301336cea6000526004601cfd5b808355505050826020528060601c6000337fc3d58168c5ae7397731d063d5bbf3d657854427343f4c083240f7aacaa2d0f6260406000a450833b15610db557610db5600085858585612b03565b60003860003884865af16110585763b12d13eb6000526004601cfd5b60405163bc197c8181523360208201528560601b60601c604082015260a06060820152835160051b60200160c082018181838860045afa503d60a0018060808501523d82019150855160051b60200192508282848860045afa503d0160a0840152835160200191503d018181818660045afa50601c83013d82010391505060208282601c850160008a5af1612ae5573d15612ae5573d6000833e3d82fd5b50805163bc197c8160e01b1461115157639c05499b6000526004601cfd5b60405163f23a6e6181523360208201528560601b60601c604082015283606082015282608082015260a08082015281518060c08301528015612b4f578060e08301826020860160045afa505b6020828260c401601c850160008a5af1612b72573d15612b72573d6000833e3d82fd5b50805163f23a6e6160e01b1461115157639c05499b6000526004601cfd5b60408051608081019091528060008152602001612bc960405180604001604052806000815260200160006001600160a01b031681525090565b8152602001612bf460405180604001604052806000815260200160006001600160a01b031681525090565b8152602001606081525090565b600060208284031215612c1357600080fd5b5035919050565b60005b83811015612c35578181015183820152602001612c1d565b50506000910152565b60008151808452612c56816020860160208601612c1a565b601f01601f19169290920160200192915050565b602081526000612c7d6020830184612c3e565b9392505050565b6001600160a01b038116811461116357600080fd5b60008060408385031215612cac57600080fd5b8235612cb781612c84565b946020939093013593505050565b600060208284031215612cd757600080fd5b81356001600160e01b031981168114612c7d57600080fd5b600060608284031215612d0157600080fd5b50919050565b60008060408385031215612d1a57600080fd5b8235915060208301356001600160401b03811115612d3757600080fd5b612d4385828601612cef565b9150509250929050565b60008060408385031215612d6057600080fd5b50508035926020909101359150565b606081526000612d826060830186612c3e565b8281036020840152612d948186612c3e565b90508281036040840152612da88185612c3e565b9695505050505050565b600060208284031215612dc457600080fd5b8135612c7d81612c84565b600080600080600060a08688031215612de757600080fd5b8535612df281612c84565b94506020860135612e0281612c84565b93506040860135612e1281612c84565b92506060860135612e2281612c84565b915060808601356001600160401b03811115612e3d57600080fd5b612e4988828901612cef565b9150509295509295909350565b60008083601f840112612e6857600080fd5b5081356001600160401b03811115612e7f57600080fd5b602083019150836020828501011115612e9757600080fd5b9250929050565b60008060008060008060008060c0898b031215612eba57600080fd5b8835612ec581612c84565b975060208901359650604089013595506060890135612ee381612c84565b945060808901356001600160401b0380821115612eff57600080fd5b612f0b8c838d01612e56565b909650945060a08b0135915080821115612f2457600080fd5b50612f318b828c01612e56565b999c989b5096995094979396929594505050565b60008083601f840112612f5757600080fd5b5081356001600160401b03811115612f6e57600080fd5b6020830191508360208260051b8501011115612e9757600080fd5b60008060008060008060006080888a031215612fa457600080fd5b8735612faf81612c84565b965060208801356001600160401b0380821115612fcb57600080fd5b612fd78b838c01612f45565b909850965060408a0135915080821115612ff057600080fd5b612ffc8b838c01612f45565b909650945060608a013591508082111561301557600080fd5b506130228a828b01612e56565b989b979a50959850939692959293505050565b6006811061305357634e487b7160e01b600052602160045260246000fd5b9052565b613062828251613035565b600060208201516130896020850182805182526020908101516001600160a01b0316910152565b5060408201518051606085015260208101516001600160a01b0316608085015250606082015160c060a08501526130c360c0850182612c3e565b949350505050565b602081526000612c7d6020830184613057565b60008060008060008060008060a0898b0312156130fa57600080fd5b883561310581612c84565b9750602089013561311581612c84565b965060408901356001600160401b038082111561313157600080fd5b61313d8c838d01612f45565b909850965060608b013591508082111561315657600080fd5b6131628c838d01612f45565b909650945060808b0135915080821115612f2457600080fd5b6000806000806040858703121561319157600080fd5b84356001600160401b03808211156131a857600080fd5b6131b488838901612f45565b909650945060208701359150808211156131cd57600080fd5b506131da87828801612f45565b95989497509550505050565b6020808252825182820181905260009190848201906040850190845b8181101561321e57835183529284019291840191600101613202565b50909695505050505050565b80356001600160401b038116811461324157600080fd5b919050565b600060808284031215612d0157600080fd5b600080600080600080600080610140898b03121561327557600080fd5b883561328081612c84565b97506020890135965061329560408a0161322a565b95506132a360608a0161322a565b945060808901356001600160401b03808211156132bf57600080fd5b6132cb8c838d01612f45565b90965094508491506132e08c60a08d01613246565b93506101208b01359150808211156132f757600080fd5b506133048b828c01612cef565b9150509295985092959890939650565b60008060a0838503121561332757600080fd5b823591506133388460208501613246565b90509250929050565b6000806000806000806080878903121561335a57600080fd5b86356001600160401b038082111561337157600080fd5b61337d8a838b01612f45565b9098509650602089013595506040890135945060608901359150808211156133a457600080fd5b506133b189828a01612e56565b979a9699509497509295939492505050565b60008060008060008060a087890312156133dc57600080fd5b86356133e781612c84565b95506020870135945060408701359350606087013561340581612c84565b925060808701356001600160401b0381111561342057600080fd5b6133b189828a01612e56565b801515811461116357600080fd5b6000806040838503121561344d57600080fd5b823561345881612c84565b915060208301356134688161342c565b809150509250929050565b6000806040838503121561348657600080fd5b82359150602083013561346881612c84565b80516001600160a01b031682526020808201516001600160701b03169083015260408082015161ffff9081169184019190915260609182015116910152565b6001600160a01b038716815260208101869052604081018590526001600160401b03848116606083015283166080820152610120810161351a60a0830184613498565b979650505050505050565b60008060006060848603121561353a57600080fd5b8335925061354a6020850161322a565b91506135586040850161322a565b90509250925092565b60208152600082516060602084015261357d6080840182612c3e565b90506020840151601f198085840301604086015261359b8383612c3e565b92506040860151915080858403016060860152506135b98282612c3e565b95945050505050565b600080604083850312156135d557600080fd5b82356135e081612c84565b9150602083013561346881612c84565b60008060008060008060a0878903121561360957600080fd5b863561361481612c84565b9550602087013561362481612c84565b9450604087013593506060870135925060808701356001600160401b0381111561342057600080fd5b60808101610c428284613498565b60008060008060006060868803121561367357600080fd5b85356001600160401b038082111561368a57600080fd5b61369689838a01612f45565b90975095506020880135945060408801359150808211156136b657600080fd5b506136c388828901612e56565b969995985093965092949392505050565b600181811c908216806136e857607f821691505b602082108103612d0157634e487b7160e01b600052602260045260246000fd5b6000808335601e1984360301811261371f57600080fd5b8301803591506001600160401b0382111561373957600080fd5b602001915036819003821315612e9757600080fd5b634e487b7160e01b600052604160045260246000fd5b601f8211156112b3576000816000526020600020601f850160051c8101602086101561378d5750805b601f850160051c820191505b8181101561115157828155600101613799565b6001600160401b038311156137c3576137c361374e565b6137d7836137d183546136d4565b83613764565b6000601f84116001811461380b57600085156137f35750838201355b600019600387901b1c1916600186901b178355612843565b600083815260209020601f19861690835b8281101561383c578685013582556020948501946001909201910161381c565b50868210156138595760001960f88860031b161c19848701351681555b505060018560011b0183555050505050565b6138758283613708565b6001600160401b0381111561388c5761388c61374e565b6138a08161389a85546136d4565b85613764565b6000601f8211600181146138d457600083156138bc5750838201355b600019600385901b1c1916600184901b17855561392e565b600085815260209020601f19841690835b8281101561390557868501358255602094850194600190920191016138e5565b50848210156139225760001960f88660031b161c19848701351681555b505060018360011b0185555b5050505061393f6020830183613708565b61394d8183600186016137ac565b505061395c6040830183613708565b610db58183600286016137ac565b80546001600160a01b03168252600101546001600160701b038116602083015261ffff607082901c8116604084015260809190911c16606090910152565b60a081016139b6828561396a565b8260808301529392505050565b604080519081016001600160401b03811182821017156139e5576139e561374e565b60405290565b604051608081016001600160401b03811182821017156139e5576139e561374e565b600060408284031215613a1f57600080fd5b613a276139c3565b8251613a3281612c84565b81526020928301519281019290925250919050565b6001600160a01b0387811682526020820187905260408201869052848116606083015283166080820152610120810161351a60a0830184613498565b81835281816020850137506000828201602090810191909152601f909101601f19169091010190565b6020815260006130c3602083018486613a83565b634e487b7160e01b600052603260045260246000fd5b6001600160a01b0387811682526020820187905260408201869052848116606083015283166080820152610120810161351a60a083018461396a565b634e487b7160e01b600052601160045260246000fd5b600060018201613b3a57613b3a613b12565b5060010190565b6001600160701b038116811461116357600080fd5b61ffff8116811461116357600080fd5b608081018235613b7581612c84565b6001600160a01b031682526020830135613b8e81613b41565b6001600160701b031660208301526040830135613baa81613b56565b61ffff9081166040840152606084013590613bc482613b56565b8082166060850152505092915050565b600060808284031215613be657600080fd5b613bee6139eb565b8251613bf981612c84565b81526020830151613c0981613b41565b60208201526040830151613c1c81613b56565b60408201526060830151613c2f81613b56565b60608201529392505050565b6000823560be19833603018112613c5157600080fd5b9190910192915050565b6006811061116357600080fd5b803582526020810135613c7a81612c84565b6001600160a01b03166020929092019190915250565b606081526000613ca36060830187613057565b82810360208401528535613cb681613c5b565b613cc08282613035565b50613cd16020820160208801613c68565b613ce16060820160608801613c68565b60a0860135601e19873603018112613cf857600080fd5b86016020810190356001600160401b03811115613d1457600080fd5b803603821315613d2357600080fd5b60c060a0840152613d3860c084018284613a83565b92505050828103604084015261351a818587613a83565b600060408284031215613d6157600080fd5b613d696139c3565b9050815181526020820151613d7d81612c84565b602082015292915050565b600082601f830112613d9957600080fd5b81516001600160401b0380821115613db357613db361374e565b604051601f8301601f19908116603f01168101908282118183101715613ddb57613ddb61374e565b81604052838152866020858801011115613df457600080fd5b612da8846020830160208901612c1a565b600060c08284031215613e1757600080fd5b613e1f6139eb565b90508151613e2c81613c5b565b8152613e3b8360208401613d4f565b6020820152613e4d8360608401613d4f565b604082015260a08201516001600160401b03811115613e6b57600080fd5b613e7784828501613d88565b60608301525092915050565b600060208284031215613e9557600080fd5b81516001600160401b0380821115613eac57600080fd5b9083019060808286031215613ec057600080fd5b613ec86139eb565b825182811115613ed757600080fd5b613ee387828601613e05565b825250602083015182811115613ef857600080fd5b613f0487828601613e05565b6020830152506040830151613f188161342c565b6040820152606083015182811115613f2f57600080fd5b613f3b87828601613d88565b60608301525095945050505050565b8381526040602082015260006135b9604083018486613a83565b80820180821115610c4257610c42613b1256fea264697066735822122094bd2fc11272930ac44bf9fc9e6123f0319cc98ee7eadd2e25cfe4f051859f3464736f6c63430008190033","linkReferences":{}},"methodIdentifiers":{"cancelOwnershipHandover()":"54d1f13d","completeOwnershipHandover(address)":"f04e283e","createEdition(bytes,address)":"63444c1b","editionImplementation()":"9e19e733","feeManager()":"d0fb0203","grantRoles(address,uint256)":"1c10893f","graph()":"bf20f502","hasAllRoles(address,uint256)":"1cd64df4","hasAnyRole(address,uint256)":"514e62fc","initialize(address,address)":"485cc955","owner()":"8da5cb5b","ownershipHandoverExpiresAt(address)":"fee81cf4","proxiableUUID()":"52d1902d","publish(address,bytes,address)":"439db131","renounceOwnership()":"715018a6","renounceRoles(uint256)":"183a4f6e","requestOwnershipHandover()":"25692962","revokeRoles(address,uint256)":"4a4ee7b1","rolesOf(address)":"2de94807","setEditionImplementation(address)":"71537cdd","transferOwnership(address)":"f2fde38b","upgradeToAndCall(address,bytes)":"4f1ef286"},"id":49}