{"abi":[{"type":"constructor","inputs":[{"name":"admin_","type":"address","internalType":"address"},{"name":"protocolFeeReceiver_","type":"address","internalType":"address"},{"name":"splitFactory_","type":"address","internalType":"address"}],"stateMutability":"nonpayable"},{"type":"receive","stateMutability":"payable"},{"type":"function","name":"MAX_BPS","inputs":[],"outputs":[{"name":"","type":"uint16","internalType":"uint16"}],"stateMutability":"view"},{"type":"function","name":"MAX_PROTOCOL_FEE","inputs":[],"outputs":[{"name":"","type":"uint64","internalType":"uint64"}],"stateMutability":"view"},{"type":"function","name":"MAX_PROTOCOL_FEE_BPS","inputs":[],"outputs":[{"name":"","type":"uint16","internalType":"uint16"}],"stateMutability":"view"},{"type":"function","name":"MAX_ROYALTY_BPS","inputs":[],"outputs":[{"name":"","type":"uint16","internalType":"uint16"}],"stateMutability":"view"},{"type":"function","name":"MIN_ROYALTY_BPS","inputs":[],"outputs":[{"name":"","type":"uint16","internalType":"uint16"}],"stateMutability":"view"},{"type":"function","name":"cancelOwnershipHandover","inputs":[],"outputs":[],"stateMutability":"payable"},{"type":"function","name":"collectCreationFee","inputs":[{"name":"edition_","type":"address","internalType":"contract IEdition"},{"name":"tokenId_","type":"uint256","internalType":"uint256"},{"name":"feePayer_","type":"address","internalType":"address"}],"outputs":[],"stateMutability":"payable"},{"type":"function","name":"collectMintFee","inputs":[{"name":"edition","type":"address","internalType":"contract IEdition"},{"name":"tokenId_","type":"uint256","internalType":"uint256"},{"name":"amount_","type":"uint256","internalType":"uint256"},{"name":"payer_","type":"address","internalType":"address"},{"name":"referrer_","type":"address","internalType":"address"},{"name":"strategy_","type":"tuple","internalType":"struct Strategy","components":[{"name":"asset","type":"address","internalType":"address"},{"name":"mintFee","type":"uint112","internalType":"uint112"},{"name":"revshareBps","type":"uint16","internalType":"uint16"},{"name":"royaltyBps","type":"uint16","internalType":"uint16"}]}],"outputs":[],"stateMutability":"payable"},{"type":"function","name":"collectMintFee","inputs":[{"name":"edition_","type":"address","internalType":"contract IEdition"},{"name":"tokenId_","type":"uint256","internalType":"uint256"},{"name":"amount_","type":"uint256","internalType":"uint256"},{"name":"payer_","type":"address","internalType":"address"},{"name":"referrer_","type":"address","internalType":"address"}],"outputs":[],"stateMutability":"payable"},{"type":"function","name":"collectionReferrerRevshareBps","inputs":[],"outputs":[{"name":"","type":"uint16","internalType":"uint16"}],"stateMutability":"view"},{"type":"function","name":"completeOwnershipHandover","inputs":[{"name":"pendingOwner","type":"address","internalType":"address"}],"outputs":[],"stateMutability":"payable"},{"type":"function","name":"createRoute","inputs":[{"name":"edition_","type":"address","internalType":"contract IEdition"},{"name":"tokenId_","type":"uint256","internalType":"uint256"},{"name":"attributions_","type":"tuple[]","internalType":"struct Target[]","components":[{"name":"chainId","type":"uint256","internalType":"uint256"},{"name":"target","type":"address","internalType":"address"}]},{"name":"referrer_","type":"address","internalType":"address"}],"outputs":[{"name":"receiver","type":"tuple","internalType":"struct Target","components":[{"name":"chainId","type":"uint256","internalType":"uint256"},{"name":"target","type":"address","internalType":"address"}]}],"stateMutability":"nonpayable"},{"type":"function","name":"feeReceiver","inputs":[{"name":"edition_","type":"address","internalType":"contract IEdition"},{"name":"tokenId_","type":"uint256","internalType":"uint256"}],"outputs":[{"name":"","type":"tuple","internalType":"struct Target","components":[{"name":"chainId","type":"uint256","internalType":"uint256"},{"name":"target","type":"address","internalType":"address"}]}],"stateMutability":"view"},{"type":"function","name":"getCollectionReferrerShare","inputs":[{"name":"protocolFee_","type":"uint256","internalType":"uint256"},{"name":"referrer_","type":"address","internalType":"address"}],"outputs":[{"name":"","type":"uint256","internalType":"uint256"}],"stateMutability":"view"},{"type":"function","name":"getCreationFee","inputs":[],"outputs":[{"name":"fee","type":"tuple","internalType":"struct Fee","components":[{"name":"asset","type":"address","internalType":"address"},{"name":"amount","type":"uint256","internalType":"uint256"}]}],"stateMutability":"view"},{"type":"function","name":"getMintFee","inputs":[{"name":"strategy_","type":"tuple","internalType":"struct Strategy","components":[{"name":"asset","type":"address","internalType":"address"},{"name":"mintFee","type":"uint112","internalType":"uint112"},{"name":"revshareBps","type":"uint16","internalType":"uint16"},{"name":"royaltyBps","type":"uint16","internalType":"uint16"}]},{"name":"quantity_","type":"uint256","internalType":"uint256"}],"outputs":[{"name":"fee","type":"tuple","internalType":"struct Fee","components":[{"name":"asset","type":"address","internalType":"address"},{"name":"amount","type":"uint256","internalType":"uint256"}]}],"stateMutability":"view"},{"type":"function","name":"getMintFee","inputs":[{"name":"edition_","type":"address","internalType":"contract IEdition"},{"name":"tokenId_","type":"uint256","internalType":"uint256"},{"name":"quantity_","type":"uint256","internalType":"uint256"}],"outputs":[{"name":"fee","type":"tuple","internalType":"struct Fee","components":[{"name":"asset","type":"address","internalType":"address"},{"name":"amount","type":"uint256","internalType":"uint256"}]}],"stateMutability":"view"},{"type":"function","name":"getMintReferrerShare","inputs":[{"name":"protocolFee_","type":"uint256","internalType":"uint256"},{"name":"referrer_","type":"address","internalType":"address"}],"outputs":[{"name":"","type":"uint256","internalType":"uint256"}],"stateMutability":"view"},{"type":"function","name":"getRouteId","inputs":[{"name":"edition_","type":"address","internalType":"contract IEdition"},{"name":"tokenId_","type":"uint256","internalType":"uint256"}],"outputs":[{"name":"id","type":"bytes32","internalType":"bytes32"}],"stateMutability":"pure"},{"type":"function","name":"grantRoles","inputs":[{"name":"user","type":"address","internalType":"address"},{"name":"roles","type":"uint256","internalType":"uint256"}],"outputs":[],"stateMutability":"payable"},{"type":"function","name":"hasAllRoles","inputs":[{"name":"user","type":"address","internalType":"address"},{"name":"roles","type":"uint256","internalType":"uint256"}],"outputs":[{"name":"","type":"bool","internalType":"bool"}],"stateMutability":"view"},{"type":"function","name":"hasAnyRole","inputs":[{"name":"user","type":"address","internalType":"address"},{"name":"roles","type":"uint256","internalType":"uint256"}],"outputs":[{"name":"","type":"bool","internalType":"bool"}],"stateMutability":"view"},{"type":"function","name":"mintReferrerRevshareBps","inputs":[],"outputs":[{"name":"","type":"uint16","internalType":"uint16"}],"stateMutability":"view"},{"type":"function","name":"owner","inputs":[],"outputs":[{"name":"result","type":"address","internalType":"address"}],"stateMutability":"view"},{"type":"function","name":"ownershipHandoverExpiresAt","inputs":[{"name":"pendingOwner","type":"address","internalType":"address"}],"outputs":[{"name":"result","type":"uint256","internalType":"uint256"}],"stateMutability":"view"},{"type":"function","name":"protocolCreationFee","inputs":[],"outputs":[{"name":"","type":"uint128","internalType":"uint128"}],"stateMutability":"view"},{"type":"function","name":"protocolFeeReceiver","inputs":[],"outputs":[{"name":"","type":"address","internalType":"address"}],"stateMutability":"view"},{"type":"function","name":"protocolFeeshareBps","inputs":[],"outputs":[{"name":"","type":"uint32","internalType":"uint32"}],"stateMutability":"view"},{"type":"function","name":"protocolFlatFee","inputs":[],"outputs":[{"name":"","type":"uint128","internalType":"uint128"}],"stateMutability":"view"},{"type":"function","name":"referrers","inputs":[{"name":"edition","type":"address","internalType":"contract IEdition"}],"outputs":[{"name":"referrer","type":"address","internalType":"address"}],"stateMutability":"view"},{"type":"function","name":"renounceOwnership","inputs":[],"outputs":[],"stateMutability":"payable"},{"type":"function","name":"renounceRoles","inputs":[{"name":"roles","type":"uint256","internalType":"uint256"}],"outputs":[],"stateMutability":"payable"},{"type":"function","name":"requestOwnershipHandover","inputs":[],"outputs":[],"stateMutability":"payable"},{"type":"function","name":"revokeRoles","inputs":[{"name":"user","type":"address","internalType":"address"},{"name":"roles","type":"uint256","internalType":"uint256"}],"outputs":[],"stateMutability":"payable"},{"type":"function","name":"rolesOf","inputs":[{"name":"user","type":"address","internalType":"address"}],"outputs":[{"name":"roles","type":"uint256","internalType":"uint256"}],"stateMutability":"view"},{"type":"function","name":"setProtocolFees","inputs":[{"name":"protocolCreationFee_","type":"uint64","internalType":"uint64"},{"name":"protocolFlatFee_","type":"uint64","internalType":"uint64"},{"name":"protocolFeeShareBps_","type":"uint16","internalType":"uint16"},{"name":"mintReferrerRevshareBps_","type":"uint16","internalType":"uint16"},{"name":"collectionReferrerRevshareBps_","type":"uint16","internalType":"uint16"}],"outputs":[],"stateMutability":"nonpayable"},{"type":"function","name":"splitFactory","inputs":[],"outputs":[{"name":"","type":"address","internalType":"contract SplitFactoryV2"}],"stateMutability":"view"},{"type":"function","name":"transferOwnership","inputs":[{"name":"newOwner","type":"address","internalType":"address"}],"outputs":[],"stateMutability":"payable"},{"type":"function","name":"validateStrategy","inputs":[{"name":"strategy_","type":"tuple","internalType":"struct Strategy","components":[{"name":"asset","type":"address","internalType":"address"},{"name":"mintFee","type":"uint112","internalType":"uint112"},{"name":"revshareBps","type":"uint16","internalType":"uint16"},{"name":"royaltyBps","type":"uint16","internalType":"uint16"}]}],"outputs":[{"name":"strategy","type":"tuple","internalType":"struct Strategy","components":[{"name":"asset","type":"address","internalType":"address"},{"name":"mintFee","type":"uint112","internalType":"uint112"},{"name":"revshareBps","type":"uint16","internalType":"uint16"},{"name":"royaltyBps","type":"uint16","internalType":"uint16"}]}],"stateMutability":"pure"},{"type":"function","name":"withdraw","inputs":[{"name":"asset_","type":"address","internalType":"address"},{"name":"amount_","type":"uint256","internalType":"uint256"},{"name":"to_","type":"address","internalType":"address"}],"outputs":[],"stateMutability":"nonpayable"},{"type":"event","name":"FeeCollected","inputs":[{"name":"edition","type":"address","indexed":true,"internalType":"address"},{"name":"work","type":"uint256","indexed":false,"internalType":"uint256"},{"name":"asset","type":"address","indexed":false,"internalType":"address"},{"name":"fee","type":"uint256","indexed":false,"internalType":"uint256"},{"name":"referrerShare","type":"uint256","indexed":false,"internalType":"uint256"}],"anonymous":false},{"type":"event","name":"OwnershipHandoverCanceled","inputs":[{"name":"pendingOwner","type":"address","indexed":true,"internalType":"address"}],"anonymous":false},{"type":"event","name":"OwnershipHandoverRequested","inputs":[{"name":"pendingOwner","type":"address","indexed":true,"internalType":"address"}],"anonymous":false},{"type":"event","name":"OwnershipTransferred","inputs":[{"name":"oldOwner","type":"address","indexed":true,"internalType":"address"},{"name":"newOwner","type":"address","indexed":true,"internalType":"address"}],"anonymous":false},{"type":"event","name":"ProtocolFeesChanged","inputs":[{"name":"protocolFeeBps","type":"uint16","indexed":false,"internalType":"uint16"},{"name":"protocolFlatFee","type":"uint128","indexed":false,"internalType":"uint128"},{"name":"mintReferrerRevshareBps","type":"uint16","indexed":false,"internalType":"uint16"}],"anonymous":false},{"type":"event","name":"RolesUpdated","inputs":[{"name":"user","type":"address","indexed":true,"internalType":"address"},{"name":"roles","type":"uint256","indexed":true,"internalType":"uint256"}],"anonymous":false},{"type":"error","name":"AlreadyInitialized","inputs":[]},{"type":"error","name":"InvalidFee","inputs":[]},{"type":"error","name":"NewOwnerIsZeroAddress","inputs":[]},{"type":"error","name":"NoHandoverRequest","inputs":[]},{"type":"error","name":"NotRoutable","inputs":[]},{"type":"error","name":"Unauthorized","inputs":[]}],"bytecode":{"object":"0x6080604052760221b262dd8000000000000000000000005af3107a4000600055600180546001600160401b0319166709c4138800000d0517905534801561004557600080fd5b506040516123e83803806123e88339810160408190526100649161017e565b61006d336100bd565b6100788360016100f9565b60018054600160401b600160e01b031916680100000000000000006001600160a01b0394851602179055600280546001600160a01b03191691909216179055506101c1565b6001600160a01b0316638b78c6d8198190558060007f8be0079c531659141344cd1fd0a4f28419497f9722a3daafe3b4186f6b6457e08180a350565b61010582826001610109565b5050565b638b78c6d8600c52826000526020600c2080548381178361012b575080841681185b80835580600c5160601c7f715ad5ce61fc9595c7b415289d59cf203f23a94fa06f04af7e489a0a76e1fe26600080a3505050505050565b80516001600160a01b038116811461017957600080fd5b919050565b60008060006060848603121561019357600080fd5b61019c84610162565b92506101aa60208501610162565b91506101b860408501610162565b90509250925092565b612218806101d06000396000f3fe60806040526004361061023f5760003560e01c80636d947e4b1161012e578063b8ca3b83116100ab578063f83496171161006f578063f83496171461075b578063f88ad3b614610770578063fa62d57f14610790578063fd967f47146107b7578063fee81cf4146107cd57600080fd5b8063b8ca3b83146106cc578063d447f64d14610700578063db07b68e14610720578063f04e283e14610735578063f2fde38b1461074857600080fd5b80638f820e67116100f25780638f820e67146105b6578063928722d6146105c9578063a308c4a11461060d578063b005b8b61461067a578063b7892244146106ac57600080fd5b80636d947e4b14610549578063715018a61461055f57806373175442146105675780638439ac661461057a5780638da5cb5b1461059d57600080fd5b80633dca40e6116101bc5780635720babb116101805780635720babb1461049e5780635ca50936146104be57806361c97801146104f65780636306cc131461051657806369328dec1461052957600080fd5b80633dca40e6146104005780634a3b68cc146104165780634a4ee7b11461044c578063514e62fc1461045f57806354d1f13d1461049657600080fd5b80631cd64df4116102035780631cd64df4146102fc57806325692962146103435780632de948071461034b57806339a51be51461038c5780633a243d24146103cb57600080fd5b80630602a0591461024b5780631705ddd01461026d578063183a4f6e146102b65780631a2148c6146102c95780631c10893f146102e957600080fd5b3661024657005b600080fd5b34801561025757600080fd5b5061026b6102663660046118b4565b610800565b005b34801561027957600080fd5b5061028d610288366004611936565b6108e2565b60408051825181526020928301516001600160a01b031692810192909252015b60405180910390f35b61026b6102c4366004611962565b610940565b3480156102d557600080fd5b5061028d6102e436600461197b565b61094d565b61026b6102f7366004611936565b610bfd565b34801561030857600080fd5b50610333610317366004611936565b638b78c6d8600c90815260009290925260209091205481161490565b60405190151581526020016102ad565b61026b610c13565b34801561035757600080fd5b5061037e610366366004611a13565b638b78c6d8600c908152600091909152602090205490565b6040519081526020016102ad565b34801561039857600080fd5b506001546103b390600160401b90046001600160a01b031681565b6040516001600160a01b0390911681526020016102ad565b3480156103d757600080fd5b506001546103ed90600160301b900461ffff1681565b60405161ffff90911681526020016102ad565b34801561040c57600080fd5b506103ed61251c81565b34801561042257600080fd5b506103b3610431366004611a13565b6003602052600090815260409020546001600160a01b031681565b61026b61045a366004611936565b610c62565b34801561046b57600080fd5b5061033361047a366004611936565b638b78c6d8600c90815260009290925260209091205416151590565b61026b610c74565b3480156104aa57600080fd5b506002546103b3906001600160a01b031681565b3480156104ca57600080fd5b506000546104de906001600160801b031681565b6040516001600160801b0390911681526020016102ad565b34801561050257600080fd5b5061037e610511366004611a30565b610cb0565b61026b610524366004611a60565b610cf6565b34801561053557600080fd5b5061026b610544366004611a60565b610db6565b34801561055557600080fd5b506103ed610d0581565b61026b610dd3565b61026b610575366004611aba565b610de7565b34801561058657600080fd5b506001546103ed90640100000000900461ffff1681565b3480156105a957600080fd5b50638b78c6d819546103b3565b61026b6105c4366004611b28565b610e14565b3480156105d557600080fd5b506105e96105e4366004611c86565b610e2e565b6040805182516001600160a01b0316815260209283015192810192909252016102ad565b34801561061957600080fd5b5061062d610628366004611cb1565b610eba565b6040805182516001600160a01b031681526020808401516001600160701b0316908201528282015161ffff90811692820192909252606092830151909116918101919091526080016102ad565b34801561068657600080fd5b506001546106979063ffffffff1681565b60405163ffffffff90911681526020016102ad565b3480156106b857600080fd5b5061037e6106c7366004611a30565b61100b565b3480156106d857600080fd5b506106e867016345785d8a000081565b6040516001600160401b0390911681526020016102ad565b34801561070c57600080fd5b5061037e61071b366004611936565b61103f565b34801561072c57600080fd5b506105e9611086565b61026b610743366004611a13565b6110cc565b61026b610756366004611a13565b611109565b34801561076757600080fd5b506103ed60fa81565b34801561077c57600080fd5b506105e961078b366004611ccd565b611130565b34801561079c57600080fd5b506000546104de90600160801b90046001600160801b031681565b3480156107c357600080fd5b506103ed61271081565b3480156107d957600080fd5b5061037e6107e8366004611a13565b63389a75e1600c908152600091909152602090205490565b600161080b816111bf565b67016345785d8a00006001600160401b038716118061083a575067016345785d8a00006001600160401b038616115b8061084a5750610d0561ffff8516115b80610863575061271061085d8385611d18565b61ffff16115b15610881576040516358d620b360e01b815260040160405180910390fd5b50600160801b6001600160401b039485160293909416929092176000556001805461ffff948516600160301b0267ffff000000000000199486166401000000000265ffffffffffff1990921695909316949094179390931791909116179055565b604080518082019091526000808252602082015260046000610904858561103f565b81526020808201929092526040908101600020815180830190925280548252600101546001600160a01b03169181019190915290505b92915050565b61094a33826111f2565b50565b6040805180820190915260008082526020820152600161096c816111bf565b60405163220e44d560e01b8152600481018790526000906001600160a01b0389169063220e44d590602401600060405180830381865afa1580156109b4573d6000803e3d6000fd5b505050506040513d6000823e601f3d908101601f191682016040526109dc9190810190611d73565b60400151905060008590036109f357809250610b8c565b600080610ac9838989808060200260200160405190810160405280939291908181526020016000905b82821015610a4857610a3960408302860136819003810190611e85565b81526020019060010190610a1c565b50505050508c6001600160a01b031663f6085bdb8d6040518263ffffffff1660e01b8152600401610a7b91815260200190565b608060405180830381865afa158015610a98573d6000803e3d6000fd5b505050506040513d601f19601f82011682018060405250810190610abc9190611ebd565b6040015161ffff166111fe565b6040805180820182528651815260025482516080810184528581526020818101869052620f42408286015260006060830152808a01519451632556fa3960e01b81529698509496509194938501936001600160a01b0390911692632556fa3992610b399290913091600401611f60565b6020604051808303816000875af1158015610b58573d6000803e3d6000fd5b505050506040513d601f19601f82011682018060405250810190610b7c9190612015565b6001600160a01b03169052945050505b8260046000610b9b8b8b61103f565b8152602080820192909252604090810160009081208451815593830151600190940180546001600160a01b03199081166001600160a01b03968716179091559b8416815260039092529020805490991694169390931790965595945050505050565b610c056113fd565b610c0f8282611418565b5050565b60006202a3006001600160401b03164201905063389a75e1600c5233600052806020600c2055337fdbf36a107da19e49527a7176a1babf963b4b0ff8cde35ee35d6cd8f1f9ac7e1d600080a250565b610c6a6113fd565b610c0f82826111f2565b63389a75e1600c523360005260006020600c2055337ffa7b8eab7da67f412cc9575ed43464468f9bfbae89d1675917346ca6d8fe3c92600080a2565b60006001600160a01b038216610cc85750600061093a565b60015461271090610ce590640100000000900461ffff1685612032565b610cef919061205f565b9392505050565b6000610d00611086565b90508060200151600003610d145750505050565b60408051808201909152468152600154600160401b90046001600160a01b03166020820152610d4590829084611424565b6020808201516040805186815273eeeeeeeeeeeeeeeeeeeeeeeeeeeeeeeeeeeeeeee93810193909352820152600060608201526001600160a01b038516907fa51462da4062b22c6b29f339e68988d477c5d44a303c61f50d8081c2ef344bac9060800160405180910390a250505050565b6001610dc181611473565b610dcd848430856114a6565b50505050565b610ddb6113fd565b610de560006114f8565b565b610e0c8686868686610e07610e0136899003890189612073565b8b610e2e565b611536565b505050505050565b610e278585858585610e078b8b8b611130565b5050505050565b6040805180820190915260008082526020820152604051806040016040528073eeeeeeeeeeeeeeeeeeeeeeeeeeeeeeeeeeeeeeee6001600160a01b03168152602001600060109054906101000a90046001600160801b031685602001516001600160701b0316610e9e919061208f565b610eb1906001600160801b031685612032565b90529392505050565b604080516080810182526000808252602082018190529181018290526060810191909152600061251c610ef360608501604086016120af565b61ffff1611610f335760fa610f0e60608501604086016120af565b61ffff1610610f2c57610f2760608401604085016120af565b610f37565b60fa610f37565b61251c5b9050600061251c610f4e60808601606087016120af565b61ffff1611610f6c57610f6760808501606086016120af565b610f70565b61251c5b6040805160808101909152909150806000610f8e6020880188611a13565b6001600160a01b031614610fae57610fa96020870187611a13565b610fc4565b73eeeeeeeeeeeeeeeeeeeeeeeeeeeeeeeeeeeeeeee5b6001600160a01b03168152602001856020016020810190610fe591906120cc565b6001600160701b0316815261ffff93841660208201529190921660409091015292915050565b60006001600160a01b0382166110235750600061093a565b60015461271090610ce590600160301b900461ffff1685612032565b6040516bffffffffffffffffffffffff19606084901b1660208201526034810182905260009060540160405160208183030381529060405280519060200120905092915050565b60408051808201825260008082526020918201819052825180840190935273eeeeeeeeeeeeeeeeeeeeeeeeeeeeeeeeeeeeeeee8352546001600160801b03169082015290565b6110d46113fd565b63389a75e1600c52806000526020600c2080544211156110fc57636f5e88186000526004601cfd5b6000905561094a816114f8565b6111116113fd565b8060601b61112757637448fbae6000526004601cfd5b61094a816114f8565b604080518082019091526000808252602082015260405163f6085bdb60e01b8152600481018490526111b7906001600160a01b0386169063f6085bdb90602401608060405180830381865afa15801561118d573d6000803e3d6000fd5b505050506040513d601f19601f820116820180604052508101906111b19190611ebd565b83610e2e565b949350505050565b638b78c6d81954331461094a57638b78c6d8600c5233600052806020600c20541661094a576382b429006000526004601cfd5b610c0f8282600061168f565b815160609081906000816112138660646120e9565b61121d9190612111565b9050600061122b83836120e9565b61123890620f4240612134565b9050611245836001612151565b63ffffffff166001600160401b0381111561126257611262611b79565b60405190808252806020026020018201604052801561128b578160200160208202803683370190505b509450611299836001612151565b63ffffffff166001600160401b038111156112b6576112b6611b79565b6040519080825280602002602001820160405280156112df578160200160208202803683370190505b5093508760200151856000815181106112fa576112fa61216e565b60200260200101906001600160a01b031690816001600160a01b0316815250508063ffffffff16846000815181106113345761133461216e565b60200260200101818152505060005b8363ffffffff168160ff1610156113f157878160ff16815181106113695761136961216e565b602002602001015160200151868260016113839190612184565b60ff16815181106113965761139661216e565b6001600160a01b039092166020928302919091019091015263ffffffff8316856113c1836001612184565b60ff16815181106113d4576113d461216e565b6020908102919091010152806113e98161219d565b915050611343565b50505050935093915050565b638b78c6d819543314610de5576382b429006000526004601cfd5b610c0f8282600161168f565b815146146114455760405163f5b8dfd760e01b815260040160405180910390fd5b826020015160000361145657505050565b61146e836000015184602001518385602001516114a6565b505050565b638b78c6d8600c5233600052806020600c20541661094a57638b78c6d81954331461094a576382b429006000526004601cfd5b73eeeeeeeeeeeeeeeeeeeeeeeeeeeeeeeeeeeeeeed196001600160a01b038516016114e3576114de6001600160a01b038216846116e8565b610dcd565b610dcd6001600160a01b038516838386611704565b638b78c6d81980546001600160a01b039092169182907f8be0079c531659141344cd1fd0a4f28419497f9722a3daafe3b4186f6b6457e0600080a355565b602081015115610e0c576000805461155f908690600160801b90046001600160801b0316612032565b905060008183602001510361159657600154612710906115859063ffffffff1684612032565b61158f919061205f565b9050611599565b50805b611613604051806040016040528085600001516001600160a01b031681526020018386602001516115ca91906121bc565b9052600460006115da8c8c61103f565b81526020808201929092526040908101600020815180830190925280548252600101546001600160a01b03169181019190915287611424565b6000611626898560000151848989611758565b8451602080870151604080518d81526001600160a01b0394851693810193909352820152606081018390529192508a16907fa51462da4062b22c6b29f339e68988d477c5d44a303c61f50d8081c2ef344bac9060800160405180910390a2505050505050505050565b638b78c6d8600c52826000526020600c208054838117836116b1575080841681185b80835580600c5160601c7f715ad5ce61fc9595c7b415289d59cf203f23a94fa06f04af7e489a0a76e1fe26600080a3505050505050565b60003860003884865af1610c0f5763b12d13eb6000526004601cfd5b60405181606052826040528360601b602c526323b872dd60601b600c52602060006064601c6000895af13d15600160005114171661174a57637939f4246000526004601cfd5b600060605260405250505050565b6000806117658584610cb0565b6001600160a01b038089166000908152600360205260408120549293509161178f9188911661100b565b905061179b81836121cf565b92506117f36040518060400160405280896001600160a01b0316815260200185896117c691906121bc565b905260408051808201909152468152600154600160401b90046001600160a01b0316602082015287611424565b6118386040518060400160405280896001600160a01b03168152602001848152506040518060400160405280468152602001876001600160a01b031681525087611424565b61187d6040518060400160405280896001600160a01b03168152602001838152506040518060400160405280468152602001876001600160a01b031681525087611424565b505095945050505050565b80356001600160401b038116811461189f57600080fd5b919050565b61ffff8116811461094a57600080fd5b600080600080600060a086880312156118cc57600080fd5b6118d586611888565b94506118e360208701611888565b935060408601356118f3816118a4565b92506060860135611903816118a4565b91506080860135611913816118a4565b809150509295509295909350565b6001600160a01b038116811461094a57600080fd5b6000806040838503121561194957600080fd5b823561195481611921565b946020939093013593505050565b60006020828403121561197457600080fd5b5035919050565b60008060008060006080868803121561199357600080fd5b853561199e81611921565b94506020860135935060408601356001600160401b03808211156119c157600080fd5b818801915088601f8301126119d557600080fd5b8135818111156119e457600080fd5b8960208260061b85010111156119f957600080fd5b602083019550809450505050606086013561191381611921565b600060208284031215611a2557600080fd5b8135610cef81611921565b60008060408385031215611a4357600080fd5b823591506020830135611a5581611921565b809150509250929050565b600080600060608486031215611a7557600080fd5b8335611a8081611921565b9250602084013591506040840135611a9781611921565b809150509250925092565b600060808284031215611ab457600080fd5b50919050565b6000806000806000806101208789031215611ad457600080fd5b8635611adf81611921565b955060208701359450604087013593506060870135611afd81611921565b92506080870135611b0d81611921565b9150611b1c8860a08901611aa2565b90509295509295509295565b600080600080600060a08688031215611b4057600080fd5b8535611b4b81611921565b945060208601359350604086013592506060860135611b6981611921565b9150608086013561191381611921565b634e487b7160e01b600052604160045260246000fd5b604051608081016001600160401b0381118282101715611bb157611bb1611b79565b60405290565b604080519081016001600160401b0381118282101715611bb157611bb1611b79565b604051601f8201601f191681016001600160401b0381118282101715611c0157611c01611b79565b604052919050565b6001600160701b038116811461094a57600080fd5b600060808284031215611c3057600080fd5b611c38611b8f565b90508135611c4581611921565b81526020820135611c5581611c09565b60208201526040820135611c68816118a4565b60408201526060820135611c7b816118a4565b606082015292915050565b60008060a08385031215611c9957600080fd5b611ca38484611c1e565b946080939093013593505050565b600060808284031215611cc357600080fd5b610cef8383611aa2565b600080600060608486031215611ce257600080fd5b8335611ced81611921565b95602085013595506040909401359392505050565b634e487b7160e01b600052601160045260246000fd5b61ffff818116838216019080821115611d3357611d33611d02565b5092915050565b600060408284031215611d4c57600080fd5b611d54611bb7565b9050815181526020820151611d6881611921565b602082015292915050565b60006020808385031215611d8657600080fd5b82516001600160401b0380821115611d9d57600080fd5b9084019060c08287031215611db157600080fd5b611db9611b8f565b825160068110611dc857600080fd5b8152611dd687848601611d3a565b84820152611de78760608501611d3a565b604082015260a083015182811115611dfe57600080fd5b80840193505086601f840112611e1357600080fd5b825182811115611e2557611e25611b79565b611e37601f8201601f19168601611bd9565b92508083528785828601011115611e4d57600080fd5b60005b81811015611e6b578481018601518482018701528501611e50565b506000908301909401939093526060830152509392505050565b600060408284031215611e9757600080fd5b611e9f611bb7565b823581526020830135611eb181611921565b60208201529392505050565b600060808284031215611ecf57600080fd5b611ed7611b8f565b8251611ee281611921565b81526020830151611ef281611c09565b60208201526040830151611f05816118a4565b60408201526060830151611f18816118a4565b60608201529392505050565b60008151808452602080850194506020840160005b83811015611f5557815187529582019590820190600101611f39565b509495945050505050565b60608152600060e08201855160806060850152818151808452610100860191506020935060208301925060005b81811015611fb25783516001600160a01b031683529284019291840191600101611f8d565b50506020880151858203605f190160808701529250611fd18184611f24565b92505050604086015160a08401526060860151611ff460c085018261ffff169052565b506001600160a01b0394851660208401529290931660409091015292915050565b60006020828403121561202757600080fd5b8151610cef81611921565b808202811582820484141761093a5761093a611d02565b634e487b7160e01b600052601260045260246000fd5b60008261206e5761206e612049565b500490565b60006080828403121561208557600080fd5b610cef8383611c1e565b6001600160801b03818116838216019080821115611d3357611d33611d02565b6000602082840312156120c157600080fd5b8135610cef816118a4565b6000602082840312156120de57600080fd5b8135610cef81611c09565b63ffffffff81811683821602808216919082811461210957612109611d02565b505092915050565b600063ffffffff8084168061212857612128612049565b92169190910492915050565b63ffffffff828116828216039080821115611d3357611d33611d02565b63ffffffff818116838216019080821115611d3357611d33611d02565b634e487b7160e01b600052603260045260246000fd5b60ff818116838216019081111561093a5761093a611d02565b600060ff821660ff81036121b3576121b3611d02565b60010192915050565b8181038181111561093a5761093a611d02565b8082018082111561093a5761093a611d0256fea2646970667358221220991e22ec7110b639153b89baa442f07cf1e59a98d7df57c2ec02f91b5ba7072f64736f6c63430008190033","linkReferences":{}},"methodIdentifiers":{"MAX_BPS()":"fd967f47","MAX_PROTOCOL_FEE()":"b8ca3b83","MAX_PROTOCOL_FEE_BPS()":"6d947e4b","MAX_ROYALTY_BPS()":"3dca40e6","MIN_ROYALTY_BPS()":"f8349617","cancelOwnershipHandover()":"54d1f13d","collectCreationFee(address,uint256,address)":"6306cc13","collectMintFee(address,uint256,uint256,address,address)":"8f820e67","collectMintFee(address,uint256,uint256,address,address,(address,uint112,uint16,uint16))":"73175442","collectionReferrerRevshareBps()":"3a243d24","completeOwnershipHandover(address)":"f04e283e","createRoute(address,uint256,(uint256,address)[],address)":"1a2148c6","feeReceiver(address,uint256)":"1705ddd0","getCollectionReferrerShare(uint256,address)":"b7892244","getCreationFee()":"db07b68e","getMintFee((address,uint112,uint16,uint16),uint256)":"928722d6","getMintFee(address,uint256,uint256)":"f88ad3b6","getMintReferrerShare(uint256,address)":"61c97801","getRouteId(address,uint256)":"d447f64d","grantRoles(address,uint256)":"1c10893f","hasAllRoles(address,uint256)":"1cd64df4","hasAnyRole(address,uint256)":"514e62fc","mintReferrerRevshareBps()":"8439ac66","owner()":"8da5cb5b","ownershipHandoverExpiresAt(address)":"fee81cf4","protocolCreationFee()":"5ca50936","protocolFeeReceiver()":"39a51be5","protocolFeeshareBps()":"b005b8b6","protocolFlatFee()":"fa62d57f","referrers(address)":"4a3b68cc","renounceOwnership()":"715018a6","renounceRoles(uint256)":"183a4f6e","requestOwnershipHandover()":"25692962","revokeRoles(address,uint256)":"4a4ee7b1","rolesOf(address)":"2de94807","setProtocolFees(uint64,uint64,uint16,uint16,uint16)":"0602a059","splitFactory()":"5720babb","transferOwnership(address)":"f2fde38b","validateStrategy((address,uint112,uint16,uint16))":"a308c4a1","withdraw(address,uint256,address)":"69328dec"},"id":51}