{"abi":[{"type":"constructor","inputs":[{"name":"owner_","type":"address","internalType":"address"},{"name":"admin_","type":"address","internalType":"address"}],"stateMutability":"nonpayable"},{"type":"function","name":"ACK_TYPEHASH","inputs":[],"outputs":[{"name":"","type":"bytes32","internalType":"bytes32"}],"stateMutability":"view"},{"type":"function","name":"DOMAIN_TYPEHASH","inputs":[],"outputs":[{"name":"","type":"bytes32","internalType":"bytes32"}],"stateMutability":"view"},{"type":"function","name":"acknowledgeEdge","inputs":[{"name":"edgeId_","type":"bytes32","internalType":"bytes32"},{"name":"data_","type":"bytes","internalType":"bytes"}],"outputs":[{"name":"edge","type":"tuple","internalType":"struct Edge","components":[{"name":"from","type":"tuple","internalType":"struct Node","components":[{"name":"nodeType","type":"uint8","internalType":"enum NodeType"},{"name":"entity","type":"tuple","internalType":"struct Target","components":[{"name":"chainId","type":"uint256","internalType":"uint256"},{"name":"target","type":"address","internalType":"address"}]},{"name":"creator","type":"tuple","internalType":"struct Target","components":[{"name":"chainId","type":"uint256","internalType":"uint256"},{"name":"target","type":"address","internalType":"address"}]},{"name":"data","type":"bytes","internalType":"bytes"}]},{"name":"to","type":"tuple","internalType":"struct Node","components":[{"name":"nodeType","type":"uint8","internalType":"enum NodeType"},{"name":"entity","type":"tuple","internalType":"struct Target","components":[{"name":"chainId","type":"uint256","internalType":"uint256"},{"name":"target","type":"address","internalType":"address"}]},{"name":"creator","type":"tuple","internalType":"struct Target","components":[{"name":"chainId","type":"uint256","internalType":"uint256"},{"name":"target","type":"address","internalType":"address"}]},{"name":"data","type":"bytes","internalType":"bytes"}]},{"name":"acknowledged","type":"bool","internalType":"bool"},{"name":"data","type":"bytes","internalType":"bytes"}]}],"stateMutability":"nonpayable"},{"type":"function","name":"acknowledgeEdge","inputs":[{"name":"edgeId_","type":"bytes32","internalType":"bytes32"},{"name":"data_","type":"bytes","internalType":"bytes"},{"name":"signature_","type":"bytes","internalType":"bytes"}],"outputs":[{"name":"edge","type":"tuple","internalType":"struct Edge","components":[{"name":"from","type":"tuple","internalType":"struct Node","components":[{"name":"nodeType","type":"uint8","internalType":"enum NodeType"},{"name":"entity","type":"tuple","internalType":"struct Target","components":[{"name":"chainId","type":"uint256","internalType":"uint256"},{"name":"target","type":"address","internalType":"address"}]},{"name":"creator","type":"tuple","internalType":"struct Target","components":[{"name":"chainId","type":"uint256","internalType":"uint256"},{"name":"target","type":"address","internalType":"address"}]},{"name":"data","type":"bytes","internalType":"bytes"}]},{"name":"to","type":"tuple","internalType":"struct Node","components":[{"name":"nodeType","type":"uint8","internalType":"enum NodeType"},{"name":"entity","type":"tuple","internalType":"struct Target","components":[{"name":"chainId","type":"uint256","internalType":"uint256"},{"name":"target","type":"address","internalType":"address"}]},{"name":"creator","type":"tuple","internalType":"struct Target","components":[{"name":"chainId","type":"uint256","internalType":"uint256"},{"name":"target","type":"address","internalType":"address"}]},{"name":"data","type":"bytes","internalType":"bytes"}]},{"name":"acknowledged","type":"bool","internalType":"bool"},{"name":"data","type":"bytes","internalType":"bytes"}]}],"stateMutability":"nonpayable"},{"type":"function","name":"cancelOwnershipHandover","inputs":[],"outputs":[],"stateMutability":"payable"},{"type":"function","name":"completeOwnershipHandover","inputs":[{"name":"pendingOwner","type":"address","internalType":"address"}],"outputs":[],"stateMutability":"payable"},{"type":"function","name":"createEdge","inputs":[{"name":"from_","type":"tuple","internalType":"struct Node","components":[{"name":"nodeType","type":"uint8","internalType":"enum NodeType"},{"name":"entity","type":"tuple","internalType":"struct Target","components":[{"name":"chainId","type":"uint256","internalType":"uint256"},{"name":"target","type":"address","internalType":"address"}]},{"name":"creator","type":"tuple","internalType":"struct Target","components":[{"name":"chainId","type":"uint256","internalType":"uint256"},{"name":"target","type":"address","internalType":"address"}]},{"name":"data","type":"bytes","internalType":"bytes"}]},{"name":"to_","type":"tuple","internalType":"struct Node","components":[{"name":"nodeType","type":"uint8","internalType":"enum NodeType"},{"name":"entity","type":"tuple","internalType":"struct Target","components":[{"name":"chainId","type":"uint256","internalType":"uint256"},{"name":"target","type":"address","internalType":"address"}]},{"name":"creator","type":"tuple","internalType":"struct Target","components":[{"name":"chainId","type":"uint256","internalType":"uint256"},{"name":"target","type":"address","internalType":"address"}]},{"name":"data","type":"bytes","internalType":"bytes"}]},{"name":"data_","type":"bytes","internalType":"bytes"}],"outputs":[{"name":"edge","type":"tuple","internalType":"struct Edge","components":[{"name":"from","type":"tuple","internalType":"struct Node","components":[{"name":"nodeType","type":"uint8","internalType":"enum NodeType"},{"name":"entity","type":"tuple","internalType":"struct Target","components":[{"name":"chainId","type":"uint256","internalType":"uint256"},{"name":"target","type":"address","internalType":"address"}]},{"name":"creator","type":"tuple","internalType":"struct Target","components":[{"name":"chainId","type":"uint256","internalType":"uint256"},{"name":"target","type":"address","internalType":"address"}]},{"name":"data","type":"bytes","internalType":"bytes"}]},{"name":"to","type":"tuple","internalType":"struct Node","components":[{"name":"nodeType","type":"uint8","internalType":"enum NodeType"},{"name":"entity","type":"tuple","internalType":"struct Target","components":[{"name":"chainId","type":"uint256","internalType":"uint256"},{"name":"target","type":"address","internalType":"address"}]},{"name":"creator","type":"tuple","internalType":"struct Target","components":[{"name":"chainId","type":"uint256","internalType":"uint256"},{"name":"target","type":"address","internalType":"address"}]},{"name":"data","type":"bytes","internalType":"bytes"}]},{"name":"acknowledged","type":"bool","internalType":"bool"},{"name":"data","type":"bytes","internalType":"bytes"}]}],"stateMutability":"nonpayable"},{"type":"function","name":"createEdges","inputs":[{"name":"edges_","type":"tuple[]","internalType":"struct Edge[]","components":[{"name":"from","type":"tuple","internalType":"struct Node","components":[{"name":"nodeType","type":"uint8","internalType":"enum NodeType"},{"name":"entity","type":"tuple","internalType":"struct Target","components":[{"name":"chainId","type":"uint256","internalType":"uint256"},{"name":"target","type":"address","internalType":"address"}]},{"name":"creator","type":"tuple","internalType":"struct Target","components":[{"name":"chainId","type":"uint256","internalType":"uint256"},{"name":"target","type":"address","internalType":"address"}]},{"name":"data","type":"bytes","internalType":"bytes"}]},{"name":"to","type":"tuple","internalType":"struct Node","components":[{"name":"nodeType","type":"uint8","internalType":"enum NodeType"},{"name":"entity","type":"tuple","internalType":"struct Target","components":[{"name":"chainId","type":"uint256","internalType":"uint256"},{"name":"target","type":"address","internalType":"address"}]},{"name":"creator","type":"tuple","internalType":"struct Target","components":[{"name":"chainId","type":"uint256","internalType":"uint256"},{"name":"target","type":"address","internalType":"address"}]},{"name":"data","type":"bytes","internalType":"bytes"}]},{"name":"acknowledged","type":"bool","internalType":"bool"},{"name":"data","type":"bytes","internalType":"bytes"}]}],"outputs":[],"stateMutability":"nonpayable"},{"type":"function","name":"edges","inputs":[{"name":"id","type":"bytes32","internalType":"bytes32"}],"outputs":[{"name":"from","type":"tuple","internalType":"struct Node","components":[{"name":"nodeType","type":"uint8","internalType":"enum NodeType"},{"name":"entity","type":"tuple","internalType":"struct Target","components":[{"name":"chainId","type":"uint256","internalType":"uint256"},{"name":"target","type":"address","internalType":"address"}]},{"name":"creator","type":"tuple","internalType":"struct Target","components":[{"name":"chainId","type":"uint256","internalType":"uint256"},{"name":"target","type":"address","internalType":"address"}]},{"name":"data","type":"bytes","internalType":"bytes"}]},{"name":"to","type":"tuple","internalType":"struct Node","components":[{"name":"nodeType","type":"uint8","internalType":"enum NodeType"},{"name":"entity","type":"tuple","internalType":"struct Target","components":[{"name":"chainId","type":"uint256","internalType":"uint256"},{"name":"target","type":"address","internalType":"address"}]},{"name":"creator","type":"tuple","internalType":"struct Target","components":[{"name":"chainId","type":"uint256","internalType":"uint256"},{"name":"target","type":"address","internalType":"address"}]},{"name":"data","type":"bytes","internalType":"bytes"}]},{"name":"acknowledged","type":"bool","internalType":"bool"},{"name":"data","type":"bytes","internalType":"bytes"}],"stateMutability":"view"},{"type":"function","name":"eip712Domain","inputs":[],"outputs":[{"name":"fields","type":"bytes1","internalType":"bytes1"},{"name":"name","type":"string","internalType":"string"},{"name":"version","type":"string","internalType":"string"},{"name":"chainId","type":"uint256","internalType":"uint256"},{"name":"verifyingContract","type":"address","internalType":"address"},{"name":"salt","type":"bytes32","internalType":"bytes32"},{"name":"extensions","type":"uint256[]","internalType":"uint256[]"}],"stateMutability":"view"},{"type":"function","name":"getEdgeId","inputs":[{"name":"from_","type":"tuple","internalType":"struct Node","components":[{"name":"nodeType","type":"uint8","internalType":"enum NodeType"},{"name":"entity","type":"tuple","internalType":"struct Target","components":[{"name":"chainId","type":"uint256","internalType":"uint256"},{"name":"target","type":"address","internalType":"address"}]},{"name":"creator","type":"tuple","internalType":"struct Target","components":[{"name":"chainId","type":"uint256","internalType":"uint256"},{"name":"target","type":"address","internalType":"address"}]},{"name":"data","type":"bytes","internalType":"bytes"}]},{"name":"to_","type":"tuple","internalType":"struct Node","components":[{"name":"nodeType","type":"uint8","internalType":"enum NodeType"},{"name":"entity","type":"tuple","internalType":"struct Target","components":[{"name":"chainId","type":"uint256","internalType":"uint256"},{"name":"target","type":"address","internalType":"address"}]},{"name":"creator","type":"tuple","internalType":"struct Target","components":[{"name":"chainId","type":"uint256","internalType":"uint256"},{"name":"target","type":"address","internalType":"address"}]},{"name":"data","type":"bytes","internalType":"bytes"}]}],"outputs":[{"name":"","type":"bytes32","internalType":"bytes32"}],"stateMutability":"pure"},{"type":"function","name":"getEdgeId","inputs":[{"name":"edge_","type":"tuple","internalType":"struct Edge","components":[{"name":"from","type":"tuple","internalType":"struct Node","components":[{"name":"nodeType","type":"uint8","internalType":"enum NodeType"},{"name":"entity","type":"tuple","internalType":"struct Target","components":[{"name":"chainId","type":"uint256","internalType":"uint256"},{"name":"target","type":"address","internalType":"address"}]},{"name":"creator","type":"tuple","internalType":"struct Target","components":[{"name":"chainId","type":"uint256","internalType":"uint256"},{"name":"target","type":"address","internalType":"address"}]},{"name":"data","type":"bytes","internalType":"bytes"}]},{"name":"to","type":"tuple","internalType":"struct Node","components":[{"name":"nodeType","type":"uint8","internalType":"enum NodeType"},{"name":"entity","type":"tuple","internalType":"struct Target","components":[{"name":"chainId","type":"uint256","internalType":"uint256"},{"name":"target","type":"address","internalType":"address"}]},{"name":"creator","type":"tuple","internalType":"struct Target","components":[{"name":"chainId","type":"uint256","internalType":"uint256"},{"name":"target","type":"address","internalType":"address"}]},{"name":"data","type":"bytes","internalType":"bytes"}]},{"name":"acknowledged","type":"bool","internalType":"bool"},{"name":"data","type":"bytes","internalType":"bytes"}]}],"outputs":[{"name":"","type":"bytes32","internalType":"bytes32"}],"stateMutability":"pure"},{"type":"function","name":"grantRoles","inputs":[{"name":"guy","type":"address","internalType":"address"},{"name":"roles","type":"uint256","internalType":"uint256"}],"outputs":[],"stateMutability":"payable"},{"type":"function","name":"hasAllRoles","inputs":[{"name":"user","type":"address","internalType":"address"},{"name":"roles","type":"uint256","internalType":"uint256"}],"outputs":[{"name":"","type":"bool","internalType":"bool"}],"stateMutability":"view"},{"type":"function","name":"hasAnyRole","inputs":[{"name":"user","type":"address","internalType":"address"},{"name":"roles","type":"uint256","internalType":"uint256"}],"outputs":[{"name":"","type":"bool","internalType":"bool"}],"stateMutability":"view"},{"type":"function","name":"owner","inputs":[],"outputs":[{"name":"result","type":"address","internalType":"address"}],"stateMutability":"view"},{"type":"function","name":"ownershipHandoverExpiresAt","inputs":[{"name":"pendingOwner","type":"address","internalType":"address"}],"outputs":[{"name":"result","type":"uint256","internalType":"uint256"}],"stateMutability":"view"},{"type":"function","name":"proxiableUUID","inputs":[],"outputs":[{"name":"","type":"bytes32","internalType":"bytes32"}],"stateMutability":"view"},{"type":"function","name":"renounceOwnership","inputs":[],"outputs":[],"stateMutability":"payable"},{"type":"function","name":"renounceRoles","inputs":[{"name":"roles","type":"uint256","internalType":"uint256"}],"outputs":[],"stateMutability":"payable"},{"type":"function","name":"requestOwnershipHandover","inputs":[],"outputs":[],"stateMutability":"payable"},{"type":"function","name":"revokeRoles","inputs":[{"name":"guy","type":"address","internalType":"address"},{"name":"roles","type":"uint256","internalType":"uint256"}],"outputs":[],"stateMutability":"payable"},{"type":"function","name":"rolesOf","inputs":[{"name":"user","type":"address","internalType":"address"}],"outputs":[{"name":"roles","type":"uint256","internalType":"uint256"}],"stateMutability":"view"},{"type":"function","name":"transferOwnership","inputs":[{"name":"newOwner","type":"address","internalType":"address"}],"outputs":[],"stateMutability":"payable"},{"type":"function","name":"unacknowledgeEdge","inputs":[{"name":"edgeId_","type":"bytes32","internalType":"bytes32"},{"name":"data_","type":"bytes","internalType":"bytes"}],"outputs":[{"name":"edge","type":"tuple","internalType":"struct Edge","components":[{"name":"from","type":"tuple","internalType":"struct Node","components":[{"name":"nodeType","type":"uint8","internalType":"enum NodeType"},{"name":"entity","type":"tuple","internalType":"struct Target","components":[{"name":"chainId","type":"uint256","internalType":"uint256"},{"name":"target","type":"address","internalType":"address"}]},{"name":"creator","type":"tuple","internalType":"struct Target","components":[{"name":"chainId","type":"uint256","internalType":"uint256"},{"name":"target","type":"address","internalType":"address"}]},{"name":"data","type":"bytes","internalType":"bytes"}]},{"name":"to","type":"tuple","internalType":"struct Node","components":[{"name":"nodeType","type":"uint8","internalType":"enum NodeType"},{"name":"entity","type":"tuple","internalType":"struct Target","components":[{"name":"chainId","type":"uint256","internalType":"uint256"},{"name":"target","type":"address","internalType":"address"}]},{"name":"creator","type":"tuple","internalType":"struct Target","components":[{"name":"chainId","type":"uint256","internalType":"uint256"},{"name":"target","type":"address","internalType":"address"}]},{"name":"data","type":"bytes","internalType":"bytes"}]},{"name":"acknowledged","type":"bool","internalType":"bool"},{"name":"data","type":"bytes","internalType":"bytes"}]}],"stateMutability":"nonpayable"},{"type":"function","name":"unacknowledgeEdge","inputs":[{"name":"edgeId_","type":"bytes32","internalType":"bytes32"},{"name":"data_","type":"bytes","internalType":"bytes"},{"name":"signature_","type":"bytes","internalType":"bytes"}],"outputs":[{"name":"edge","type":"tuple","internalType":"struct Edge","components":[{"name":"from","type":"tuple","internalType":"struct Node","components":[{"name":"nodeType","type":"uint8","internalType":"enum NodeType"},{"name":"entity","type":"tuple","internalType":"struct Target","components":[{"name":"chainId","type":"uint256","internalType":"uint256"},{"name":"target","type":"address","internalType":"address"}]},{"name":"creator","type":"tuple","internalType":"struct Target","components":[{"name":"chainId","type":"uint256","internalType":"uint256"},{"name":"target","type":"address","internalType":"address"}]},{"name":"data","type":"bytes","internalType":"bytes"}]},{"name":"to","type":"tuple","internalType":"struct Node","components":[{"name":"nodeType","type":"uint8","internalType":"enum NodeType"},{"name":"entity","type":"tuple","internalType":"struct Target","components":[{"name":"chainId","type":"uint256","internalType":"uint256"},{"name":"target","type":"address","internalType":"address"}]},{"name":"creator","type":"tuple","internalType":"struct Target","components":[{"name":"chainId","type":"uint256","internalType":"uint256"},{"name":"target","type":"address","internalType":"address"}]},{"name":"data","type":"bytes","internalType":"bytes"}]},{"name":"acknowledged","type":"bool","internalType":"bool"},{"name":"data","type":"bytes","internalType":"bytes"}]}],"stateMutability":"nonpayable"},{"type":"function","name":"upgradeToAndCall","inputs":[{"name":"newImplementation","type":"address","internalType":"address"},{"name":"data","type":"bytes","internalType":"bytes"}],"outputs":[],"stateMutability":"payable"},{"type":"event","name":"EdgeAcknowledged","inputs":[{"name":"edge","type":"tuple","indexed":false,"internalType":"struct Edge","components":[{"name":"from","type":"tuple","internalType":"struct Node","components":[{"name":"nodeType","type":"uint8","internalType":"enum NodeType"},{"name":"entity","type":"tuple","internalType":"struct Target","components":[{"name":"chainId","type":"uint256","internalType":"uint256"},{"name":"target","type":"address","internalType":"address"}]},{"name":"creator","type":"tuple","internalType":"struct Target","components":[{"name":"chainId","type":"uint256","internalType":"uint256"},{"name":"target","type":"address","internalType":"address"}]},{"name":"data","type":"bytes","internalType":"bytes"}]},{"name":"to","type":"tuple","internalType":"struct Node","components":[{"name":"nodeType","type":"uint8","internalType":"enum NodeType"},{"name":"entity","type":"tuple","internalType":"struct Target","components":[{"name":"chainId","type":"uint256","internalType":"uint256"},{"name":"target","type":"address","internalType":"address"}]},{"name":"creator","type":"tuple","internalType":"struct Target","components":[{"name":"chainId","type":"uint256","internalType":"uint256"},{"name":"target","type":"address","internalType":"address"}]},{"name":"data","type":"bytes","internalType":"bytes"}]},{"name":"acknowledged","type":"bool","internalType":"bool"},{"name":"data","type":"bytes","internalType":"bytes"}]},{"name":"acknowledger","type":"address","indexed":false,"internalType":"address"},{"name":"data","type":"bytes","indexed":false,"internalType":"bytes"}],"anonymous":false},{"type":"event","name":"EdgeCreated","inputs":[{"name":"edge","type":"tuple","indexed":false,"internalType":"struct Edge","components":[{"name":"from","type":"tuple","internalType":"struct Node","components":[{"name":"nodeType","type":"uint8","internalType":"enum NodeType"},{"name":"entity","type":"tuple","internalType":"struct Target","components":[{"name":"chainId","type":"uint256","internalType":"uint256"},{"name":"target","type":"address","internalType":"address"}]},{"name":"creator","type":"tuple","internalType":"struct Target","components":[{"name":"chainId","type":"uint256","internalType":"uint256"},{"name":"target","type":"address","internalType":"address"}]},{"name":"data","type":"bytes","internalType":"bytes"}]},{"name":"to","type":"tuple","internalType":"struct Node","components":[{"name":"nodeType","type":"uint8","internalType":"enum NodeType"},{"name":"entity","type":"tuple","internalType":"struct Target","components":[{"name":"chainId","type":"uint256","internalType":"uint256"},{"name":"target","type":"address","internalType":"address"}]},{"name":"creator","type":"tuple","internalType":"struct Target","components":[{"name":"chainId","type":"uint256","internalType":"uint256"},{"name":"target","type":"address","internalType":"address"}]},{"name":"data","type":"bytes","internalType":"bytes"}]},{"name":"acknowledged","type":"bool","internalType":"bool"},{"name":"data","type":"bytes","internalType":"bytes"}]},{"name":"data","type":"bytes","indexed":false,"internalType":"bytes"}],"anonymous":false},{"type":"event","name":"EdgeUnacknowledged","inputs":[{"name":"edge","type":"tuple","indexed":false,"internalType":"struct Edge","components":[{"name":"from","type":"tuple","internalType":"struct Node","components":[{"name":"nodeType","type":"uint8","internalType":"enum NodeType"},{"name":"entity","type":"tuple","internalType":"struct Target","components":[{"name":"chainId","type":"uint256","internalType":"uint256"},{"name":"target","type":"address","internalType":"address"}]},{"name":"creator","type":"tuple","internalType":"struct Target","components":[{"name":"chainId","type":"uint256","internalType":"uint256"},{"name":"target","type":"address","internalType":"address"}]},{"name":"data","type":"bytes","internalType":"bytes"}]},{"name":"to","type":"tuple","internalType":"struct Node","components":[{"name":"nodeType","type":"uint8","internalType":"enum NodeType"},{"name":"entity","type":"tuple","internalType":"struct Target","components":[{"name":"chainId","type":"uint256","internalType":"uint256"},{"name":"target","type":"address","internalType":"address"}]},{"name":"creator","type":"tuple","internalType":"struct Target","components":[{"name":"chainId","type":"uint256","internalType":"uint256"},{"name":"target","type":"address","internalType":"address"}]},{"name":"data","type":"bytes","internalType":"bytes"}]},{"name":"acknowledged","type":"bool","internalType":"bool"},{"name":"data","type":"bytes","internalType":"bytes"}]},{"name":"acknowledger","type":"address","indexed":false,"internalType":"address"},{"name":"data","type":"bytes","indexed":false,"internalType":"bytes"}],"anonymous":false},{"type":"event","name":"NodeTouched","inputs":[{"name":"node","type":"tuple","indexed":false,"internalType":"struct Node","components":[{"name":"nodeType","type":"uint8","internalType":"enum NodeType"},{"name":"entity","type":"tuple","internalType":"struct Target","components":[{"name":"chainId","type":"uint256","internalType":"uint256"},{"name":"target","type":"address","internalType":"address"}]},{"name":"creator","type":"tuple","internalType":"struct Target","components":[{"name":"chainId","type":"uint256","internalType":"uint256"},{"name":"target","type":"address","internalType":"address"}]},{"name":"data","type":"bytes","internalType":"bytes"}]},{"name":"data","type":"bytes","indexed":false,"internalType":"bytes"}],"anonymous":false},{"type":"event","name":"OwnershipHandoverCanceled","inputs":[{"name":"pendingOwner","type":"address","indexed":true,"internalType":"address"}],"anonymous":false},{"type":"event","name":"OwnershipHandoverRequested","inputs":[{"name":"pendingOwner","type":"address","indexed":true,"internalType":"address"}],"anonymous":false},{"type":"event","name":"OwnershipTransferred","inputs":[{"name":"oldOwner","type":"address","indexed":true,"internalType":"address"},{"name":"newOwner","type":"address","indexed":true,"internalType":"address"}],"anonymous":false},{"type":"event","name":"RolesUpdated","inputs":[{"name":"user","type":"address","indexed":true,"internalType":"address"},{"name":"roles","type":"uint256","indexed":true,"internalType":"uint256"}],"anonymous":false},{"type":"event","name":"Upgraded","inputs":[{"name":"implementation","type":"address","indexed":true,"internalType":"address"}],"anonymous":false},{"type":"error","name":"AlreadyInitialized","inputs":[]},{"type":"error","name":"Exists","inputs":[]},{"type":"error","name":"NewOwnerIsZeroAddress","inputs":[]},{"type":"error","name":"NoHandoverRequest","inputs":[]},{"type":"error","name":"NotFound","inputs":[]},{"type":"error","name":"Unauthorized","inputs":[]},{"type":"error","name":"UnauthorizedCallContext","inputs":[]},{"type":"error","name":"UpgradeFailed","inputs":[]}],"bytecode":{"object":"0x610140604052306101205234801561001657600080fd5b5060405161292b38038061292b833981016040819052610035916101c0565b306080524660a052606080610080604080518082018252600b81526a0a8d2e8d8cae68ee4c2e0d60ab1b602080830191909152825180840190935260018352603160f81b9083015291565b815160209283012081519183019190912060c082905260e0819052604080517f8b73c3c69bb8fe3d512ecc4cf759cc79239f7b179b0ffacaa9a75d522b39400f8152938401929092529082015246606082015230608082015260a0902061010052506100ed9050826100ff565b6100f881600161013b565b50506101f3565b6001600160a01b0316638b78c6d8198190558060007f8be0079c531659141344cd1fd0a4f28419497f9722a3daafe3b4186f6b6457e08180a350565b6101478282600161014b565b5050565b638b78c6d8600c52826000526020600c2080548381178361016d575080841681185b80835580600c5160601c7f715ad5ce61fc9595c7b415289d59cf203f23a94fa06f04af7e489a0a76e1fe26600080a3505050505050565b80516001600160a01b03811681146101bb57600080fd5b919050565b600080604083850312156101d357600080fd5b6101dc836101a4565b91506101ea602084016101a4565b90509250929050565b60805160a05160c05160e05161010051610120516126e26102496000396000818161084a01526109300152600061185901526000611913015260006118ed0152600061189d0152600061187a01526126e26000f3fe60806040526004361061019c5760003560e01c806354d1f13d116100ec5780639f70e9931161008a578063ec8c812a11610064578063ec8c812a146104a6578063f04e283e146104c6578063f2fde38b146104d9578063fee81cf4146104ec57600080fd5b80639f70e99314610436578063ad15544314610456578063c4a981691461047657600080fd5b806384b0196e116100c657806384b0196e146103a257806389f88de5146103ca5780638da5cb5b146103ea5780639c30fd921461041657600080fd5b806354d1f13d1461035e578063715018a6146103665780637159d5451461036e57600080fd5b806325692962116101595780634d83be4b116101335780634d83be4b146102df5780634f1ef286146102ff578063514e62fc1461031257806352d1902d1461034957600080fd5b806325692962146102915780632de94807146102995780634a4ee7b1146102cc57600080fd5b8063103278df146101a1578063139fca60146101d7578063183a4f6e146101f75780631c10893f1461020c5780631cd64df41461021f57806320606b701461024f575b600080fd5b3480156101ad57600080fd5b506101c16101bc366004611c54565b61051f565b6040516101ce9190611dcb565b60405180910390f35b3480156101e357600080fd5b506101c16101f2366004611df6565b610693565b61020a610205366004611e80565b610733565b005b61020a61021a366004611eb5565b610740565b34801561022b57600080fd5b5061023f61023a366004611eb5565b61075a565b60405190151581526020016101ce565b34801561025b57600080fd5b506102837f8b73c3c69bb8fe3d512ecc4cf759cc79239f7b179b0ffacaa9a75d522b39400f81565b6040519081526020016101ce565b61020a610779565b3480156102a557600080fd5b506102836102b4366004611edf565b638b78c6d8600c908152600091909152602090205490565b61020a6102da366004611eb5565b6107c8565b3480156102eb57600080fd5b506101c16102fa366004611c54565b6107dd565b61020a61030d366004611efa565b610848565b34801561031e57600080fd5b5061023f61032d366004611eb5565b638b78c6d8600c90815260009290925260209091205416151590565b34801561035557600080fd5b5061028361092c565b61020a61098b565b61020a6109c7565b34801561037a57600080fd5b506102837fec0f1b0cb5f3b3d906a82a181128d534306f938fba06f978c515223a2c3def0e81565b3480156103ae57600080fd5b506103b76109db565b6040516101ce9796959493929190611f33565b3480156103d657600080fd5b506102836103e536600461216e565b610a3a565b3480156103f657600080fd5b50638b78c6d819546040516001600160a01b0390911681526020016101ce565b34801561042257600080fd5b506102836104313660046121d1565b610a6d565b34801561044257600080fd5b506101c161045136600461229d565b610a81565b34801561046257600080fd5b5061020a610471366004612316565b610bc6565b34801561048257600080fd5b50610496610491366004611e80565b610cc6565b6040516101ce949392919061238a565b3480156104b257600080fd5b506101c16104c136600461229d565b610fc0565b61020a6104d4366004611edf565b611096565b61020a6104e7366004611edf565b6110d3565b3480156104f857600080fd5b50610283610507366004611edf565b63389a75e1600c908152600091909152602090205490565b610527611b67565b600084815260026020526040908190208151608081019092526006018054610662929190829060ff16600581111561056157610561611c9f565b600581111561057257610572611c9f565b81526040805180820182526001840154815260028401546001600160a01b03908116602083810191909152808501929092528251808401845260038601548152600486015490911691810191909152908201526005820180546060909201916105da906123d6565b80601f0160208091040260200160405190810160405280929190818152602001828054610606906123d6565b80156106535780601f1061062857610100808354040283529160200191610653565b820191906000526020600020905b81548152906001019060200180831161063657829003601f168201915b505050505081525050336110fa565b61067e576040516282b42960e81b815260040160405180910390fd5b61068b8484846001611138565b949350505050565b61069b611b67565b6106bd6106a78661240a565b60209081015101516001600160a01b0316331490565b6106d9576040516282b42960e81b815260040160405180910390fd5b61072a6106e58661240a565b6106ee8661240a565b85858080601f01602080910402602001604051908101604052809392919081815260200183838082843760009201919091525061150a92505050565b95945050505050565b61073d33826117a4565b50565b600161074b816117b4565b61075583836117e7565b505050565b638b78c6d8600c90815260008390526020902054811681145b92915050565b60006202a3006001600160401b03164201905063389a75e1600c5233600052806020600c2055337fdbf36a107da19e49527a7176a1babf963b4b0ff8cde35ee35d6cd8f1f9ac7e1d600080a250565b60016107d3816117b4565b61075583836117a4565b6107e5611b67565b60008481526002602052604090819020815160808101909252600601805461081f929190829060ff16600581111561056157610561611c9f565b61083b576040516282b42960e81b815260040160405180910390fd5b61068b8484846000611138565b7f000000000000000000000000000000000000000000000000000000000000000030810361087e57639f03a0266000526004601cfd5b610887846117f3565b8360601b60601c93506352d1902d6001527f360894a13ba1a3210667c828492db98dca3e2076cc3735a920a3ca505d382bbc80602060016004601d895afa51146108d9576355299b496001526004601dfd5b847fbc7cd75a20ee27fd9adebab32041f755214dbc6bffa90cc0225b39da2e5c2d3b600038a2849055811561092657604051828482376000388483885af4610924573d6000823e3d81fd5b505b50505050565b60007f000000000000000000000000000000000000000000000000000000000000000030811461096457639f03a0266000526004601cfd5b7f360894a13ba1a3210667c828492db98dca3e2076cc3735a920a3ca505d382bbc91505090565b63389a75e1600c523360005260006020600c2055337ffa7b8eab7da67f412cc9575ed43464468f9bfbae89d1675917346ca6d8fe3c92600080a2565b6109cf6117fe565b6109d96000611819565b565b600f60f81b6060806000808083610a28604080518082018252600b81526a0a8d2e8d8cae68ee4c2e0d60ab1b602080830191909152825180840190935260018352603160f81b9083015291565b97989097965046955030945091925090565b60008282604051602001610a4f929190612416565b60405160208183030381529060405280519060200120905092915050565b600061077382600001518360200151610a3a565b610a89611b67565b85858585856000610ae57fec0f1b0cb5f3b3d906a82a181128d534306f938fba06f978c515223a2c3def0e878787604051602001610aca9493929190612464565b60405160208183030381529060405280519060200120611857565b6000878152600260205260409020600a0154909150610b0f906001600160a01b031682858561196f565b1580610b485750600360008484604051610b2a92919061248e565b604080519182900390912082526020820192909252016000205460ff165b15610b65576040516282b42960e81b815260040160405180910390fd5b610b728c8c8c6001611138565b96506001600360008585604051610b8a92919061248e565b6040518091039020815260200190815260200160002060006101000a81548160ff02191690831515021790555050505050505095945050505050565b6001610bd181611a68565b60005b8281101561092657610cbd848483818110610bf157610bf161249e565b9050602002810190610c0391906124b4565b610c0d90806124d4565b610c169061240a565b858584818110610c2857610c2861249e565b9050602002810190610c3a91906124b4565b610c489060208101906124d4565b610c519061240a565b868685818110610c6357610c6361249e565b9050602002810190610c7591906124b4565b610c839060608101906124ea565b8080601f01602080910402602001604051908101604052809392919081815260200183838082843760009201919091525061150a92505050565b50600101610bd4565b6002602052600090815260409081902081516080810190925280549091908290829060ff166005811115610cfc57610cfc611c9f565b6005811115610d0d57610d0d611c9f565b81526040805180820182526001840154815260028401546001600160a01b0390811660208381019190915280850192909252825180840184526003860154815260048601549091169181019190915290820152600582018054606090920191610d75906123d6565b80601f0160208091040260200160405190810160405280929190818152602001828054610da1906123d6565b8015610dee5780601f10610dc357610100808354040283529160200191610dee565b820191906000526020600020905b815481529060010190602001808311610dd157829003601f168201915b505050919092525050604080516080810190915260068401805493949391925090829060ff166005811115610e2557610e25611c9f565b6005811115610e3657610e36611c9f565b81526040805180820182526001840154815260028401546001600160a01b0390811660208381019190915280850192909252825180840184526003860154815260048601549091169181019190915290820152600582018054606090920191610e9e906123d6565b80601f0160208091040260200160405190810160405280929190818152602001828054610eca906123d6565b8015610f175780601f10610eec57610100808354040283529160200191610f17565b820191906000526020600020905b815481529060010190602001808311610efa57829003601f168201915b50505091909252505050600c820154600d83018054929360ff90921692610f3d906123d6565b80601f0160208091040260200160405190810160405280929190818152602001828054610f69906123d6565b8015610fb65780601f10610f8b57610100808354040283529160200191610fb6565b820191906000526020600020905b815481529060010190602001808311610f9957829003601f168201915b5050505050905084565b610fc8611b67565b858585858560006110097fec0f1b0cb5f3b3d906a82a181128d534306f938fba06f978c515223a2c3def0e878787604051602001610aca9493929190612464565b6000878152600260205260409020600a0154909150611033906001600160a01b031682858561196f565b158061106c575060036000848460405161104e92919061248e565b604080519182900390912082526020820192909252016000205460ff165b15611089576040516282b42960e81b815260040160405180910390fd5b610b728c8c8c6000611138565b61109e6117fe565b63389a75e1600c52806000526020600c2080544211156110c657636f5e88186000526004601cfd5b6000905561073d81611819565b6110db6117fe565b8060601b6110f157637448fbae6000526004601cfd5b61073d81611819565b6040820151602001516000906001600160a01b0383811691161480611131575060208381015101516001600160a01b038381169116145b9392505050565b611140611b67565b61114b600086611a9b565b6111685760405163c5723b5160e01b815260040160405180910390fd5b60008581526002602052604090819020815161010081019092528054829060808201908390829060ff1660058111156111a3576111a3611c9f565b60058111156111b4576111b4611c9f565b81526040805180820182526001840154815260028401546001600160a01b039081166020838101919091528085019290925282518084018452600386015481526004860154909116918101919091529082015260058201805460609092019161121c906123d6565b80601f0160208091040260200160405190810160405280929190818152602001828054611248906123d6565b80156112955780601f1061126a57610100808354040283529160200191611295565b820191906000526020600020905b81548152906001019060200180831161127857829003601f168201915b5050509190925250505081526040805160808101909152600683018054602090930192829060ff1660058111156112ce576112ce611c9f565b60058111156112df576112df611c9f565b81526040805180820182526001840154815260028401546001600160a01b0390811660208381019190915280850192909252825180840184526003860154815260048601549091169181019190915290820152600582018054606090920191611347906123d6565b80601f0160208091040260200160405190810160405280929190818152602001828054611373906123d6565b80156113c05780601f10611395576101008083540402835291602001916113c0565b820191906000526020600020905b8154815290600101906020018083116113a357829003601f168201915b505050919092525050508152600c82015460ff1615156020820152600d820180546040909201916113f0906123d6565b80601f016020809104026020016040519081016040528092919081815260200182805461141c906123d6565b80156114695780601f1061143e57610100808354040283529160200191611469565b820191906000526020600020905b81548152906001019060200180831161144c57829003601f168201915b505050919092525050508215801560408301529091506114c5577f14885c5cc13175969ca447a74f1c4412cf02dda5a638e2ea7e3b093d488197c1813386866040516114b89493929190612530565b60405180910390a161068b565b7f22eba3304b35e513c47451658d27f6b613ccaf9239462d2278d570b0ca810b1b813386866040516114fa9493929190612530565b60405180910390a1949350505050565b611512611b67565b60008484604051602001611527929190612416565b60408051601f198184030181529190528051602090910120905061154c600082611ab3565b61156957604051634237602b60e11b815260040160405180910390fd5b6040805160808101825286815260208082018790526000828401819052606083018790528481526002909152919091208151805182549395508593839190829060ff191660018360058111156115c1576115c1611c9f565b0217905550602082810151805160018401558101516002830180546001600160a01b03199081166001600160a01b03938416179091556040850151805160038601559092015160048401805490931691161790556060820151600582019061162990826125b5565b50505060208201518051600683018054909190829060ff1916600183600581111561165657611656611c9f565b0217905550602082810151805160018401558101516002830180546001600160a01b03199081166001600160a01b0393841617909155604085015180516003860155909201516004840180549093169116179055606082015160058201906116be90826125b5565b5050506040820151600c8201805460ff19169115159190911790556060820151600d8201906116ed90826125b5565b509050507f8f9671c9dcbb374f7950c8781f5654d615df176a112c7144639d5b9cf0a382dd8584604051611722929190612674565b60405180910390a17f8f9671c9dcbb374f7950c8781f5654d615df176a112c7144639d5b9cf0a382dd848460405161175b929190612674565b60405180910390a17f07a9a59b51e0355af957b2c827b8dfdc9383d2c2f8a675a2ff57c52bbc34c5038284604051611794929190612699565b60405180910390a1509392505050565b6117b082826000611abf565b5050565b638b78c6d81954331461073d57638b78c6d8600c5233600052806020600c20541661073d576382b429006000526004601cfd5b6117b082826001611abf565b60016117b0816117b4565b638b78c6d8195433146109d9576382b429006000526004601cfd5b638b78c6d81980546001600160a01b039092169182907f8be0079c531659141344cd1fd0a4f28419497f9722a3daafe3b4186f6b6457e0600080a355565b7f00000000000000000000000000000000000000000000000000000000000000007f000000000000000000000000000000000000000000000000000000000000000030147f000000000000000000000000000000000000000000000000000000000000000046141661194a5750604080517f8b73c3c69bb8fe3d512ecc4cf759cc79239f7b179b0ffacaa9a75d522b39400f81527f000000000000000000000000000000000000000000000000000000000000000060208201527f00000000000000000000000000000000000000000000000000000000000000009181019190915246606082015230608082015260a090205b67190100000000000060005280601a5281603a52604260182090506000603a52919050565b6001600160a01b03909316926000841561068b5760405184600052604083036119da5760208481013560ff81901c601b01825285356040526001600160ff1b0316606052600160806000825afa805187183d15176119d85750600060605260405250600161068b565b505b60418303611a1d57604084013560001a602052604084604037602060016080600060015afa805187183d1517611a1b5750600060605260405250600161068b565b505b600060605280604052631626ba7e60e01b80825285600483015260248201604081528460448401528486606485013760208160648701858b5afa905190911416915050949350505050565b638b78c6d8600c5233600052806020600c20541661073d57638b78c6d81954331461073d576382b429006000526004601cfd5b60008181526001830160205260408120541515611131565b60006111318383611b18565b638b78c6d8600c52826000526020600c20805483811783611ae1575080841681185b80835580600c5160601c7f715ad5ce61fc9595c7b415289d59cf203f23a94fa06f04af7e489a0a76e1fe26600080a3505050505050565b6000818152600183016020526040812054611b5f57508154600181810184556000848152602080822090930184905584548482528286019093526040902091909155610773565b506000610773565b6040518060800160405280611b7a611b9b565b8152602001611b87611b9b565b815260006020820152606060409091015290565b60408051608081019091528060008152602001611bd460405180604001604052806000815260200160006001600160a01b031681525090565b8152602001611bff60405180604001604052806000815260200160006001600160a01b031681525090565b8152602001606081525090565b60008083601f840112611c1e57600080fd5b5081356001600160401b03811115611c3557600080fd5b602083019150836020828501011115611c4d57600080fd5b9250929050565b600080600060408486031215611c6957600080fd5b8335925060208401356001600160401b03811115611c8657600080fd5b611c9286828701611c0c565b9497909650939450505050565b634e487b7160e01b600052602160045260246000fd5b6000815180845260005b81811015611cdb57602081850181015186830182015201611cbf565b506000602082860101526020601f19601f83011685010191505092915050565b6000815160068110611d1d57634e487b7160e01b600052602160045260246000fd5b8352602082810151805182860152908101516001600160a01b031660408501525060408201518051606085015260208101516001600160a01b0316608085015250606082015160c060a085015261068b60c0850182611cb5565b6000815160808452611d8c6080850182611cfb565b905060208301518482036020860152611da58282611cfb565b9150506040830151151560408501526060830151848203606086015261072a8282611cb5565b6020815260006111316020830184611d77565b600060c08284031215611df057600080fd5b50919050565b60008060008060608587031215611e0c57600080fd5b84356001600160401b0380821115611e2357600080fd5b611e2f88838901611dde565b95506020870135915080821115611e4557600080fd5b611e5188838901611dde565b94506040870135915080821115611e6757600080fd5b50611e7487828801611c0c565b95989497509550505050565b600060208284031215611e9257600080fd5b5035919050565b80356001600160a01b0381168114611eb057600080fd5b919050565b60008060408385031215611ec857600080fd5b611ed183611e99565b946020939093013593505050565b600060208284031215611ef157600080fd5b61113182611e99565b600080600060408486031215611f0f57600080fd5b611f1884611e99565b925060208401356001600160401b03811115611c8657600080fd5b60ff60f81b881681526000602060e06020840152611f5460e084018a611cb5565b8381036040850152611f66818a611cb5565b606085018990526001600160a01b038816608086015260a0850187905284810360c08601528551808252602080880193509091019060005b81811015611fba57835183529284019291840191600101611f9e565b50909c9b505050505050505050505050565b634e487b7160e01b600052604160045260246000fd5b604051608081016001600160401b038111828210171561200457612004611fcc565b60405290565b60006040828403121561201c57600080fd5b604051604081018181106001600160401b038211171561203e5761203e611fcc565b6040528235815290508061205460208401611e99565b60208201525092915050565b600082601f83011261207157600080fd5b81356001600160401b038082111561208b5761208b611fcc565b604051601f8301601f19908116603f011681019082821181831017156120b3576120b3611fcc565b816040528381528660208588010111156120cc57600080fd5b836020870160208301376000602085830101528094505050505092915050565b600060c082840312156120fe57600080fd5b612106611fe2565b905081356006811061211757600080fd5b8152612126836020840161200a565b6020820152612138836060840161200a565b604082015260a08201356001600160401b0381111561215657600080fd5b61216284828501612060565b60608301525092915050565b6000806040838503121561218157600080fd5b82356001600160401b038082111561219857600080fd5b6121a4868387016120ec565b935060208501359150808211156121ba57600080fd5b506121c7858286016120ec565b9150509250929050565b6000602082840312156121e357600080fd5b81356001600160401b03808211156121fa57600080fd5b908301906080828603121561220e57600080fd5b612216611fe2565b82358281111561222557600080fd5b612231878286016120ec565b82525060208301358281111561224657600080fd5b612252878286016120ec565b6020830152506040830135801515811461226b57600080fd5b604082015260608301358281111561228257600080fd5b61228e87828601612060565b60608301525095945050505050565b6000806000806000606086880312156122b557600080fd5b8535945060208601356001600160401b03808211156122d357600080fd5b6122df89838a01611c0c565b909650945060408801359150808211156122f857600080fd5b5061230588828901611c0c565b969995985093965092949392505050565b6000806020838503121561232957600080fd5b82356001600160401b038082111561234057600080fd5b818501915085601f83011261235457600080fd5b81358181111561236357600080fd5b8660208260051b850101111561237857600080fd5b60209290920196919550909350505050565b60808152600061239d6080830187611cfb565b82810360208401526123af8187611cfb565b9050841515604084015282810360608401526123cb8185611cb5565b979650505050505050565b600181811c908216806123ea57607f821691505b602082108103611df057634e487b7160e01b600052602260045260246000fd5b600061077336836120ec565b6040815260006124296040830185611cfb565b828103602084015261072a8185611cfb565b81835281816020850137506000828201602090810191909152601f909101601f19169091010190565b84815283602082015260606040820152600061248460608301848661243b565b9695505050505050565b8183823760009101908152919050565b634e487b7160e01b600052603260045260246000fd5b60008235607e198336030181126124ca57600080fd5b9190910192915050565b6000823560be198336030181126124ca57600080fd5b6000808335601e1984360301811261250157600080fd5b8301803591506001600160401b0382111561251b57600080fd5b602001915036819003821315611c4d57600080fd5b6060815260006125436060830187611d77565b6001600160a01b038616602084015282810360408401526123cb81858761243b565b601f821115610755576000816000526020600020601f850160051c8101602086101561258e5750805b601f850160051c820191505b818110156125ad5782815560010161259a565b505050505050565b81516001600160401b038111156125ce576125ce611fcc565b6125e2816125dc84546123d6565b84612565565b602080601f83116001811461261757600084156125ff5750858301515b600019600386901b1c1916600185901b1785556125ad565b600085815260208120601f198616915b8281101561264657888601518255948401946001909101908401612627565b50858210156126645787850151600019600388901b60f8161c191681555b5050505050600190811b01905550565b6040815260006126876040830185611cfb565b828103602084015261072a8185611cb5565b6040815260006126876040830185611d7756fea26469706673582212206fa3a8edb3f2aec5e11fcc310fd8413c927609cdabe7faf4901919a99394adab64736f6c63430008190033","linkReferences":{}},"methodIdentifiers":{"ACK_TYPEHASH()":"7159d545","DOMAIN_TYPEHASH()":"20606b70","acknowledgeEdge(bytes32,bytes)":"103278df","acknowledgeEdge(bytes32,bytes,bytes)":"9f70e993","cancelOwnershipHandover()":"54d1f13d","completeOwnershipHandover(address)":"f04e283e","createEdge((uint8,(uint256,address),(uint256,address),bytes),(uint8,(uint256,address),(uint256,address),bytes),bytes)":"139fca60","createEdges(((uint8,(uint256,address),(uint256,address),bytes),(uint8,(uint256,address),(uint256,address),bytes),bool,bytes)[])":"ad155443","edges(bytes32)":"c4a98169","eip712Domain()":"84b0196e","getEdgeId(((uint8,(uint256,address),(uint256,address),bytes),(uint8,(uint256,address),(uint256,address),bytes),bool,bytes))":"9c30fd92","getEdgeId((uint8,(uint256,address),(uint256,address),bytes),(uint8,(uint256,address),(uint256,address),bytes))":"89f88de5","grantRoles(address,uint256)":"1c10893f","hasAllRoles(address,uint256)":"1cd64df4","hasAnyRole(address,uint256)":"514e62fc","owner()":"8da5cb5b","ownershipHandoverExpiresAt(address)":"fee81cf4","proxiableUUID()":"52d1902d","renounceOwnership()":"715018a6","renounceRoles(uint256)":"183a4f6e","requestOwnershipHandover()":"25692962","revokeRoles(address,uint256)":"4a4ee7b1","rolesOf(address)":"2de94807","transferOwnership(address)":"f2fde38b","unacknowledgeEdge(bytes32,bytes)":"4d83be4b","unacknowledgeEdge(bytes32,bytes,bytes)":"ec8c812a","upgradeToAndCall(address,bytes)":"4f1ef286"},"id":52}